:020000040800F2
:10000000E0C200207D020008EF46000877350008B6
:1000100025430008ED0B000889630008000000007C
:10002000000000000000000000000000C101000806
:10003000C11400080000000015020008295A000839
:10004000970200089702000897020008970200082C
:10005000970200089702000897020008970200081C
:10006000970200089702000897020008D5130008BD
:10007000E113000897020008ED130008970200083A
:10008000F91300080514000897020008FD0B00088A
:10009000F10B000897020008970200089702000879
:1000A00097020008970200089702000897020008CC
:1000B000255B0008315B00089702000897020008E2
:1000C00097020008970200089702000897020008AC
:1000D000970200089702000841630008596300086E
:1000E000970200089702000897020008970200088C
:1000F000970200089702000897020008970200087C
:10010000970200089702000897020008970200086B
:100110009702000897020008695B00089702000830
:1001200097020008111400089702000897020008BF
:10013000970200089702000897020008150C0008B3
:10014000090C0008970200089702000897020008AF
:1001500097020008970200089702000871630008E0
:10016000970200089702000897020008970200080B
:10017000970200089702000897020008000000009C
:100180009702000897020008F15E0008095F000866
:1001900097020008FD4A000897020008970200082D
:1001A000000000000000000097020008DFF80CD0FB
:1001B00000F054FC00480047F18F0008E0C2002026
:1001C0002B4B19680868B0E8F04F80F30988BFF33B
:1001D0006F8F4FF0000080F311887047000000001F
:1001E00006480068006880F3088862B661B6BFF30D
:1001F0004F8FBFF36F8F00DF00BF00BF08ED00E03F
:10020000DFF80C00016841F470010160704700BF25
:1002100088ED00E0EFF30980BFF36F8F144B1A688D
:100220001EF0100F08BF20ED108A20E9F04F10607B
:1002300008B44FF0500080F31188BFF34F8FBFF325
:100240006F8F0AF06BF94FF0000080F3118808BC43
:1002500019680868B0E8F04F1EF0100F08BFB0EC46
:10026000108A80F30988BFF36F8F704700BF00BF0B
:1002700008000020EFF30580704700000648804723
:1002800006480047FEE7FEE7FEE7FEE7FEE7FEE77B
:10029000FEE7FEE7FEE7FEE7D15A0008AD010008E1
:1002A00040EA01039B0703D009E008C9121F08C0F8
:1002B000042AFAD203E011F8013B00F8013B521E78
:1002C000F9D27047D2B201E000F8012B491EFBD2EF
:1002D00070470022F6E710B513460A460446194651
:1002E000FFF7F0FF204610BD2DE9FE4F804681EA62
:1002F0000300C00F0C46009021F0004123F00045A0
:10030000B8EB0200A94105D24046214690461C4662
:100310000B46024623F00040104347D0270DC7F399
:100320000A00C3F30A510290401A019040286BDA88
:10033000C3F3130040F4801B0098924620B10023C1
:10034000D2EB030A63EB0B0B01985946C0F1400254
:10035000504600F0FAF906460D4650465946019AB5
:1003600000F002FA10EB08006141002487EA115204
:1003700084EAE7731A4340D0009A62B3019A012AD3
:100380004FEA075215DC001B61EB02014FF00042FF
:1003900002EA0752CDE90042001C41F580113246C5
:1003A0002B4600F039FA03B0BDE8F08F40462146F5
:1003B000F9E7001B61EB0201001C41F580130018F6
:1003C0005B412018A2F5001747EB030140EAD57006
:1003D000B6196D4111E06D084FEA360645EAC07561
:1003E0004FEA0752001B61EB0201001C41F580112E
:1003F00049084FEA30000019514132462B4603B0FC
:10040000BDE8F04F00F0F9B9009801224000002348
:10041000D0EB020263EBE073009821464FEAE074F0
:10042000B8EB000061EB0401E9E783F000435BE710
:1004300081F0004158E72DE9FE4F81EA030404F002
:10044000004421F0004100944FF0000B23F00043E2
:1004500050EA01045ED052EA03045BD0C3F30A54AD
:10046000C1F30A552C44A4F2F3340194A0FB0254C6
:10047000C1F3130141F48011C3F3130343F4801358
:1004800001FB024400FB034E840A970A44EA8154AC
:1004900047EA8357A4FB076802958D0A05FB078589
:1004A0004FEA932C04FB0C542705029D4FEA065893
:1004B00047EA1637B5EB08056EEB070C870E920E70
:1004C00047EA811742EA8312A7FB0201B6EB0B0150
:1004D00064EB00042B0D43EA0C335E1844EB1C5014
:1004E000DA465146E7FB0201C5F313044FEA0B332A
:1004F00043EA14534FEA0432019C43EA0603A4F191
:100500000C040294009CCDE900B400F085F903B01E
:10051000BDE8F08F00200146F9E72DE9F04D81EAB2
:10052000030404F0004B21F0004514464FF0000A8C
:1005300023F0004150EA050220D054EA01021DD008
:10054000C5F30A570246C5F31303C1F31300C1F301
:100550000A5640F4801543F48013A7EB0608101BDD
:10056000D64608F2FD3873EB050002D308F1010806
:1005700001E092185B41B8F1000F03DA0020014658
:10058000BDE8F08D00204FF48011064684460EE051
:10059000171B73EB050705D3121B63EB050306431B
:1005A0004CEA010C49084FEA300092185B4150EACE
:1005B0000107EDD152EA030012D082EA040083EA77
:1005C0000501084305D0101BAB4106D201220023D0
:1005D00006E000224FF0004302E06FF001025310EA
:1005E0001AEB06004CEB085110EB0A0041EB0B0133
:1005F000BDE8F04D00F001B930B404469623080080
:10060000214604D0B62330BC002200F0C8B82046F2
:100610000021F8E70EB540F2334202920022CDE904
:100620000022134600F0F8F803B000BD00F00042CD
:1006300030F000400AD0C10D01F56071C0F3160022
:1006400042EA0151C20840071143704700200146A9
:100650007047000030B5041E71F1000404DB4FF058
:100660000044404264EB0101141E73F1000405DBF9
:100670001C464FF00043524263EB0403994208BF0B
:10068000904230BD01F0004330B421F0004150EA07
:10069000010206D00A0DA2F56072C1F31301002A0F
:1006A00002DC30BC00207047440F44EAC104C100A2
:1006B000E01830BC00EBC25000F068B830B50B4613
:1006C000014600202022012409E021FA02F59D4282
:1006D00005D303FA02F5491B04FA02F52844151E56
:1006E000A2F10102F1DC30BD2DE9F05F05460020EA
:1006F00092469B4688460646814640241BE0284693
:1007000041464746224600F0BBF953465A46C01AB6
:10071000914110D311461846224600F016F82D1AC2
:1007200067EB01084F4622460120002100F00DF83A
:1007300017EB00094E41201EA4F10104DFDC4846FE
:1007400031462A464346BDE8F09F202A04DB203A82
:1007500000FA02F1002070479140C2F1200320FA14
:1007600003F3194390407047202A06DBCB17203A49
:1007700041FA02F043EAE07306E041FA02F3D040A6
:10078000C2F1200291400843194670470029A8BFD2
:100790007047401C490008BF20F00100704710B4AA
:1007A000B0FA80FC00FA0CF050EA010404BF10BC5F
:1007B000704749B1CCF1200421FA04F411FA0CF18C
:1007C00018BF012121430843A3EB0C01CB1D4FEAC5
:1007D00000614FEA102042BF002010BC704700EBC0
:1007E000C35010440029A4BF10BC7047401C4900EE
:1007F00008BF20F0010010BC704710B5141E73F143
:10080000000408DA401C41F1000192185B411A43D0
:1008100001D120F0010010BD2DE9F04D92469B461C
:1008200011B1B1FA81F202E0B0FA80F220329046C2
:10083000FFF78BFF04460F4640EA0A0041EA0B012E
:1008400053465A46084313D0114653EA010019D0C3
:10085000C8F14002504600F013F905460E465046D6
:1008600059464246FFF771FF084305D0012004E0D6
:1008700020463946BDE8F08D0020054346EAE07683
:100880002C4337430A986305E40AA0EB08000022D2
:10089000FD0A44EA47540A3002D500200146E9E740
:1008A000010510196941DDE9084500196941BDE8F4
:1008B000F04DA2E770B521F0004303430CD0C1F323
:1008C0000A550024D5EB040564EB0403D617AD1AD2
:1008D000B34102DB0020014670BD201841EB0251FC
:1008E00070BD2DE9F04D00231A461B1A8A4103DB27
:1008F00000200146BDE8F08DC1F30A52C1F3130197
:1009000041F480154FF0000BD10702D100186D4162
:10091000521E0027044640F2FF11384601EB620ADE
:100920003E468046024600204FF4801100F0A8F8B1
:10093000C2197141BB1846EB0100B4EB030C75EB17
:10094000000C04D3E41A65EB000517460E46241983
:1009500008F101006D4180463428E3DDF91946EBCA
:100960000600091BA84103D24FF0FF32134601E0F5
:10097000002213461BEB070046EB0A51BDE8F04D81
:10098000FFF73BBF2DE9FE4FC3F30A5701F00045C7
:100990000024C1F30A56C3F31303C1F3130143F454
:1009A000801312EB020AA64641F48011009543EB36
:1009B000030CA7F1010B16E0B0EB0A0061EB0C0190
:1009C000071E71F1000707DA4FF00008D0EB0800AE
:1009D00085F0004568EB0101171A73EB0107EBD3B3
:1009E000761E001849415E45F6DA50EA010209D048
:1009F000CDE900E5002213460296FFF70DFF03B094
:100A0000BDE8F08F20460099F9E70EB5C10F80EAE6
:100A1000E0700844CA07002140F233438DE80E001D
:100A20000A460B46FFF7F8FE03B000BDC1F30A52B9
:100A3000C1F3130140F2FF3341F480119A4202DA0C
:100A400000200146704740F233439A42A2F23342FB
:100A500002DC524200F014B8FFF777BE064C074D97
:100A600006E0E06840F0010394E80700984710347E
:100A7000AC42F6D3FFF79EFB48AF000868AF000812
:100A8000202A04DB203A21FA02F00021704721FAE3
:100A900002F3D040C2F1200291400843194670474A
:100AA0000EB540F2334102910021CDE900110A4612
:100AB0000B46FFF7B1FE03B000BD70B5C1F30A529B
:100AC00001F000450024C1F3130140F2FF3341F46B
:100AD00080119A4201DA002070BD40F233439A42FD
:100AE000A2F2334203DC5242FFF7CAFF00E090401B
:100AF0002C43F1D0404270BD70B58D1810F8014BF9
:100B000014F0030201D110F8012B231106D110F8C3
:100B1000013B03E010F8016B01F8016B521EF9D1A3
:100B2000ABB110F8012B04F00C048A1A0C2C03D082
:100B3000A2EB84129B1C08E010F8014BA2EB0422EC
:100B4000F8E712F8014B01F8014B5B1EF9D5A942F9
:100B5000D4D3002070BD000070B58CB03022104995
:100B60006846FFF79DFB0C2000246D4600EBD07615
:100B70000DE000BF35F83400C82180B208F02CF831
:100B800005EBC4004068800009F006FC641CB4EB6F
:100B9000660FEFDB0349002008600CB070BD000059
:100BA00040AA00083418004070B588B020220E49D1
:100BB0006846FFF775FB082000246D4600EBD076F1
:100BC0000DE000BF35F83400C82180B208F004F809
:100BD00005EBC4004068800009F0DEFB641CB4EB48
:100BE000660FEFDB08B070BD70AA0008FEE70000DA
:100BF000014800F089BD0000ECB00020014800F081
:100C000083BD0000ECB00020014800F07DBD000075
:100C10002CB10020014800F077BD00002CB100206D
:100C200010B54FF4D872036802EB01129B5813F011
:100C30000404436B9C600468436BA45854D0E408DC
:100C40005C6003689A58436B02F00202DA604FF46A
:100C5000DA72036802EB01129B58446B03F00F0336
:100C6000236103689A58436BC2F30722DA614FF499
:100C7000DC72036802EB01129B58446B2375036816
:100C80009B58446B1B0A637503689B58446B1B0C91
:100C9000A37503689A58436B120EDA754FF4DE722F
:100CA000036802EB01129B58446B237603689B5840
:100CB000446B1B0A637603689B58446B1B0CA3763A
:100CC00003689A58436B120EDA76202200290168D5
:100CD0000DD00A6101684A6922F010024A6190F859
:100CE0003810222909D021E0640D1C60A9E7CA60F0
:100CF00001684A6922F00202F0E701684A6922F4B9
:100D000080724A6101684A6922F400724A6101688E
:100D10004A6922F480624A6101684A6922F40062E9
:100D20004A6101684A6922F400424A6190F8381029
:100D3000322907D05FF0010180F8381000F0FCFE86
:100D4000002010BD1221F7E710B501684A6922F0B2
:100D500001024A6190F83810122918D101684A69D5
:100D600022F480724A6101684A6922F400724A6181
:100D700001684A6922F480624A6101684A6922F482
:100D800000624A6101684A6922F400424A6190F8AF
:100D90003810322906D0012180F8381000F0CEFF3B
:100DA000002010BD2221F7E770B5754C2DED0E8B9C
:100DB000F0EE408AA069FFF739FC41EC100B9FED83
:100DC00071ABB0EE4A1AF0EE6A1A05F04DFFB0EEC4
:100DD000401AF0EE601AB0EE419AF0EE619A606946
:100DE000FFF724FC41EC100BB0EE4A1AF0EE6A1A41
:100DF00005F03AFF53EC192B51EC100BFFF774FA86
:100E000041EC100B06F0BCFD51EC100BFFF73AFC67
:100E100008EE100A5D4918EE100A884202DAB2EEB6
:100E2000048A06E018EE100A5949884201DDB3EE43
:100E30000E8AD4ED050A80EE880A10EE100AFFF73C
:100E4000F5FB41EC100B05F077FC9FED52CB51EC1C
:100E5000100B53EC1C2BFFF7EEFA9FED50DB53EC1D
:100E60001D2BFFF75AFBFFF70DFCB3EE040A0546F6
:100E700028EE000A10EE100AFFF7D8FBB0EE4AEA9F
:100E8000F0EE6AEA41EC190BB0EE4E1AF0EE6E1A73
:100E90009FED440B05F0E8FEB0EE40AAF0EE60AA2C
:100EA000B0EE4E1AF0EE6E1A9FED400B05F0DCFE30
:100EB000B0EE40BAF0EE60BA18EE100AFFF7B6FBDB
:100EC00041EC100BB0EE4E1AF0EE6E1A05F0CCFEAF
:100ED000B0EE401AF0EE601A53EC1B2B51EC110BE4
:100EE000FFF702FA53EC1A2BFFF79FFA53EC192B7A
:100EF000FFF713FB41EC100B05F072FA53EC1C2BBF
:100F000051EC100BFFF797FA53EC1D2BFFF705FB85
:100F100041EC190B2846FFF789FB53EC192BFFF71F
:100F200087FAFFF7AFFB08EE100A2846FFF77EFBB3
:100F300053EC192BFFF7D8F9FFF7A4FB00EE100ACA
:100F400018EE900ADFED1B0AB0F17E5F0FD018EEAD
:100F5000900A10F1814F07D138EE601A30EE600A26
:100F600084ED071A84ED080ABDEC0E8B70BD38EED7
:100F7000601A30EE600A84ED081A84ED070AF3E780
:100F8000A8000020000000000000004000002041F8
:100F90000000F0410000000000806640000000609A
:100FA000FB21094000000000000034400000000068
:100FB000000024400000B44210B5002003F0EAFD18
:100FC000012003F0E7FD022003F0E4FDBDE810403E
:100FD000032003F0DFBD10B5002003F0DBFD01208E
:100FE00003F0D8FD022003F0D5FDBDE8104003203A
:100FF00003F0D0BD70B52DED028B82B00DF1200C49
:10100000B0EE418A9CE87000CDE9004503F0EAFEAD
:10101000B0EE480AFFF7C8FE02B03046BDEC028BC6
:10102000BDE8704003F0B6BD2DE9F047334C1525FF
:101030000020257000F06AF8962009F0ADF9012033
:1010400000F064F8962009F0A7F92D4ED6E90001CA
:10105000FFF7D2FA2B4F4FF00108386084F8008078
:1010600040F6980009F098F92570022000F04EF83B
:10107000962009F091F9032000F048F8962009F035
:101080008BF9D6E90001FFF7B7FA386084F80080E1
:10109000042003F041FBDFF8709001220421484650
:1010A00001F0ABF82570002000F030F8C82009F0FE
:1010B00073F900220421484601F09FF8012000F056
:1010C00025F8C82009F068F9D6E90001FFF794FA7D
:1010D000386084F800804FF4FA6009F05DF92570FB
:1010E000022000F013F8C82009F056F9032000F0A0
:1010F0000DF8BDE8F047C82009F04EB9A80000205F
:1011000070000020CC000020002002402DE9F041BA
:1011100007462DED088B9FED998A994C994DF3EE7A
:101120000C8A84ED008AC5ED008AB7EE000AFFF74D
:101130003BFEFFF750FF4FF4167009F02DF937B161
:10114000012F06D0022F06D0032F06D006E003267B
:1011500004E0022602E0012600E0002684ED008A79
:101160009FED890A85ED000AB7EE000AFFF71CFE25
:10117000304603F00FFD962009F00EF984ED008A49
:10118000B3EE0D0A85ED000AB7EE000AFFF70CFE7C
:10119000384603F0FFFC4FF4487009F0FDF89FED6E
:1011A0007BABB0EE4A0AF0EE6A0A06F085FB9FEDD3
:1011B000791B51EC100B53EC112BFFF73CF9FFF7A7
:1011C00061FAB0EE4A0AF0EE6A0A206005F064FCAB
:1011D0009FED729B51EC100B53EC192BFFF72BF981
:1011E000FFF750FAB7EE000A2860FFF7DDFD38463A
:1011F00003F0D0FC4FF4C876304609F0CDF8B0EEDD
:101200004A0AF0EE6A0A06F057FB9FED661B51ECA6
:10121000100B53EC112BFFF70EF9FFF733FAB0EE7A
:101220004A0AF0EE6A0A206005F036FC9FED5FABDB
:1012300051EC100B53EC1A2BFFF7FDF8FFF722FAD5
:10124000B7EE000A2860FFF7AFFD384603F0A2FCB6
:10125000304609F0A1F89FED57BBB0EE4B0AF0EE17
:101260006B0A06F029FB53EC1A2B51EC100BFFF71D
:10127000E2F8FFF707FAB0EE4B0AF0EE6B0A2060D7
:1012800005F00AFC53EC1A2B51EC100BFFF7D3F8C6
:10129000FFF7F8F9B7EE000A2860FFF785FD38463A
:1012A00003F078FC304609F077F89FED44ABB0EEE0
:1012B0004A0AF0EE6A0A06F0FFFA53EC192B51ECD9
:1012C000100BFFF7B8F8FFF7DDF9B0EE4A0AF0EEC1
:1012D0006A0A206005F0E0FB53EC192B51EC100B6F
:1012E000FFF7A9F8FFF7CEF9B7EE000A2860FFF77D
:1012F0005BFD384603F04EFC4FF49676304609F01D
:101300004BF89FED30ABB0EE4A0AF0EE6A0A06F0F9
:10131000D3FA9FED2E9B51EC100B53EC192BFFF7DA
:101320008AF8FFF7AFF9B0EE4A0AF0EE6A0A2060D9
:1013300005F0B2FB53EC192B51EC100BFFF77BF8C7
:10134000FFF7A0F9B7EE000A2860FFF72DFD384639
:1013500003F020FC304609F01FF884ED008AC5ED4B
:10136000008AB7EE000AFFF71FFDFFF734FEBDEC61
:10137000088BC820BDE8F04109F00EB8000000005D
:10138000BC000020C00000200000C441000000603C
:101390001857F63F00000000000038C000000000B1
:1013A0000000384000000000000024C000000000E1
:1013B00000002440000000E0A6F1F43F00000060BF
:1013C000358CF33F000000A046DF913F0000000095
:1013D00000003D40014800F0C5BC0000D4AF002033
:1013E000014800F0BFBC0000B4AE0020014800F08E
:1013F000B9BC000074AF0020014800F0B3BC00008D
:1014000054AE0020014800F0ADBC000034B0002014
:10141000014800F0A7BC000014AF002001681823A9
:10142000CAB2103AB2FBF3F2054B6FF30901032A7B
:101430009B5CC36500D9091D8165084670470000A3
:10144000ECA9000810B5014600208B698A6A4FF0AC
:10145000C07453B1B3F5005F15D072B1012A0CD03E
:10146000022A0AD0032A09D104E01AB1012A06D0BF
:10147000022A03D1C96AC90100D5012010BDC96A79
:10148000A142FAD010BD002AF7D0012AF2D0022AD8
:10149000F3D0032AF3D010BD30B50468256825F4D5
:1014A00080252560046863608368402B036803D04F
:1014B00099600068C26030BD9A600068C16030BD4C
:1014C000704702F059F8FCE7FEE7000070B53F49AD
:1014D0002DED028BF3EE068AD1E90001B3EE048A0A
:1014E000FFF78AF800EE900A9FED390A39483A4929
:1014F00080EE801AD0ED040A394C3A4D3A4EC0EED7
:10150000801ADFED360A31EE610A10EE100A8842C9
:1015100008DAC4ED000AC5ED008AB7EE000AFFF74D
:1015200043FC41E010EE100A2B49494208442F4980
:10153000884229D29FED2E8BB0EE480AF0EE680A61
:1015400006F0BAF99FED2C1B51EC100B53EC112B4C
:10155000FEF771FFFFF796F8B0EE480AF0EE680A62
:10156000206005F099FA9FED261B51EC100B53EC0F
:10157000112BFEF760FFFFF785F8B7EE000A286031
:10158000FFF712FC10360FE010EE100A1E49A0F112
:101590007E50884210D2C4ED000A85ED008AB7EE75
:1015A000000AFFF701FC203696EC040ABDEC028B22
:1015B000BDE87040FFF700BD14491420087014A066
:1015C000BDEC028BBDE8704004F0E0BE700000206E
:1015D00000007A44FC0A0020CDCC4C3F0000000003
:1015E000BC000020C000002004AA000833333300F0
:1015F000000000601857D63F0000006066E63CC05F
:101600000000006066E63C4066666600A8000020B8
:101610004A756D7020436F6D706C6574652E0000A7
:10162000F0B50A7D01209040344A136843F001036D
:101630001360136823F47C53136013684C6A43EA05
:10164000042313602D4B1C331C6884431C602B4DFA
:101650002B4CCE690C35A6B92E6886432E608F8937
:101660004E6867F31F464F6904EBC707C7F840662B
:101670000F890E6867F31F464F6904EBC707C7F869
:101680004466CE69012E14D12E6806432E600E8862
:101690004D6866F31F454E6904EBC606C6F8405612
:1016A0000E89CD6866F31F454E6904EBC604C4F885
:1016B0004456124C8D69241D002D256806D0054323
:1016C00025600E4C0D69143415B104E08543F7E72D
:1016D0002568854325600D69012D02D125680543E4
:1016E0002560096A012902D119680143196010684F
:1016F00020F0010010600020F0BD000000660040F6
:10170000006000407047000010B504460068416961
:10171000C943C90714D182685849914368D0002150
:101720008368574A9A4365D0002283685548984396
:1017300062D000201143014302D02046FFF704FB92
:101740002068C168406911F0030FC0F3400004D065
:1017500018B100212046FFF763FA2168086949693A
:1017600010F0030FC1F3001104D019B1012120467C
:10177000FFF756FA20688169426911F0010FC2F340
:1017800000234269C2F3C03205D023B11AB1E16B24
:1017900041F00101E1638169C1F34003416942699C
:1017A000C1F34021C2F3C0322BB121B11AB1E16BB8
:1017B00041F00201E16381694269C1F38001C2F332
:1017C00080234269C2F3C03229B123B11AB1E16B5F
:1017D00041F00401E163816911F0700F0ED0002126
:1017E00042694369C2F3C022C3F3C03341B127E069
:1017F000012195E7012298E701209BE70121EFE70E
:10180000F2B1EBB1816901F07001402929D006DC09
:10181000102909D020290BD030290DD11DE05029E5
:1018200023D0602908D124E0E16B41F0080102E0F7
:10183000E16B41F01001E163816921F07001816188
:10184000E06B002808D0216804204860012084F85B
:1018500038002046FFF756FF10BDE16B41F0200134
:10186000E9E7E16B41F04001E5E7E16B41F0800120
:10187000E1E7E16B41F48071DDE700000300000463
:1018800000030008000003102DE9F041040004D01B
:1018900094F83800002518B107E00120BDE8F08178
:1018A00084F83950204600F093F8022084F838007C
:1018B0002068016821F0020101602068016841F0A0
:1018C0000101016000F09EFC0746032605E000BF11
:1018D00000F098FCC01B0A2863D820684068C00745
:1018E000F6D020684168C90768D0A169012901685C
:1018F0003FD021F080010160E06901282068016883
:101900003AD021F040010160206A01282068016876
:1019100035D021F020010160606A0128206801684B
:1019200030D021F010010160A06A01282068016810
:101930002BD021F008010160E06A012820680168CD
:1019400026D021F004010160D4E902010843D4E962
:101950000412114308436168491E08432168C861A5
:101960002068016821F00101016000F04BFC07468E
:101970001CE041F08001BEE741F04001C3E741F0C7
:101980002001C8E741F01001CDE741F00801D2E79E
:1019900041F00401D7E700BF00F034FCC01B0A2867
:1019A00004D904F8386F0320657077E72068406831
:1019B000C007F1D120684068C00703D0042084F834
:1019C00038006AE7E563012084F83800002065E705
:1019D000F0B5324B0768DFF8C0C018680322022454
:1019E00009252F490026401C87B0674521D1186082
:1019F000012807D1086840F000700860086800F00E
:101A0000007005908DE85400CDE90325694625480E
:101A100000F008FB00220521132000F08DFC1320AC
:101A200000F07EFC00220521142000F085FC14202B
:101A30002EE0DFF874C067452CD10F6847F080674F
:101A40000F600F68012807F080670597186007D1BD
:101A5000086840F000700860086800F000700590A9
:101A60004FF440508DE85100CDE9032569460F48F9
:101A700000F0D8FA002211463F2000F05DFC3F2024
:101A800000F04EFC00221146402000F055FC4020A2
:101A900000F046FC07B0F0BD006400407C00002070
:101AA00040380240000C0240006800400004024040
:101AB00010B590F83820012A01D0122A39D190F8B7
:101AC0003920012A35D0012280F8392090F83820B9
:101AD000122A29D05FF0220280F838200022C26347
:101AE00003685C6944F480745C6103685C6944F475
:101AF00000745C6103685C6944F480645C61036841
:101B00005C6944F400645C6103685C6944F400440B
:101B10005C6180F8392000680029416906D041F0F5
:101B200010014161002010BD3222D5E741F00201D1
:101B3000F7E7022010BD000010B50446406B0068B6
:101B4000A0F20120072818D81249C0B2087000EB93
:101B5000400101EBC001104800EB8100816A4A1C82
:101B600032298262214602D807F0AEF901E007F07F
:101B700081F92146094807F07DF909480068416963
:101B800041F00201416107480068416941F00201EA
:101B9000416110BD640B0020A4B2002084B4002079
:101BA000ECB000202CB100202DE9F05F0E4601685A
:101BB00004468868400105D48868000102D488681A
:101BC000C00067D594F8390001280ED0012784F8A9
:101BD000397094F8380022280AD0122084F838008E
:101BE0008868400106D500250AE00220BDE8F09F84
:101BF0003220F3E78868000101D5012500E00225C5
:101C00004FF4C07000EB05100A5802F001020A50B0
:101C1000216B8A68EAB3D4F800C05CF80030134343
:101C2000CA68496842EAC1010B434CF80030216B95
:101C30000A7C02F00F020A614FF4C271226801EBC4
:101C40000511535823F00F03535022685358D4F80A
:101C500030C0DCF810C043EA0C035350216B4FF442
:101C6000C47303EB05130A7DD1F8151042EA012174
:101C70002268D150216B4FF4C67303EB05130A7E23
:101C8000D1F8191042EA01212268D15021680A587E
:101C900001E00DE046E042F001020A5000F0B2FA25
:101CA00081464FF00008DFF888A0DFF888B019E01F
:101CB00022681358D1F80CC0098843EA0C0343EAA0
:101CC00041511150B3E7701C0CD02EB100F09AFABC
:101CD000A0EB0900B04205D9032084F8380084F84D
:101CE000398083E795B12068012D816813D01248AF
:101CF00088430028E7D194F8380032280ED084F8C1
:101D0000387000BF84F8398000206FE72068816850
:101D10002AEA0100EDE72BEA0100EAE7222084F835
:101D20003800EFE7042084F8380001205EE7000067
:101D3000030000040003000800000310704790F83F
:101D40003510022903D0802141650120704705210B
:101D500080F835100068016821F001010160002061
:101D6000704700002DE9F84304464FF00008CDF815
:101D7000008064484FF41651A56D0068B0FBF1F780
:101D80002E6894F85C10082000FA01F131420FD05F
:101D900021680A6852070BD50A6822F004020A601B
:101DA00094F85C108840A860606D40F001006065A8
:101DB00094F85C1054488840304208D02168496942
:101DC000090604D5A860606D40F0020060654E48C9
:101DD00094F85C10C01C8840304208D02168096823
:101DE000890704D5A860606D40F00400606594F830
:101DF0005C1010208840304218D02168096809071B
:101E000014D5A86020680168490304D50068000360
:101E100008D5A16C07E00168C90503D4016821F069
:101E200008010160216C09B12046884794F85C10D4
:101E30002020884030424FF0010631D021680968E7
:101E4000C9062DD5A86094F83500052820680168DA
:101E500006D0490347D5006800031DD4616C1CE01F
:101E600021F0160101602068416921F08001416183
:101E7000206C08B9A06C20B12068016821F008012D
:101E8000016094F85C103F208840A86084F834809A
:101E900084F83560216D1FE0E16B09B12046884769
:101EA000606D00282BD0606DC00714D0052084F829
:101EB00035002068016821F0010101600098401C94
:101EC0000090B84203D820680068C007F6D184F8B3
:101ED000348084F83560E16C002910D001B02046D0
:101EE000BDE8F04308470168C905D5D4016821F071
:101EF0001001016084F8348084F83560CCE7BDE8D7
:101F0000F883000004000020010080002DE9F0416A
:101F1000044600F077F906465CB1002584F8345099
:101F2000022084F835002068016821F00101016079
:101F30000DE00120BDE8F08100F064F9801B052868
:101F400005D920206065032084F83500F2E7206879
:101F50000068C007F0D1226811681F480140D4E929
:101F600001031843D4E90336334318436369184324
:101F7000A3691843E3691843236A18430843616A55
:101F8000042903D1D4E90B131943084310602068D6
:101F90004069666A20F0070130460E430127042895
:101FA0000AD1A06A06432046FFF74CFA20B1402030
:101FB000606584F83570BCE7206846612046FFF70D
:101FC0002DFA94F85C203F2191408160656584F88A
:101FD00035700020AEE700003F8010F070B5044679
:101FE00090F83400002501280CD0012084F834003A
:101FF00094F835600020012E06D084F834000225C4
:10200000284670BD022070BD022684F835606065E8
:102010002046FFF741FA2068016841F001010160A4
:10202000EEE700002DE9F84FDFF890B100224FF005
:1020300001084FF0030A4FF00F090BF1040E00BF27
:102040000B6808FA02F42340A3426ED14D68022DBA
:1020500001D0122D0ED1D50800EB850CDCF82050F4
:102060005607F70E09FA07F6B5430E69BE402E4330
:10207000CCF82060066855000F790AFA05FC07F0D5
:10208000030726EA0C06AF40374307604E68012E6F
:1020900005D0022E03D0112E01D0122E0ED187684A
:1020A000CE6827EA0C07AE403E4386604668A643EA
:1020B0000C79C4F30014944034434460C4688E68BF
:1020C00024EA0C04AE402643C6604C68E4006FD599
:1020D0003B4C256845F480452560246822F00305C3
:1020E00004F480440094374C2E19D6F8084895071C
:1020F0002F0F09FA07F5AC43334DA84201D1002553
:102100002EE0324DA84201D1012529E0304DA842F0
:1021100001D1022524E02F4DA84201D103251FE063
:102120002D4DA84202D104251AE041E02B4DA842D2
:1021300001D1052514E02A4DA84201D106250FE062
:10214000284DA84201D107250AE0274DA84201D118
:10215000082505E0254DA84201D1092500E00A2502
:10216000BD402543C6F80858DBF800405D464E6880
:102170009C43F60300D51C432C60DEF800407546F6
:102180004E689C43B60300D51C432C600B4D0835AC
:102190002C684E689C43F60200D51C432C60074D0A
:1021A0000C352C684E689C43B60200D51C432C604D
:1021B000521C102AFFF444AFBDE8F88F003C0140E8
:1021C0004438024000300140000002400004024058
:1021D00000080240000C02400010024000140240BF
:1021E00000180240001C024000200240002402406F
:1021F0000069084000D0012070470AB18161704732
:102200000904FBE701480068704700000000002057
:1022100002480168491C016070470000000000206E
:102220000B4810B5016841F400710160016841F488
:1022300080610160016841F480710160032000F059
:102240009BF8002000F006F800F03EF8002010BDDA
:10225000003C024010B5014688B00022362000F054
:102260006BF8362000F05CF813480024016841F058
:1022700010010160006805A900F010000690684692
:1022800000F090F900F0B4F90C494000B0FBF1F116
:102290000C480B4A491E026040F2E732C0E90324B1
:1022A000C0E9011400F074FC10B1012008B010BDA9
:1022B000044800F0A7FCF9E74038024040420F0014
:1022C0000010004060AC002010B5032000F054F86E
:1022D000002211466FF00B0000F02EF8002211468C
:1022E0006FF00A0000F028F8002211466FF0090094
:1022F00000F022F800221146501F00F01DF80022C5
:102300001146101F00F018F800220F21901E00F057
:1023100013F800220F21BDE81040501E00F00CB849
:1023200000F01F02012191404009800000F1E020EF
:10233000C0F8001170470000F0B40E4B1B680C464B
:10234000C3F30223C3F10705042D00D90425191D89
:10235000072901D2002300E0DB1E012606FA05F161
:10236000491E214099409E40761E16403143F0BCE4
:1023700002F0BEB90CED00E0064900F00702086863
:102380004FF6FF03184040EA0220034A104308605A
:10239000704700000CED00E00000FA052DE9F8435D
:1023A0001E48016841F0805101600068012600F07C
:1023B00080500090300490FAA0F0194FB0FA80F0ED
:1023C00047F82060FFF71EFF05464FF47A78154C5A
:1023D00005E000BFFFF716FF401B404515D86068B9
:1023E000C003F7D54FF4003090FAA0F0B0FA80F0B7
:1023F00047F82060FFF706FF0546464608E000BFA5
:10240000FFF700FF401BB04202D90320BDE8F8836C
:1024100060688003F4D50020F8E7000040380240EF
:1024200000000E42007000402DE9F047DFF8649193
:1024300005460F46D9F8000000F00F01F8B28046BB
:10244000B94208D2014689F80010D9F8000000F01E
:102450000F00B84274D128784F4C800705D520680A
:10246000A96820F0F000084320602878C00759D000
:1024700049496868083901281AD002281BD0032866
:1024800019D00968890700295ADA216821F0030167
:1024900001432160FFF7B6FE6968064641F28830C5
:1024A000012911D002291DD00329824627D035E009
:1024B00009688903E7E709688901E4E7FFF7A2FEF5
:1024C000811B514501D926E082462068C0F3810076
:1024D0000128F3D126E000BFFFF794FE811B514590
:1024E00001D918E082462068C0F381000228F3D1A8
:1024F00018E000BFFFF786FE811B51450BD820680E
:10250000C0F381000328F5D10CE000BFFFF77AFE8D
:10251000811B514502D90320BDE8F087206810F0E7
:102520000C0FF3D1D9F80010484601F00F01B94261
:1025300008D980F80080006800F00F00B84201D090
:102540000120E9E72878400705D52068E96820F4EC
:10255000E050084320602878000706D520682969E4
:1025600020F4604040EAC100206000F071F821686A
:10257000F02292FAA2F201F0F001B2FA82F2D14016
:10258000064A515CC840064908600020FFF762FE19
:102590000020C1E7003C024008380240F4A90008CE
:1025A000040000200F2202600C4A136803F00303AA
:1025B0004360136803F0F0038360136803F4E0538F
:1025C000C36012684FF4E05303EAD2020261044888
:1025D000006800F00F0008607047000008380240F3
:1025E000003C0240014800687047000004000020E1
:1025F00008480949006809684FF4E05292FAA2F2CB
:1026000001F4E051B2FA82F2D140044A515CC84070
:10261000704700000400002008380240F4A90008B8
:1026200008480949006809684FF4604292FAA2F22A
:1026300001F46041B2FA82F2D140044A515CC840D0
:10264000704700000400002008380240F4A9000888
:1026500030B51948006810F00C01184812D0184C19
:1026600004290ED008290DD11349091F0A6802F068
:102670003F030A68550247F6C07204D5B4FBF3F075
:1026800003E0204630BDB0FBF3F00B68096813404F
:1026900092FAA2F2B2FA82F2D34058434FF4403297
:1026A00092FAA2F201F44031B2FA82F2D140491C0E
:1026B0004900B0FBF1F030BD083802400024F400BE
:1026C000001BB7002DE9F84F0446DFF8CC820078F4
:1026D000A8F1040BC007ABF1040537D0D8F80010FF
:1026E0004046C1F38101012908D00068C0F3810090
:1026F00002280AD1DBF80000400206D528688003D2
:1027000024D56068002878D020E0A3492079891F6B
:102710000870606868B1FFF775FD064605E000BF08
:10272000FFF770FD801B642868D828688003F7D500
:102730000CE0FFF767FD064605E000BFFFF762FD0E
:10274000801B6428F0D828688003F7D42078934E43
:1027500080074FF0010A4FF0000742D5D8F800106B
:10276000404611F00C0F08D00068C0F38100022829
:102770000AD1DBF80000400206D42868800714D58F
:10278000E068012839D110E0E068D8B1C6F800A0AF
:10279000FFF738FD814605E0FFF734FDA0EB0900A7
:1027A0000228C1D828688007F6D52868F82292FA4E
:1027B000A2F22169B2FA82F220F0F80091400843B7
:1027C00028600EE03760FFF71DFD814606E000BF80
:1027D000FFF718FDA0EB090002280FD82868800732
:1027E000F6D42078000728D56D486169A1B1C0F8FA
:1027F00000A0FFF707FD814608E0CAE079E000BFCE
:10280000FFF700FDA0EB0900022872D862486C3087
:1028100000688007F4D510E00760FFF7F3FC8146FD
:1028200006E000BFFFF7EEFCA0EB0900022860D82D
:1028300059486C3000688007F4D42078400749D5A7
:1028400055483830016841F080510160006800F05F
:10285000805000905348016841F480710160FFF797
:10286000D1FC814606E000BFFFF7CCFCA0EB0900DD
:1028700002283ED84B480068C005F5D5DFF818910E
:10288000207A09F1680989F80000A06888B1FFF78B
:10289000B9FC009008E000BFFFF7B4FC0099411AB2
:1028A00041F2883081426CD8D9F800008007F3D516
:1028B00010E0FFF7A7FC009008E000BFFFF7A2FCC4
:1028C0000099411A41F2883081425AD8D9F8000063
:1028D0008007F3D4A069E0B3D8F80010C1F38101F8
:1028E000022956D00228376604D0FFF78BFC044635
:1028F0004AE046E0FFF786FC074604E0FFF782FC6B
:10290000C01B02283DD828688001F7D4D4E907010C
:10291000084347F6C07292FAA2F2616AB2FA82F2F2
:102920009140A26A4FF0FF3303EB52024FF4403361
:1029300093FAA3F3B3FA83F39A40114308434FF099
:10294000706292FAA2F2E16AB2FA82F2914008430E
:1029500000E01CE0CBF80000C6F860A0FFF752FCD6
:10296000044604E0FFF74EFC001B022809D8286843
:102970008001F7D50BE000BFFFF744FC001B0228E5
:1029800002D90320BDE8F88F28688001F4D4002024
:10299000F8E70120F6E7000008380240000047424F
:1029A000800E4742007000407047000038B5044672
:1029B0000068426881684B0605D4CB0703D05306F4
:1029C00001D5216C04E08B0707D5130605D5616C92
:1029D00001B02046BDE83040084711F4B07F48D030
:1029E000930646D54B060AD594F85130032B3DD0BB
:1029F000636D43F004036365C368836800938B06CB
:102A000009D5636D43F00103636583680093036830
:102A100023F040030360C80506D5606D40F0080050
:102A20006065206880680090606D002821D0206873
:102A3000416821F0E0014160012084F851009007D5
:102A400018D02068416821F0030141600B4DE06C13
:102A500018B10565E06CFFF772F9A06C002808D08A
:102A60000565A06CBDE83840FFF769B9C1688068AA
:102A7000009038BD2046FFF797FF38BD094B00088E
:102A800070B5040005D00025A56294F8510010B17E
:102A900006E0012070BD84F85050204600F030F868
:102AA000022084F851002068016821F04001016093
:102AB000D4E901010843D4E90312114308436169D1
:102AC0000843218B01F400710843E1690843216A3E
:102AD0000843A16A084321680860A069042101EA4B
:102AE0001040616A0843216848602068C16921F488
:102AF0000061C1616565012084F85100002070BD4E
:102B000000B500680E4987B0884217D10D480021F2
:102B1000026842F480120260006800F480100590A0
:102B20004FF4607000900220CDE901010320039072
:102B30000520049069460448FFF774FA07B000BD09
:102B40000050014044380240001402404FF0E021A0
:102B50000428086903D020F004000861704740F0A1
:102B60000400FAE710B5401EB0F1807F01D30120C8
:102B700010BD4FF0E02460610F21601701F0B8FD37
:102B80000020A06107202061002010BD7047704721
:102B900010B5040003D094F8390010B107E001200B
:102BA00010BD002084F83800204600F00DF8022007
:102BB00084F83900211D206802F0DCFF012084F830
:102BC0003900002010BD000008B500680B4988429C
:102BD00012D10B48016841F0020101600068032234
:102BE00000F00200009001211D20FFF7A5FBBDE8C9
:102BF00008401D20FFF794BB08BD00000004004002
:102C0000403802400168CA6842F00102CA600068A8
:102C1000016841F0010101600020704770B51E4C51
:102C20002078010613D41D4D41064FF2FF560FD5F3
:102C300040F0800020700821284600F0F7F960601D
:102C40002868016A314001622868016A016270BD2A
:102C500000214020616020702868026A41F211134F
:102C60001A4207D1026A9B101A4203D1026822F06D
:102C700001020260286841622868016A31400162ED
:102C80002868016A41F4007101622868016841F016
:102C90000101016070BD0000680000209CAC0020B4
:102CA00070B50446006801694FF00005C943890703
:102CB00015D4C168C943890711D4E91E01610120F7
:102CC0002076206880698007204602D0FFF7A6FFA3
:102CD00004E000F098F8204600F072F925762068AC
:102CE0000169C943490717D4C168C943490713D4C7
:102CF0006FF004010161022020762068806910F4E1
:102D0000407F204602D0FFF789FF04E000F07BF807
:102D1000204600F055F9257620680169C943090766
:102D200016D4C168C943090712D46FF008010161C4
:102D3000042020762068C0698007204602D0FFF773
:102D40006DFF04E000F05FF8204600F039F92576C9
:102D500020680169C943C90617D4C168C943C906B7
:102D600013D46FF010010161082020762068C0693B
:102D700010F4407F204602D0FFF750FF04E000F03F
:102D800042F8204600F01CF9257620680169C94305
:102D9000C90708D1C168C943C90704D1891E0161A7
:102DA000204600F02BF920680169C943090609D4BF
:102DB000C168C943090605D46FF08001016120464E
:102DC000FFF7E4FE20680169C943490609D4C168D8
:102DD000C943490605D46FF040010161204600F067
:102DE00047F920680169C94389060BD4C168C94302
:102DF000890607D46FF0200101612046BDE87040CC
:102E0000FFF7C5BE70BD704770B5044690F8380036
:102E10000D4601280DD0012684F83860022084F880
:102E2000390042B1042A18D0082A2AD00C2A4DD1E0
:102E300039E0022070BD206802F008FF2068816937
:102E400041F0080181612068816921F004018161FC
:102E5000206881692A69114311E0206802F022FF8D
:102E60002068816941F4006181612068816921F4F1
:102E700080618161206881692A6941EA022181615A
:102E800024E0206802F040FF2068C16941F0080199
:102E9000C1612068C16921F00401C1612068C16974
:102EA0002A69114311E0206802F05EFF2068C169C1
:102EB00041F40061C1612068C16921F48061C16190
:102EC0002068C1692A6941EA0221C16184F8396038
:102ED000002084F8380070BD10B5040003D094F8C9
:102EE000390010B107E0012010BD002084F838003F
:102EF000204600F00DF8022084F83900211D2068DA
:102F000002F038FE012084F83900002010BD0000D6
:102F100070B52749254E036825481039022201243F
:102F2000032586B0B34217D1036843F04003036022
:102F3000006800F040000590086840F080000860DC
:102F40000868694600F08000059040208DE8350053
:102F500009200490174819E0174EB3421AD10368AC
:102F600043F004030360006800F004000590086863
:102F700040F0080008600868694600F00800059005
:102F80004FF470408DE835000C480492FFF74AF882
:102F900006B070BDB3F1804FFAD1016841F0010174
:102FA0000160006800F001000590F1E700180040A2
:102FB00040380240001C024000080040000C024063
:102FC0007047000010B504460068012202F032FE8E
:102FD00008492068884202D00749884203D1416CE1
:102FE00041F4004141642068016841F00101016041
:102FF000002010BD00000140000401400849884243
:1030000007D10849D1E90223521C43F10003C1E969
:10301000022300680449884201D1FFF7F9B87047DC
:10302000D8AC0020680000200010004090F8383034
:103030000022012B0AD0012380F8383041B1042945
:1030400009D008290AD00C290DD10AE002207047C6
:1030500001684A6B07E001688A6B04E00168CA6B8B
:1030600001E001680A6C002180F8381010467047B2
:103070007047704770B5026804461068D16853699C
:1030800010F00F0F50D003F0010501F49076354396
:103090005DD0C20705D0CA0503D5E26B42F001023C
:1030A000E263420705D5DA0703D0E26B42F0020281
:1030B000E263820705D5DA0703D0E26B42F004022F
:1030C000E263020705D5DA0703D0E26B42F008029B
:1030D000E263E26B002A33D0800604D5880602D56D
:1030E000204602F02DFF20684069E16BC0F380109C
:1030F000090700D428B3204602F014FF2068416974
:1031000049061AD5416921F040014161606BA0B1C7
:103110001B490165606BFEF712FE002810D0606B42
:10312000016DBDE870400847830610D58B060ED5AB
:103130002046BDE8704002F003BF2046FFF799FF2C
:1031400070BD2046FFF795FF0020E06370BD0306C9
:1031500006D50B0604D52046BDE8704003F08CB8B8
:103160004006F3D54806F1D5D168204621F040014C
:10317000D160202184F8391000F0FCF970BD000006
:10318000155F000870B5040004D094F839000025DC
:1031900010B106E0012070BD84F83850204600F0E0
:1031A00023F8242084F839002068C16821F40051F4
:1031B000C160204602F00AFF2068016921F49041B5
:1031C00001612068416921F02A0141612068C168DC
:1031D00041F40051C160E563202084F8390084F88F
:1031E0003A00002070BD00002DE9F04FA6490546C9
:1031F000DFF890821039D0F800C00024A24F0222DC
:1032000001230320DFF884E20E1587B04FF0070A90
:103210004FF0006B4FF48079C44535D1D7F800C02A
:103220004CF4003CC7F800C03F6807F4003705972E
:103230000F6847F008070F60096801F00801059161
:1032400060218DE80E00CDE9030A69467046FEF75D
:10325000E9FE904F8E483860C7E901B4C7E90346DC
:103260007C61C7E906493C6238467C62FEF74EFE47
:1032700008B1FEF729F96F63002211462620BD63CD
:10328000FFF75AF826203BE0DFF80C82C4453CD11A
:10329000D7F800C04CF4802CC7F800C03F6807F492
:1032A000802705970F6847F008070F60096801F04D
:1032B000080105914FF440718DE80E00CDE9030A35
:1032C00069467046FEF7AEFE724F7148603760384F
:1032D0003860C7E901B4C7E903467C61C7E906491C
:1032E0003C6238467C62FEF711FE08B1FEF7ECF84E
:1032F0006F63002205212720BD63FFF71DF82720FB
:10330000FFF70EF807B0BDE8F08FDFF890814FF0BF
:10331000080A4FF0206BC44539D15B4F3F1DD7F8E9
:1033200000C04CF0200CC7F800C03F6807F0200731
:1033300005970F6847F040070F60096801F04001EA
:1033400005914FF484418DE80E00CDE9030A6946EA
:103350005348FEF767FE4F4F5248C0373860C7E901
:1033600001B4C7E903467C61C7E906493C623846B7
:103370007C62FEF7CBFD08B1FEF7A6F86F63002272
:1033800005214720BD63FEF7D7FF4720B8E7DFF8E8
:103390001881DFF818E1C44537D1D7F800C04CF0E8
:1033A000804CC7F800C03F6807F0804705970F685A
:1033B00047F010070F60096801F0100105914FF404
:1033C000C0718DE80E00CDE9030A69467046FEF72C
:1033D00029FE2F48364F30383860C7E901B4C7E9B5
:1033E00003467C61C7E906493C6238467C62FEF7C9
:1033F0008DFD08B1FEF768F86F63002205215220A9
:10340000BD63FEF799FF52207AE7DFF8A880C44534
:103410007FF478AFD7F800C04CF0004CC7F800C07C
:103420003F6807F0004705970F6847F010070F60E7
:1034300009688DE80D0001F01001CDE904A10390A9
:1034400069467046FEF7EEFD194F1148603778382F
:10345000E7E8020B402051C7154847F8144960308F
:10346000BC61FC613C627C62FEF750FD08B1FEF776
:103470002BF82F63002205215320BD63FEF75CFF6C
:1034800053203DE70044004040380240000C024019
:103490008860024054AE0020004800400014014003
:1034A00000180240286402400078004000100240EA
:1034B00074AF0020007C004070472DE9F8430446BB
:1034C00090F839001E4617460D46202850D135B3D6
:1034D0002FB394F8380001284AD0012084F838002E
:1034E0004FF00008C4F83C80212084F83900FEF732
:1034F00089FEA784E78481464FF48057E08C4B46D1
:10350000401EE084A0684FF00002B8424FF08001F6
:103510002046009611D102F0E0FE00BB02E001203F
:10352000BDE8F8832888C0F308012068416020695D
:1035300008B16D1C08E0AD1C06E002F0CEFE70B9CB
:10354000216815F8010B4860E08C0028D6D14B4665
:10355000002240212046009602F0BFFE08B1032061
:10356000DEE7202084F8390084F838800020D7E78F
:103570000220D5E77047FEE72DE9F041BA4DBB4880
:10358000BB4CB7EE000A2DED048B2F789FEDB98B65
:103590009FEDBA9BBB4990F800C00A1D131D002681
:1035A0000CEB4C0C04EB4C14282F1ED2DFE807F078
:1035B0001D14181E22262A1D2E1D1D313337464884
:1035C0004B627B92ABC2DBFDFCFB1D1D1D1D1D1D57
:1035D000FAF9F8F7F6F5F4F30E210170AAA002E06B
:1035E0000F210170B3A002F0D1FE82E2122101701E
:1035F000BBA0F8E713210170C4A0F4E7102101700B
:10360000CDA0F0E711210170D6A0ECE70670E0A094
:10361000E9E7E9A0E7E714210170F1A0E3E7FA493F
:10362000D1E90001FCF7E8FF00EE900A9FEDF71AE0
:1036300080EE810A01F0AAFCF5A0D4E7172100E092
:103640001821017055E2D4ED000A70EE800AC4ED35
:10365000000AD4ED0C0A70EE800AC4ED0C0AD4ED19
:10366000060A70EE800AC4ED060AD4ED120A30EEA6
:10367000800A15E0D4ED000A70EEC00AC4ED000A1D
:10368000D4ED0C0A70EEC00AC4ED0C0AD4ED060AA3
:1036900070EEC00AC4ED060AD4ED120A30EEC00A7C
:1036A00084ED120A25E2D4ED010A70EE800AC4ED21
:1036B000010AD4ED0D0A70EE800AC4ED0D0AD4EDB6
:1036C000070A70EE800AC4ED070AD4ED130A30EE43
:1036D000800A15E0D4ED010A70EEC00AC4ED010ABB
:1036E000D4ED0D0A70EEC00AC4ED0D0AD4ED070A40
:1036F00070EEC00AC4ED070AD4ED130A30EEC00A1A
:1037000084ED130AF5E1D4ED020A70EE800AC4EDEF
:10371000020AD4ED0E0A70EE800AC4ED0E0AD4ED52
:10372000080A70EE800AC4ED080AD4ED140A30EEDF
:10373000800A15E0D4ED020A70EEC00AC4ED020A58
:10374000D4ED0E0A70EEC00AC4ED0E0AD4ED080ADC
:1037500070EEC00AC4ED080AD4ED140A30EEC00AB7
:1037600084ED140AC5E12069FCF760FF53EC182BC7
:10377000FCF7BAFDFCF786FF2061206CFCF756FFD2
:1037800053EC182BFCF7B0FDFCF77CFF2064A06A1B
:10379000FCF74CFF0AE07FE167E1A7E1A3E19EE1CE
:1037A0009AE195E191E137E138E00EE053EC182B16
:1037B000FCF79AFDFCF766FFA062A06DFCF736FFF0
:1037C00053EC182BFCF790FD24E02069FCF72EFF4A
:1037D00053EC182BFCF729FEFCF754FF2061206CFA
:1037E000FCF724FF53EC182BFCF71FFEFCF74AFFF5
:1037F0002064A06AFCF71AFF53EC182BFCF715FEA7
:10380000FCF740FFA062A06DFCF710FF53EC182BF3
:10381000FCF70BFEFCF736FFA0656AE16069FCF778
:1038200005FF53EC192BFCF75FFDFCF72BFF6061E4
:10383000606CFCF7FBFE53EC192BFCF755FDFCF715
:1038400021FF6064E06AFCF7F1FE53EC192BFCF7F2
:103850004BFDFCF717FFE062E06DFCF7E7FE53EC71
:10386000192BFCF741FDFCE04A0B0020A8000020CA
:10387000380400207B14AE47E17A843F9A999999E5
:103880009999B93F340800400D0A2A2A2A2A2A2A7F
:103890002A2A2A2A7374617465203D2057414C4BB3
:1038A0005F41484541442A2A2A2A2A2A2A2A2A2AC2
:1038B0000D0A00000D0A2A2A2A2A2A2A2A2A2A2A36
:1038C0007374617465203D2057414C4B5F42414306
:1038D0004B2A2A2A2A2A2A2A2A2A2A0D0A000000E2
:1038E0000D0A2A2A2A2A2A2A2A2A2A2A7374617461
:1038F00065203D2057414C4B5F4C4546542A2A2AAF
:103900002A2A2A2A2A2A2A0D0A0000000D0A2A2A0F
:103910002A2A2A2A2A2A2A2A7374617465203D20B9
:1039200057414C4B5F52494748542A2A2A2A2A2A8F
:103930002A2A2A2A0D0A00000D0A2A2A2A2A2A2AB5
:103940002A2A2A2A7374617465203D20524F5441FB
:10395000545F4C4546542A2A2A2A2A2A2A2A2A2AE5
:103960000D0A00000D0A2A2A2A2A2A2A2A2A2A2A85
:103970007374617465203D20524F5441545F524925
:103980004748542A2A2A2A2A2A2A2A2A2A0D0A0099
:103990000D0A2A2A2A2A2A2A2A2A2A2A73746174B0
:1039A00065203D2054524F542A2A2A2A2A2A2A2A9C
:1039B0002A2A0D0A000000000D0A2A2A2A2A2A2A89
:1039C0002A2A2A2A7374617465203D205445535471
:1039D0002A2A2A2A2A2A2A2A2A2A0D0A000000002C
:1039E0000D0A2A2A2A2A2A2A2A2A2A2A7374617460
:1039F00065203D2053544F502A2A2A2A2A2A2A2A4F
:103A00002A2A0D0A000000007000002000007A44FD
:103A10004A554D50000000006069FCF707FE53EC6A
:103A2000192BFCF702FDFCF72DFE6061606CFCF7C2
:103A3000FDFD53EC192BFCF7F8FCFCF723FE60644A
:103A4000E06AFCF7F3FD53EC192BFCF7EEFCFCF7F6
:103A500019FEE062E06DFCF7E9FD53EC192BFCF771
:103A6000E4FCFCF70FFEE06543E0D4ED030A70EEE2
:103A7000800AC4ED030AD4ED0F0A70EE800AC4ED8B
:103A80000F0AD4ED090A70EE800AC4ED090AD4EDDC
:103A9000150A30EE800A15E0D4ED030A70EEC00A74
:103AA000C4ED030AD4ED0F0A70EEC00AC4ED0F0A8C
:103AB000D4ED090A70EEC00AC4ED090AD4ED150A66
:103AC00030EEC00A84ED150A13E00868143001E0F6
:103AD0000868143808600CE01068143001E01068C1
:103AE0001438106005E01868143001E018681438C4
:103AF00018602E70C820BDEC048BBDE8F04106F0C4
:103B00004BBC0000DFF85CA300222DED028B0421EA
:103B10005046FEF772FBDFF850B34FF480599FED2B
:103B2000D38AD34DD34ED44CD44F00BF4FF4FA7840
:103B3000404606F031FC49465846FEF759FB58B15D
:103B40000421CF48FEF754FB60B10821CC48FEF7B2
:103B50004FFB0028EAD1CAE01720207002E040465F
:103B600006F01AFC01215046FEF742FB0028F6D170
:103B7000012204215046FEF740FB4FF4487006F046
:103B80000BFC4FF0140984F80090404606F004FC4A
:103B9000002204215046FEF730FBBA48DFF8E8B2B5
:103BA00087ED008A02210160DBE90001FCF724FDBA
:103BB000B649086000202070022000F0ADFD01220F
:103BC00004215046FEF719FB84F80090C82006F047
:103BD000E3FBAF48007870B1BAEE040A85ED000A45
:103BE00087ED000ADBE90001FCF706FDA749086044
:103BF0000820207018E0B2EE040A85ED000A87ED77
:103C0000000A0720207002E0322005F0FBFD96ED4F
:103C1000000AD5ED000AB4EEE00AF1EE10FAF3D98D
:103C20000BE0322005F0EEFDD6ED000A95ED000A1E
:103C3000F4EEC00AF1EE10FAF3DA00220421504645
:103C4000FEF7DBFA06202070022000F065FD40F24E
:103C5000145006F0A1FB4FF0150B84F800B040465D
:103C600006F09AFB01F0EAFB002020704FF4487048
:103C700006F092FB84F800B0FA2006F08DFB84F881
:103C80000090404606F088FB8148007840B1BAEECB
:103C90000C0A85ED000A87ED000A1120207018E05B
:103CA000B2EE0C0A85ED000A87ED000A10202070A4
:103CB00002E0322005F0A6FD96ED000AD5ED000ADF
:103CC000B4EEE00AF1EE10FAF3D90BE0322005F081
:103CD00099FD96ED000AD5ED000AB4EEE00AF1EE8A
:103CE00010FAF3DA84F80090404606F055FB002005
:103CF0002070022000F010FD012204215046FEF742
:103D00007CFA63484FF0150984F80090007840B1C0
:103D1000B7EE000A85ED000A87ED000A102020703A
:103D200018E0BFEE000A85ED000A87ED000A1120B9
:103D3000207002E0142005F065FDD6ED000A95ED37
:103D4000000AF4EEC00AF1EE10FAF3DA0BE01420E8
:103D500005F058FDD6ED000A95ED000AF4EEC00A14
:103D6000F1EE10FAF3D94D4684F8009000220421B8
:103D70003C48FEF742FA0620207040F6AC5006F0B0
:103D80000BFB25703F4D03202860FDF74DF9DFF850
:103D9000F8B087ED008AB946DBE90001FCF72CFC9E
:103DA0003A4908600120207040F2DC5006F0F4FA35
:103DB0004FF0140A84F800A0314F02E0404606F0AC
:103DC000EBFA01213846FEF713FA0028F6D102215A
:103DD0003846FEF70DFA0028F0D10420286096ED51
:103DE000000A89ED000ADBE90001FCF705FC274920
:103DF000B2EE0E0A0860274901200870264880EDBF
:103E0000000A0D20207041F2883006F0C5FA042027
:103E100000F082FC134D012204212846FEF7EDF943
:103E200040F6AC5006F0B8FA002204212846FEF70E
:103E3000E4F91A4984F800A04FF416700860174995
:103E40004FF47A7008390860C82006F0A5FA1349C3
:103E500040F67410091F08604446204606F09CFA9C
:103E6000FBE7000000200240001C024000000000B0
:103E7000F80A002058B20020A8000020300B0020D3
:103E800000000240200B002070000020CC00002029
:103E900080000020A9000020B00000203C08004065
:103EA0000F4810B50D4901600521416000214FF414
:103EB00000328160C0E903125201C0E905210122EC
:103EC000C0E9072141628162C162FDF7DDFC002883
:103ED00003D0BDE81040FDF7F7BA10BD0064004004
:103EE000ECB00020104810B50E490160052141607A
:103EF00000214FF04072C0E902124FF4003202611B
:103F00005201C0E905210122C0E907214162816215
:103F1000C162FDF7B9FC002803D0BDE81040FDF7F1
:103F2000D3BA10BD006800402CB10020194808B574
:103F3000016841F400110160016801F40011009171
:103F4000016841F4800101600068002200F48000F3
:103F5000009005210B20FEF7EFF90B20FEF7E0F9AA
:103F6000002205210C20FEF7E7F90C20FEF7D8F916
:103F7000002205210E20FEF7DFF90E20FEF7D0F912
:103F8000002205213920FEF7D7F9BDE80840392085
:103F9000FEF7C6B9303802402DE9F047614886B0D7
:103FA0000024016841F010010160016801F0100176
:103FB0000591016841F002010160016801F0020110
:103FC0000591016841F040010160016801F0400184
:103FD0000591016841F008010160016801F00801E4
:103FE0000591016841F001010160016801F00101E2
:103FF0000591016841F480710160016801F48071EC
:104000000591016841F080010160016801F08001C3
:104010000591016841F0200101600068DFF8088126
:1040200000F020000590002288214046FEF7E5F8C8
:10403000012204214046FEF7E0F8DFF8F0904FF44B
:104040000056002231464846FEF7D7F8DFF8E0A0D8
:1040500044F24007002239465046FEF7CEF88C2045
:1040600000900125CDE90154694640460394FDF7CF
:10407000D9FF022000902F48CDE90105694640464E
:10408000FDF7D0FF0096CDE90154694648460394F8
:10409000FDF7C8FF4FF49060CDE90004694626485B
:1040A0000294FDF7BFFF0097CDE9015469465046E1
:1040B0000394FDF7B7FF0D2000902048CDE90104DF
:1040C000DFF87C8069464046FDF7ACFF3C20CDE937
:1040D00000051C4E694602943046FDF7A3FF2120DF
:1040E0008DE83100184F69463846FDF79BFF4FF4C5
:1040F000E0508DE8310069463046FDF793FF0F2010
:104100008DE8310069464046FDF78CFF0420CDE97B
:104110000005694602943846FDF784FF06B0BDE805
:10412000F0870000303802400010024000180240C2
:104130000014024000002110000C02400000111089
:1041400000000240001C02400020024010B5002286
:1041500005212520FEF7F0F82520FEF7E1F80022E2
:1041600005212620FEF7E8F82620FEF7D9F80022E0
:1041700005212720FEF7E0F82720FEF7D1F80022DE
:1041800005214720FEF7D8F84720FEF7C9F800229E
:1041900005215220FEF7D0F85220FEF7C1F8002288
:1041A00005210C20FEF7C8F80C20FEF7B9F8002214
:1041B00005213920FEF7C0F8BDE810403920FEF790
:1041C000AFB80000104810B50E4901604FF482717D
:1041D000416000218160C1604FF400720161C0E95B
:1041E00005123022C0E90721416281620A21C162C1
:1041F000FEF746FC002803D0BDE81040FDF764B987
:1042000010BD00000050014094B000200C4810B5D3
:104210000A4901604FF4E1314160002181600C22C4
:10422000C160C0E904128161C161FEF7ABFF0028E3
:1042300003D0BDE81040FDF747B910BD007800403D
:10424000D4AD00200C4810B50A4901604FF4E131AB
:104250004160002181600C22C160C0E904128161CB
:10426000C161FEF78FFF002803D0BDE81040FDF7C5
:104270002BB910BD007C004014AE00200C4810B5D6
:104280000A4901604FF4E1314160002181600C2254
:10429000C160C0E904128161C161FEF773FF0028AB
:1042A00003D0BDE81040FDF70FB910BD0044004039
:1042B00014AD00200C4810B50A4901604FF4E131FB
:1042C0004160002181600C22C160C0E9041281615B
:1042D000C161FEF757FF002803D0BDE81040FDF78D
:1042E000F3B810BD0048004054AD00200C4810B594
:1042F0000A4901604FF4E1314160002181600C22E4
:10430000C160C0E904128161C161FEF73BFF002872
:1043100003D0BDE81040FDF7D7B810BD0014014030
:1043200094AD0020FEE700002DE9F05F2DED088B35
:104330009FEDD9AAD94880ED00AA9FEDD90AD948A6
:1043400080ED000AB7EE000AFCF72EFDFCF743FEF5
:10435000D5491520D54ED64D0870002404EBC40075
:1043600000EB400706EB8700F0EE4A0AB3EE080ABE
:1043700005F0E0FB05EB8700F0EE4A0AB2EE0F0A0B
:1043800005F0D8FB641C082CE8DB9FEDCA8ADFF837
:1043900028934F4689ED058A9FEDC8BB9FEDC99BC9
:1043A000CA4C2068FCF742F953EC192BFBF79CFF31
:1043B000FCF768F920606068FCF738F953EC192BBA
:1043C000FBF792FFFCF75EF96060A068FCF72EF93E
:1043D00053EC192BFCF729F8FCF754F9A060E068BE
:1043E000FCF724F953EC192BFCF71FF8FCF74AF9FA
:1043F000E06097ED030A78EE008A18EE900AFCF769
:1044000015F953EC1B2BFCF716F841EC190B20693E
:10441000FCF70CF953EC192BFBF766FFFCF732F9AC
:10442000206118EE900AFCF701F953EC1B2BFCF706
:1044300002F841EC190B6069FCF7F8F853EC192B02
:10444000FBF752FFFCF71EF9606118EE900AFCF7CB
:10445000EDF853EC1B2BFBF7EEFF41EC190BA069B9
:10446000FCF7E4F853EC192BFBF7DFFFFCF70AF934
:10447000A06118EE900AFCF7D9F853EC1B2BFBF760
:10448000DAFF41EC180BE069FCF7D0F853EC182B7D
:10449000FBF7CBFFFCF7F6F8DFF834B2E0614FF042
:1044A000010A8BF800A04FF4167005F075FF002785
:1044B0004FEA060807EBC70000EB400608EB860052
:1044C000F0EE4A0AB3EE060A05F034FB05EB86006F
:1044D000F0EE4A0AB2EE0F0A05F02CFB7F1C082F03
:1044E000E8DB99ED010A4D46B1EE409A89ED069A56
:1044F00099ED020A19EE100AF1EE409AC9ED079AF9
:10450000FCF794F8B0EE4B8AF0EE6B8A53EC182B64
:10451000FBF791FF41EC1B0B2068FCF787F853EC8D
:104520001B2BFBF782FFFCF7ADF8206019EE100A99
:10453000FCF77CF853EC182BFBF77DFF41EC1B0BD1
:104540006068FCF773F853EC1B2BFBF7CDFEFCF710
:1045500099F8606019EE100AFCF768F853EC182B14
:10456000FBF769FF41EC1B0BA068FCF75FF853EC0D
:104570001B2BFBF75AFFFCF785F8A06019EE100A19
:10458000FCF754F853EC182BFBF755FF41EC1B0BD1
:10459000E068FCF74BF853EC1B2BFBF7A5FEFCF790
:1045A00071F8E06019EE900AFCF740F853EC182B14
:1045B000FBF741FF41EC1B0B2069FCF737F853EC8C
:1045C0001B2BFBF732FFFCF75DF8206119EE900A18
:1045D000FCF72CF853EC182BFBF72DFF41EC1B0BD1
:1045E0006069FCF723F853EC1B2BFBF77DFEFCF70F
:1045F00049F8606195ED000A39EEC09A19EE100A8B
:10460000FCF714F853EC182BFBF715FF41EC1B0BD0
:10461000A069FCF70BF853EC1B2BFBF706FFFCF72C
:1046200031F8A06119EE100AFCF700F853EC182BD2
:10463000FBF701FF41EC180BE069FBF7F7FF53ECC8
:10464000182BFBF751FEFCF71DF8E0618BF800A07A
:104650004FF4C87005F0A0FE4FF4B0711D48FBF791
:1046600038FE1D49002000BF01EB800282ED00AA48
:1046700004EB8002401C82ED00AA0828F4DB6420D1
:1046800005F08AFE08491520087014A0BDEC088BBF
:10469000BDE8F05F01F07ABE00000000BC00002021
:1046A00067908A41C0000020A8000020F4B50020D7
:1046B00054B900200000AAC2FC0A00203201BF4603
:1046C000D24E7B40CBD6FAA25722E2C08CB100205A
:1046D000A4000020A4B200206CB10020454E44206C
:1046E000446F6E652E00000004F01CFDFCE770476F
:1046F0000907090E002806DA00F00F0000F1E0209B
:1047000080F8141D704700F1E02080F80014704715
:1047100004F0DCFDFCE7000070B5244D0446642085
:1047200005F03AFE00EE104AD5ED020AB8EEC00AD6
:10473000F4EE400AF1EE10FAF1D1642005F02CFEFF
:1047400000EE104AD5ED020AB8EEC00AF4EE400AB7
:10475000F1EE10FAE3D1642005F01EFE00EE104ADF
:10476000D5ED020AB8EEC00AF4EE400AF1EE10FAF6
:10477000D5D1642005F010FE00EE104AD5ED020AF6
:10478000B8EEC00AF4EE400AF1EE10FAC7D1642088
:1047900005F002FE00EE104AD5ED020AB8EEC00A9E
:1047A000F4EE400AF1EE10FAB9D170BD98B20020D3
:1047B00030B4034C4466034C846630BC05F0B0B999
:1047C000219B00082F9B0008DFF830828C4CA8F555
:1047D00090752DED028B96B008F51C79A8F1E80ACA
:1047E00005F5807B9FED878A04F1100014902E78E8
:1047F000824806EB460708EBC70118221838FBF77A
:104800004FFD09EB471160227D48FBF749FD0AEB9C
:104810000610192E90E80E00C068C5E90C30C5E9F5
:104820000A121ED2DFE806F02323BEBE2323239AFA
:10483000A8BEBEBED4232F43687423230D1E888BCD
:104840008E0085ED058AB3EE080A85ED060AB7EEFF
:10485000000AFCF7A9FA05F1280090EC040AFCF71D
:10486000ABFB77E04FF4FA7005F096FD72E0502252
:1048700068461499FBF714FDF7EE003AB7EE003ADC
:10488000F7EE002A83E05846B0EE482AD0E9061237
:10489000F7EE005AB7EE005AF7EE004AB7EE004ABC
:1048A000F6EE003AB6EE003AF0EE422A12E0584632
:1048B000FFEE005AD0E90612BFEE005AFFEE004AA2
:1048C000BFEE004AF5EE003AB6EE083AF6EE002AE0
:1048D000B0EE482ACDE900120C3001EE103A90E813
:1048E0000E00D5ED0D1AD5ED0B0A95ED0A0ADBF891
:1048F000080004F0A1F92DE05846F7EE005AD0E97F
:104900000612BFEE005AF7EE004ABFEE004A0AE078
:104910005846FFEE005AD0E90612B7EE005AFFEEF5
:10492000004AB7EE004AB0EE482AB6EE003AF0EE82
:10493000423AF6EE002ACDE7FCF7C8FD0AE000F0A7
:1049400031FB07E0FFF7F0FC04E000BF94E80F0044
:1049500004F0F8F90A2005F01FFD48E750226846E8
:104960001499FBF79DFCF7EE003ABFEE003AF7EE24
:10497000002ABFEE002A0CE0502268461499FBF78B
:104980008FFCFFEE003AB7EE003AFFEE002AB7EEDA
:10499000002AB0EE480AB6EE001AF0EE401AF6EE23
:1049A000000AD3E7502268461499FBF779FCF7EE2A
:1049B000003AB7EE003AF7EE002AB7EE002AF6EE1C
:1049C000081AB5EE001AF6EE000AB0EE480ABDE786
:1049D000502268461499FBF763FCB0EE480AFFEEDC
:1049E000003ABFEE003AFFEE002ABFEE002AF6EED4
:1049F000001AB6EE001AF0EE400AA7E7C801002040
:104A0000CCB10020000000002DED028B4FF4FA75B0
:104A10002E4C02E0284605F0BFFC21780029F9D091
:104A2000FCF79AF82A4F2B4D2B4CB7EE008A002644
:104A3000397811292ED2DFE801F02D3D433B2D09B5
:104A40001B0B0D412D3F332D312D2B002E7021E0FE
:104A50000F201EE094ED000A204930EE080A10EE07
:104A6000100A84ED000A884214DD9FED1D0A0CE057
:104A700094ED000A1B4930EE480A10EE100A84ED4E
:104A8000000A884206D39FED180A84ED000A01E06F
:104A900010202870C82005F07FFCC9E71120F8E736
:104AA0001248066012480670124806601420F0E7AB
:104AB0000620EEE70C20ECE71720EAE71820E8E7ED
:104AC0009FED0D0A0D2084ED000AE2E7490B00205E
:104AD000500B0020A8000020300B002066E6334376
:104AE00066E633C366E633C366E63343200B002035
:104AF0001C0B0020440B0020000000000148FDF7C3
:104B000055BF000094B0002010B5806B0021C18714
:104B1000C186FDF749FF10BD70B506461C4A1B480B
:104B2000002482E8530010461461FEF7D5F91848B6
:104B300060253C3076080560C0E90164014600222A
:104B40003C38FEF761F900211148FEF73BFA1048A6
:104B50000422583001460560C0E901645838FEF768
:104B600053F904210A48FEF72DFA09480822743047
:104B700001460560C0E901647438FEF745F9BDE8F7
:104B8000704008210248FEF71DBA000000080040EE
:104B900050BE002070B58E492DED068B4A789FEDF2
:104BA0008D8BD1ED07AA91ED08AA8C4CF1EE6A9A93
:104BB000B1EE4A9A002A7AD08D6830B101282AD005
:104BC00002284ED0032874D0FCE02846FBF72EFDC7
:104BD00041EC1A0B19EE900AFBF728FD53EC182B49
:104BE000FBF729FC53EC1A2BFBF77EFBFBF74AFD86
:104BF00060602846FBF71AFD41EC1A0B19EE100A0B
:104C0000FBF714FD53EC182BFBF715FC53EC1A2B98
:104C1000FBF70BFC8EE02846FBF708FD41EC190B77
:104C20001AEE900AFBF702FD53EC182BFBF703FC7E
:104C300053EC192BFBF7F9FBFBF724FDA06028468A
:104C4000FBF7F4FC41EC190B1AEE100AFBF7EEFC33
:104C500053EC182BFBF7EFFB53EC192BFBF744FB42
:104C60007FE02846FBF7E2FC41EC1A0B19EE900AB4
:104C7000FBF7DCFC53EC182BFBF7DDFB53EC1A2B9A
:104C8000FBF732FBFBF7FEFC60612846FBF7CEFC2E
:104C900041EC1A0B19EE100AFBF7C8FC53EC182B69
:104CA000FBF7C9FB53EC1A2BFBF7BFFB70E026E0C8
:104CB000FFE72846FBF7BAFC41EC190B1AEE900A05
:104CC000FBF7B4FC53EC182BFBF7B5FB53EC192B9B
:104CD000FBF7ABFBFBF7D6FCA0612846FBF7A6FC75
:104CE00041EC190B1AEE100AFBF7A0FC53EC182B41
:104CF000FBF7A1FB53EC192BFBF7F6FA5FE030B1A1
:104D000001281BD0022830D0032845D05AE019EEE4
:104D1000900AFBF78BFC53EC182BFBF78CFBFBF793
:104D2000B1FC606019EE100AFBF780FC53EC182B05
:104D3000FBF781FBFBF7A6FC206043E01AEE900A2C
:104D4000FBF774FC53EC182BFBF775FBFBF79AFC95
:104D5000A0601AEE100AFBF769FC53EC182BFBF766
:104D60006AFBFBF78FFCE0602CE019EE900AFBF782
:104D70005DFC53EC182BFBF75EFBFBF783FC6061DB
:104D800019EE100AFBF752FC53EC182BFBF753FB00
:104D9000FBF778FC206115E01AEE900AFBF746FC61
:104DA00053EC182BFBF747FBFBF76CFCA0611AEEEA
:104DB000100AFBF73BFC53EC182BFBF73CFBFBF713
:104DC00061FCE061064901200870BDEC068B70BDF6
:104DD000A80000203201BF46D24E7B408CB100209B
:104DE000A40000200FB42DED020B70B5614C2DED29
:104DF0000A8B94ED041ADDED151A139E30EE412A4C
:104E000094ED031A109D9DED12CA01EE821A9DEDDC
:104E1000148ADDED118A84ED031A84ED040A31EE63
:104E2000200A10EE100AFBF701FC41EC100B9FED7D
:104E3000529BB0EE491AF0EE691A01F091FE51EC66
:104E4000100BFBF71FFC0AEE100A9FED4DBBDFEDC8
:104E50004EAAB4EEC8AAF1EE10FA36D818EE900AAF
:104E6000FBF7E4FB53EC1B2BFBF7E5FA8AEE080A91
:104E700041EC190B20EE280A10EE100AFBF7D6FBC6
:104E800053EC192BFBF7D1FAFBF7FCFB60612846CA
:104E9000FBF7CCFB6AEE2A0A41EC190B80EE880A7C
:104EA00010EE100AFBF7C2FB41EC100B02F004FD00
:104EB000B0EE408AB1EE4C0AF0EE608A10EE100AB5
:104EC000FBF7B4FB53EC182B46E018EE100AFBF787
:104ED000ADFB53EC192BFBF7ABFA3AEE480A41EC69
:104EE000190B10EE100AFBF7A1FB53EC192BFBF783
:104EF00014FBFBF7C7FB08EE100A18EE900AFBF74D
:104F000095FB53EC1B2BFBF796FA28EE680A41EC55
:104F1000190B10EE100AFBF789FB53EC192BFBF76A
:104F2000E3F9FBF7AFFB60612846FBF77FFB28EE58
:104F30002A0A41EC190B10EE100AFBF777FB41EC43
:104F4000100B02F0B9FCB0EE408AF0EE608A3046F9
:104F5000FBF76CFB53EC182BFBF76DFA53EC192B9A
:104F6000FBF7C2F9FBF78EFBA061BDEC0A8B70BCAE
:104F70005DF81CFBA8000020000000000000F03FCE
:104F8000000000000000E03FDB0F494003480449F7
:104F900080ED040A1620087070470000FC0A00200B
:104FA000A80000202DE9F05FFF4915202DED088BAA
:104FB0000025FE4CFE4E0870DFEDFE9A05EBC500A5
:104FC00000EB400704EB8700F0EE690AB3EE060A37
:104FD00004F0B0FD06EB8700F0EE690AB2EE0F0AAE
:104FE00004F0A8FD6D1C082DE8DBDFF8CC83B3EEE0
:104FF000090A88ED060A88ED070A9FEDF0AB9FEDE0
:10500000F18BDFF8C8934D46D9F80000FBF70EFB93
:1050100053EC182BFBF768F9FBF734FB2860686842
:10502000FBF704FB53EC182BFBF75EF9FBF72AFBAD
:105030006860A868FBF7FAFA53EC182BFBF7F5F950
:10504000FBF720FBA860E868FBF7F0FA53EC182B9D
:10505000FBF7EBF9FBF716FBE8602869FBF7E6FACC
:1050600053EC182BFBF740F9FBF70CFB2861686940
:10507000FBF7DCFA53EC182BFBF736F9FBF702FBD6
:105080006861A869FBF7D2FA53EC182BFBF7CDF94E
:10509000FBF7F8FAA861E869FBF7C8FA53EC182B9C
:1050A000FBF7C3F9FBF7EEFADFF824B3E8614FF042
:1050B000010A8BF800A04FF4487005F06DF9002547
:1050C000F0EE698A05EBC50000EB400704EB8700B2
:1050D000F0EE680AB3EE060A04F02CFD06EB87003A
:1050E000F0EE680AB2EE0F0A04F024FD6D1C082DE4
:1050F000E8DBD8F80470C8F8187098ED028A3846D2
:1051000088ED078AFBF792FAB0EE4A9AF0EE6A9AB7
:1051100053EC192BFBF78FF941EC1A0B4D46D9F8DC
:105120000000FBF783FA53EC1A2BFBF77EF9FBF731
:10513000A9FA28603846FBF779FA53EC192BFBF7EC
:105140007AF941EC1A0B6868FBF770FA53EC1A2BEA
:10515000FBF7CAF8FBF796FA68603846FBF766FA81
:1051600053EC192BFBF767F941EC1A0BA868FBF716
:105170005DFA53EC1A2BFBF758F9FBF783FAA8609A
:105180003846FBF753FA53EC192BFBF754F941EC73
:105190001A0BE868FBF74AFA53EC1A2BFBF7A4F852
:1051A000FBF770FAE86018EE100AFBF73FFA53ECD1
:1051B000192BFBF740F941EC1A0B2869FBF736FA7B
:1051C00053EC1A2BFBF731F9FBF75CFA286118EE68
:1051D000100AFBF72BFA53EC192BFBF72CF941ECD7
:1051E0001A0B6869FBF722FA53EC1A2BFBF77CF8D1
:1051F000FBF748FA686198ED000A38EE408A18EE2D
:10520000100AFBF713FA53EC192BFBF714F941ECD6
:105210001A0BA869FBF70AFA53EC1A2BFBF705F9EE
:10522000FBF730FAA86118EE100AFBF7FFF953EC10
:10523000192BFBF700F941EC1A0BE869FBF7F6F9BB
:1052400053EC1A2BFBF750F8FBF71CFAE8615D46AC
:105250008BF800A04FF4487005F09EF80027A34695
:1052600007EBC700B0EE68AA00EB40040BEB84002C
:10527000F0EE4A0AB3EE090A04F05CFC06EB840087
:10528000F0EE4A0AB2EE0F0A04F054FC7F1C082F1D
:10529000E6DBDFED50AA4646C8ED05AA9FED4E8B32
:1052A0004C46D9F80000FBF7C1F953EC182BFBF77B
:1052B0001BF8FBF7E7F920606068FBF7B7F953ECE0
:1052C000182BFBF711F8FBF7DDF96060A068FBF71E
:1052D000ADF953EC182BFBF7A8F8FBF7D3F9A06056
:1052E000E068FBF7A3F953EC182BFBF79EF8FBF7EC
:1052F000C9F9E06096ED030A3AEE808A18EE100ACA
:10530000FBF794F953EC192BFBF795F841EC1B0BC9
:105310002069FBF78BF953EC1B2BFAF7E5FFFBF742
:10532000B1F9206118EE100AFBF780F953EC192B44
:10533000FBF781F841EC1B0B6069FBF777F953EC45
:105340001B2BFAF7D1FFFBF79DF9606118EE100AED
:10535000FBF76CF953EC192BFBF76DF841EC1B0BC9
:10536000A069FBF763F953EC1B2BFBF75EF8FBF727
:1053700089F9A06118EE100AFBF758F953EC192BC4
:10538000FBF759F841EC180BE069FBF74FF953ECC8
:10539000182BFBF74AF8FBF775F9E06185F800A0D8
:1053A0004FF47A701CE00000A8000020F4B5002043
:1053B00054B9002000000000FC0A00203201BF4662
:1053C000D24E7B40EF3845479455C5408CB1002004
:1053D000A4000020000070421F115322E599D9401B
:1053E00004F0DAFF4FF4B0710E48FAF772FF0E497D
:1053F000002000BF01EB800282ED00AA04EB8002D6
:10540000401C82ED00AA0828F4DB642004F0C4FFED
:1054100006491520087006A0BDEC088BBDE8F05FBA
:1054200000F0B4BFA4B200206CB10020A80000209E
:10543000537461727420446F6E652E002DE9F05F25
:1054400000202DED048B00F0D7F8962004F0A4FF87
:10545000012000F0D1F8962004F09EFF5A4C152749
:105460009620277004F098FF9FED589BB0EE490AF4
:10547000F0EE690A02F020FA9FED568B51EC100B0A
:1054800053EC182BFAF7D7FFFBF7FCF8DFF84C9139
:10549000B0EE490AF0EE690AC9F8000001F0FCFA22
:1054A00053EC182B51EC100BFAF7C5FFFBF7EAF899
:1054B000DFF82CA1B7EE000ACAF80000FBF774FC75
:1054C0000020FFF767FB0120FFF764FB642004F076
:1054D00063FF444D002604202E706E7020704FF440
:1054E000967004F059FF4FF0010885F8008085F8A8
:1054F000018040F6B83004F04FFF0620207040F2E3
:10550000DC5004F049FF2770022000F075F84FF4DA
:10551000C87B584604F040FF032000F06DF8584661
:1055200004F03AFF27704FF4FA7004F035FF9FED56
:105530002E9BB0EE490AF0EE690A02F0BDF99FED2C
:105540002C8B51EC100B53EC182BFAF774FFFBF774
:1055500099F8B0EE490AF0EE690AC9F8000001F0C6
:105560009BFA53EC182B51EC100BFAF764FFFBF786
:1055700089F8B7EE000ACAF80000FBF715FC022014
:10558000FFF708FB0320FFF705FB642004F004FF8E
:10559000AE70EE70052020704FF47A7004F0FCFEBF
:1055A00085F8028085F803804FF4FA6004F0F4FE79
:1055B0002770FA2004F0F0FE2670FA20BDEC048B70
:1055C000BDE8F05F04F0E8BEA80000200000006025
:1055D0001857E63F0000000000003240BC000020E9
:1055E000C0000020AA000020000000C0BB46DF3F32
:1055F00000000000000033402DE9F04704002DEDCD
:105600000A8BB3EE098AB3EE0C9A4FF41679DFEDEC
:10561000DD8ADD4EDD4D4FF4967806D0022C04D0A5
:10562000012C36D0032C15D01CE0C6ED008A85ED88
:10563000009AB7EE000AFBF7B7FBFBF7CCFC484635
:1056400004F0AAFEC4B3012C26D0022C37D0032CC0
:1056500003D007E0C82004F09FFEB3EE000A002745
:1056600085ED000AC6ED008AB7EE000AFBF79CFB49
:105670003846FFF78FFA404604F08EFE9FEDC49B3C
:105680009FEDC5BB9FEDC6AB9FEDC78B032C1AD01A
:10569000C6E0C82004F080FEC6ED008A85ED009AC1
:1056A000B7EE000AFBF780FB0320FFF773FA4046D2
:1056B00004F072FE022703E0FFE7032700E0012762
:1056C00085ED008ACEE79FEDBACBB0EE4C0AF0EE46
:1056D0006C0A02F0F1F89FEDB81B51EC100B53EC83
:1056E000112BFAF7A8FEFAF7CDFFB0EE4C0AF0EE58
:1056F0006C0A306001F0D0F99FEDB11B51EC100B3A
:1057000053EC112BFAF797FEFAF7BCFFB7EE000A3D
:105710002860FBF749FB0120FFF73CFA9FEDAACB7D
:10572000B0EE4C0AF0EE6C0A02F0C6F89FEDA81B32
:1057300051EC100B53EC112BFAF77DFEFAF7A2FF98
:10574000B0EE4C0AF0EE6C0A306001F0A5F99FED66
:10575000A21B51EC100B53EC112BFAF76CFEFAF76D
:1057600091FFB7EE000A2860FBF71EFB0020FFF751
:1057700011FA9FED9B0B02F09FF853EC192B51ECA3
:10578000100BFAF758FEFAF77DFFB0EE4B0AF0EE79
:105790006B0A306001F080F953EC192B51EC100BBF
:1057A000FAF749FE9FED901B53EC112BFAF73DFEE3
:1057B000FAF768FFB7EE000A2860FBF7F5FA022057
:1057C000FFF7E8F94FF4487004F0E6FDB0EE4A0A3E
:1057D000F0EE6A0A02F070F89FED851B51EC100B99
:1057E00053EC112BFAF727FEFAF74CFFB0EE4A0AFA
:1057F000F0EE6A0A306001F04FF953EC182B51ECCF
:10580000100BFAF718FEFAF73DFFB7EE000A286012
:10581000FBF7CAFA2046FFF7BDF9484604F0BCFD85
:105820009FED75CBB0EE4C0AF0EE6C0A02F044F836
:1058300053EC182B51EC100BFAF7FDFDFAF722FF91
:10584000B0EE4C0AF0EE6C0A306001F025F953EC32
:10585000182B51EC100BFAF7EEFDFAF713FFB7EE29
:10586000000A2860FBF7A0FA2046FFF793F94FF4EF
:10587000C877384604F090FDB0EE4A0AF0EE6A0AA6
:1058800002F01AF89FED5E8B51EC100B53EC182BC5
:10589000FAF7D1FDFAF7F6FEB0EE4A0AF0EE6A0A20
:1058A000306001F0F9F853EC182B51EC100BFAF7BB
:1058B000C2FDFAF7E7FEB7EE000A2860FBF774FABC
:1058C0002046FFF767F9384604F066FD34B1012C35
:1058D00004D0022C0DD0032C23D044E09FED4A9B32
:1058E000B0EE490AF0EE690A01F0E6FF9FED488B41
:1058F00021E0B0EE4B0AF0EE6B0A01F0DDFF53EC55
:10590000192B51EC100BFAF796FDFAF7BBFEB0EE2F
:105910004B0AF0EE6B0A306001F0BEF853EC192B25
:105920001AE09FED3D9BB0EE490AF0EE690A01F0E6
:10593000C3FF9FED3B8B51EC100B53EC182BFAF788
:105940007AFDFAF79FFEB0EE490AF0EE690A306080
:1059500001F0A2F853EC182B51EC100BFAF76BFD89
:10596000FAF790FE2860B7EE000AFBF71DFA204612
:10597000FFF710F9BDEC0A8B3846BDE8F04704F09C
:105980000BBD000000000000BC000020C000002093
:105990000000000000003640000000601857E63F9D
:1059A000000000601857F63F00000000000024408F
:1059B0000000004052C1D03F00000000000035C090
:1059C0000000000000003540000000203BFDD23FF9
:1059D00000000000000032C0000000000000324063
:1059E000000000601857C63F000000000000104093
:1059F00000000000000024C00000004052C1F03F41
:105A00000000000000003A40000000203BFDE23FA3
:105A10000000000000003D4000000060DEECEB3FB5
:105A2000000000000000344003F0F3BE30B526480B
:105A300093B00025016841F080510160006800F0DA
:105A4000805011902148016841F440410160006894
:105A5000022400F440401190012000900190800544
:105A6000CDE9064006200890B420CDE909040420C1
:105A70000B906846FCF726FE00B1FEE7FCF78EFCB3
:105A800000B1FEE70CA90F2081E831004FF4A050CF
:105A90000F904FF48050109005210CA8FCF7C4FC27
:105AA00000B1FEE7FCF79EFD4FF47A71B0FBF1F018
:105AB000FDF758F80420FDF749F800220F21501E89
:105AC000FCF73AFC13B030BD403802400070004093
:105AD0001048016841F4700101600F48016841F00D
