:020000040800F2
:1000000050C200207D020008B53400086F2A0008A5
:10001000AD3400086D0800080D3E00080000000027
:10002000000000000000000000000000C101000806
:10003000150B00080000000015020008A13500089B
:10004000970200089702000897020008970200082C
:10005000970200089702000897020008970200081C
:10006000970200089702000897020008290A000872
:10007000350A000897020008410A000897020008A4
:100080004D0A0008590A0008970200087D08000878
:1000900071080008970200089702000897020008FC
:1000A00097020008970200089702000897020008CC
:1000B0009D360008A936000897020008970200083C
:1000C00097020008970200089702000897020008AC
:1000D0009702000897020008C53D0008DD3D0008B2
:1000E000970200089702000897020008970200088C
:1000F000970200089702000897020008970200087C
:10010000970200089702000897020008970200086B
:100110009702000897020008E136000897020008DD
:1001200097020008650A0008970200089702000875
:100130009702000897020008970200089508000837
:100140008908000897020008970200089702000833
:10015000970200089702000897020008F53D000882
:10016000970200089702000897020008970200080B
:10017000970200089702000897020008000000009C
:100180009702000897020008753900088D390008A9
:1001900097020008F134000897020008970200084F
:1001A000000000000000000097020008DFF80CD0FB
:1001B00000F0F8FA00480047A542000850C20020AD
:1001C0002B4B19680868B0E8F04F80F30988BFF33B
:1001D0006F8F4FF0000080F311887047000000001F
:1001E00006480068006880F3088862B661B6BFF30D
:1001F0004F8FBFF36F8F00DF00BF00BF08ED00E03F
:10020000DFF80C00016841F470010160704700BF25
:1002100088ED00E0EFF30980BFF36F8F144B1A688D
:100220001EF0100F08BF20ED108A20E9F04F10607B
:1002300008B44FF0500080F31188BFF34F8FBFF325
:100240006F8F04F0C9FF4FF0000080F3118808BCE5
:1002500019680868B0E8F04F1EF0100F08BFB0EC46
:10026000108A80F30988BFF36F8F704700BF00BF0B
:1002700008000020EFF30580704700000648804723
:1002800006480047FEE7FEE7FEE7FEE7FEE7FEE77B
:10029000FEE7FEE7FEE7FEE749360008AD0100088D
:1002A00040EA01039B0703D009E008C9121F08C0F8
:1002B000042AFAD203E011F8013B00F8013B521E78
:1002C000F9D27047D2B201E000F8012B491EFBD2EF
:1002D00070470022F6E710B513460A460446194651
:1002E000FFF7F0FF204610BD2DE9FE4F804681EA62
:1002F0000300C00F0C46009021F0004123F00045A0
:10030000B8EB0200A94105D24046214690461C4662
:100310000B46024623F00040104347D0270DC7F399
:100320000A00C3F30A510290401A019040286BDA88
:10033000C3F3130040F4801B0098924620B10023C1
:10034000D2EB030A63EB0B0B01985946C0F1400254
:10035000504600F062F906460D4650465946019A4D
:1003600000F07AF910EB08006141002487EA11528D
:1003700084EAE7731A4340D0009A62B3019A012AD3
:100380004FEA075215DC001B61EB02014FF00042FF
:1003900002EA0752CDE90042001C41F580113246C5
:1003A0002B4600F0B1F903B0BDE8F08F404621467E
:1003B000F9E7001B61EB0201001C41F580130018F6
:1003C0005B412018A2F5001747EB030140EAD57006
:1003D000B6196D4111E06D084FEA360645EAC07561
:1003E0004FEA0752001B61EB0201001C41F580112E
:1003F00049084FEA30000019514132462B4603B0FC
:10040000BDE8F04F00F071B90098012240000023D0
:10041000D0EB020263EBE073009821464FEAE074F0
:10042000B8EB000061EB0401E9E783F000435BE710
:1004300081F0004158E72DE9F04D81EA030404F012
:10044000004B21F0004514464FF0000A23F0004114
:1004500050EA050220D054EA01021DD0C5F30A5724
:100460000246C5F31303C1F31300C1F30A5640F467
:10047000801543F48013A7EB0608101BD64608F23C
:10048000FD3873EB050002D308F1010801E0921872
:100490005B41B8F1000F03DA00200146BDE8F08DA2
:1004A00000204FF48011064684460EE0171B73EBC4
:1004B000050705D3121B63EB050306434CEA010C49
:1004C00049084FEA300092185B4150EA0107EDD12C
:1004D00052EA030012D082EA040083EA05010843CD
:1004E00005D0101BAB4106D20122002306E00022FA
:1004F0004FF0004302E06FF0010253101AEB0600C8
:100500004CEB085110EB0A0041EB0B01BDE8F04D3C
:1005100000F0EBB830B4044696230800214604D01E
:10052000B62330BC002200F0B2B820460021F8E724
:100530000EB5C10F80EAE0700844CA07002140F2FE
:1005400033438DE80E000A460B4600F0DDF803B099
:1005500000BD70B5C1F30A5201F000450024C1F39B
:10056000130140F2FF3341F480119A4201DA002076
:1005700070BD40F233439A42A2F2334203DC52424E
:1005800000F05AF800E090402C43F1D0404270BD9A
:1005900000F0004230F000400AD0C10D01F560715A
:1005A000C0F3160042EA0151C208400711437047E8
:1005B00000200146704701F0004330B421F00041B3
:1005C00050EA010206D00A0DA2F56072C1F31301D0
:1005D000002A02DC30BC00207047440F44EAC1040A
:1005E000C100E01830BC00EBC25000F047B830B595
:1005F0000B46014600202022012409E021FA02F5E1
:100600009D4205D303FA02F5491B04FA02F528447A
:10061000151EA2F10102F1DC30BD202A04DB203AD4
:1006200000FA02F1002070479140C2F1200320FA45
:1006300003F3194390407047202A04DB203A21FA43
:1006400002F00021704721FA02F3D040C2F12002EB
:100650009140084319467047202A06DBCB17203A01
:1006600041FA02F043EAE07306E041FA02F3D040B7
:10067000C2F1200291400843194670470029A8BFE3
:100680007047401C490008BF20F00100704710B4BB
:10069000B0FA80FC00FA0CF050EA010404BF10BC70
:1006A000704749B1CCF1200421FA04F411FA0CF19D
:1006B00018BF012121430843A3EB0C01CB1D4FEAD6
:1006C00000614FEA102042BF002010BC704700EBD1
:1006D000C35010440029A4BF10BC7047401C4900FF
:1006E00008BF20F0010010BC704710B5141E73F154
:1006F000000408DA401C41F1000192185B411A43E2
:1007000001D120F0010010BD2DE9F04D92469B462D
:1007100011B1B1FA81F202E0B0FA80F220329046D3
:10072000FFF77BFF04460F4640EA0A0041EA0B014F
:1007300053465A46084313D0114653EA010019D0D4
:10074000C8F140025046FFF777FF05460E46504677
:1007500059464246FFF761FF084305D0012004E0F7
:1007600020463946BDE8F08D0020054346EAE07694
:100770002C4337430A986305E40AA0EB08000022E3
:10078000FD0A44EA47540A3002D500200146E9E751
:10079000010510196941DDE9084500196941BDE805
:1007A000F04DA2E7064C074D06E0E06840F001037B
:1007B00094E8070098471034AC42F6D3FFF7FAFCF0
:1007C00084590008A459000870B58D1810F8014B21
:1007D00014F0030201D110F8012B231106D110F8F7
:1007E000013B03E010F8016B01F8016B521EF9D1D7
:1007F000ABB110F8012B04F00C048A1A0C2C03D0B6
:10080000A2EB84129B1C08E010F8014BA2EB04221F
:10081000F8E712F8014B01F8014B5B1EF9D5A9422C
:10082000D4D3002070BD000070B588B020220E49DE
:100830006846FFF735FD082000246D4600EBD076B2
:100840000DE000BF35F83400C82180B203F03AFC57
:1008500005EBC4004068800004F0FCFB641CB4EBB2
:10086000660FEFDB08B070BDFC560008FEE7000025
:10087000014800F0C9B90000A8B00020014800F00C
:10088000C3B90000A8B00020014800F0BDB90000C5
:10089000E8B00020014800F0B7B90000E8B000203F
:1008A00010B54FF4D872036802EB01129B5813F095
:1008B0000404436B9C600468436BA45854D0E40860
:1008C0005C6003689A58436B02F00202DA604FF4EE
:1008D000DA72036802EB01129B58446B03F00F03BA
:1008E000236103689A58436BC2F30722DA614FF41D
:1008F000DC72036802EB01129B58446B237503689A
:100900009B58446B1B0A637503689B58446B1B0C14
:10091000A37503689A58436B120EDA754FF4DE72B2
:10092000036802EB01129B58446B237603689B58C3
:10093000446B1B0A637603689B58446B1B0CA376BD
:1009400003689A58436B120EDA7620220029016858
:100950000DD00A6101684A6922F010024A6190F8DC
:100960003810222909D021E0640D1C60A9E7CA6073
:1009700001684A6922F00202F0E701684A6922F43C
:1009800080724A6101684A6922F400724A61016812
:100990004A6922F480624A6101684A6922F400626D
:1009A0004A6101684A6922F400424A6190F83810AD
:1009B000322907D05FF0010180F8381000F03CFBCD
:1009C000002010BD1221F7E710B501684A6922F036
:1009D00001024A6190F83810122918D101684A6959
:1009E00022F480724A6101684A6922F400724A6105
:1009F00001684A6922F480624A6101684A6922F406
:100A000000624A6101684A6922F400424A6190F832
:100A10003810322906D0012180F8381000F00EFC81
:100A2000002010BD2221F7E7014800F01BBC0000A8
:100A300090AF0020014800F015BC000070AE00200F
:100A4000014800F00FBC000030AF0020014800F06A
:100A500009BC000010AE0020014800F003BC0000FB
:100A6000F0AF0020014800F0FDBB0000D0AE002038
:100A700001681823CAB2103AB2FBF3F2054B6FF3C8
:100A80000901032A9B5CC36500D9091D81650846DD
:100A900070470000A856000810B5014600208B6979
:100AA0008A6A4FF0C07453B1B3F5005F15D072B1CC
:100AB000012A0CD0022A0AD0032A09D104E01AB173
:100AC000012A06D0022A03D1C96AC90100D5012032
:100AD00010BDC96AA142FAD010BD002AF7D0012A80
:100AE000F2D0022AF3D0032AF3D010BD30B5046847
:100AF000256825F480252560046863608368402BA1
:100B0000036803D099600068C26030BD9A600068D5
:100B1000C16030BD704701F0ABFFFCE7FEE70000AD
:100B2000F0B50A7D01209040344A136843F0010378
:100B30001360136823F47C53136013684C6A43EA10
:100B4000042313602D4B1C331C6884431C602B4D05
:100B50002B4CCE690C35A6B92E6886432E608F8942
:100B60004E6867F31F464F6904EBC707C7F8406636
:100B70000F890E6867F31F464F6904EBC707C7F874
:100B80004466CE69012E14D12E6806432E600E886D
:100B90004D6866F31F454E6904EBC606C6F840561D
:100BA0000E89CD6866F31F454E6904EBC604C4F890
:100BB0004456124C8D69241D002D256806D005432E
:100BC00025600E4C0D69143415B104E08543F7E738
:100BD0002568854325600D69012D02D125680543EF
:100BE0002560096A012902D119680143196010685A
:100BF00020F0010010600020F0BD00000066004001
:100C0000006000407047000010B50446006841696C
:100C1000C943C90714D182685849914368D000215B
:100C20008368574A9A4365D00022836855489843A1
:100C300062D000201143014302D02046FFF7C4FEDA
:100C40002068C168406911F0030FC0F3400004D070
:100C500018B100212046FFF723FE21680869496981
:100C600010F0030FC1F3001104D019B10121204687
:100C7000FFF716FE20688169426911F0010FC2F387
:100C800000234269C2F3C03205D023B11AB1E16B2F
:100C900041F00101E1638169C1F3400341694269A7
:100CA000C1F34021C2F3C0322BB121B11AB1E16BC3
:100CB00041F00201E16381694269C1F38001C2F33D
:100CC00080234269C2F3C03229B123B11AB1E16B6A
:100CD00041F00401E163816911F0700F0ED0002131
:100CE00042694369C2F3C022C3F3C03341B127E074
:100CF000012195E7012298E701209BE70121EFE719
:100D0000F2B1EBB1816901F07001402929D006DC14
:100D1000102909D020290BD030290DD11DE05029F0
:100D200023D0602908D124E0E16B41F0080102E002
:100D3000E16B41F01001E163816921F07001816193
:100D4000E06B002808D0216804204860012084F866
:100D500038002046FFF756FF10BDE16B41F020013F
:100D6000E9E7E16B41F04001E5E7E16B41F080012B
:100D7000E1E7E16B41F48071DDE70000030000046E
:100D800000030008000003102DE9F041040004D026
:100D900094F83800002518B107E00120BDE8F08183
:100DA00084F83950204600F093F8022084F8380087
:100DB0002068016821F0020101602068016841F0AB
:100DC0000101016000F09AFC0746032605E000BF20
:100DD00000F094FCC01B0A2863D820684068C00754
:100DE000F6D020684168C90768D0A1690129016867
:100DF0003FD021F080010160E0690128206801688E
:100E00003AD021F040010160206A01282068016881
:100E100035D021F020010160606A01282068016856
:100E200030D021F010010160A06A0128206801681B
:100E30002BD021F008010160E06A012820680168D8
:100E400026D021F004010160D4E902010843D4E96D
:100E50000412114308436168491E08432168C861B0
:100E60002068016821F00101016000F047FC07469D
:100E70001CE041F08001BEE741F04001C3E741F0D2
:100E80002001C8E741F01001CDE741F00801D2E7A9
:100E900041F00401D7E700BF00F030FCC01B0A2876
:100EA00004D904F8386F0320657077E7206840683C
:100EB000C007F1D120684068C00703D0042084F83F
:100EC00038006AE7E563012084F83800002065E710
:100ED000F0B5324B0768DFF8C0C01868032202245F
:100EE00009252F490026401C87B0674521D118608D
:100EF000012807D1086840F000700860086800F019
:100F0000007005908DE85400CDE903256946254819
:100F100000F008FB00220521132000F089FC1320BB
:100F200000F07AFC00220521142000F081FC14203E
:100F30002EE0DFF874C067452CD10F6847F080675A
:100F40000F600F68012807F080670597186007D1C8
:100F5000086840F000700860086800F000700590B4
:100F60004FF440508DE85100CDE9032569460F4804
:100F700000F0D8FA002211463F2000F059FC3F2033
:100F800000F04AFC00221146402000F051FC4020B5
:100F900000F042FC07B0F0BD006400407C0000207F
:100FA00040380240000C024000680040000402404B
:100FB00010B590F83820012A01D0122A39D190F8C2
:100FC0003920012A35D0012280F8392090F83820C4
:100FD000122A29D05FF0220280F838200022C26352
:100FE00003685C6944F480745C6103685C6944F480
:100FF00000745C6103685C6944F480645C6103684C
:101000005C6944F400645C6103685C6944F4004416
:101010005C6180F8392000680029416906D041F000
:1010200010014161002010BD3222D5E741F00201DC
:10103000F7E7022010BD000010B50446406B0068C1
:10104000A0F20120072818D81249C0B2087000EB9E
:10105000400101EBC001104800EB8100816A4A1C8D
:1010600032298262214602D803F088F801E003F0B9
:101070004DF82146094803F049F8094800684169DC
:1010800041F00201416107480068416941F00201F5
:10109000416110BD250B002000B20020E0B300200C
:1010A000A8B00020E8B000202DE9F05F0E460168EE
:1010B00004468868400105D48868000102D4886825
:1010C000C00067D594F8390001280ED0012784F8B4
:1010D000397094F8380022280AD0122084F8380099
:1010E0008868400106D500250AE00220BDE8F09F8F
:1010F0003220F3E78868000101D5012500E00225D0
:101100004FF4C07000EB05100A5802F001020A50BB
:10111000216B8A68EAB3D4F800C05CF8003013434E
:10112000CA68496842EAC1010B434CF80030216BA0
:101130000A7C02F00F020A614FF4C271226801EBCF
:101140000511535823F00F03535022685358D4F815
:1011500030C0DCF810C043EA0C035350216B4FF44D
:10116000C47303EB05130A7DD1F8151042EA01217F
:101170002268D150216B4FF4C67303EB05130A7E2E
:10118000D1F8191042EA01212268D15021680A5889
:1011900001E00DE046E042F001020A5000F0AEFA34
:1011A00081464FF00008DFF888A0DFF888B019E02A
:1011B00022681358D1F80CC0098843EA0C0343EAAB
:1011C00041511150B3E7701C0CD02EB100F096FACB
:1011D000A0EB0900B04205D9032084F8380084F858
:1011E000398083E795B12068012D816813D01248BA
:1011F00088430028E7D194F8380032280ED084F8CC
:10120000387000BF84F8398000206FE7206881685B
:101210002AEA0100EDE72BEA0100EAE7222084F840
:101220003800EFE7042084F8380001205EE7000072
:10123000030000040003000800000310704790F84A
:101240003510022903D08021416501207047052116
:1012500080F835100068016821F00101016000206C
:10126000704700002DE9F84304464FF00008CDF820
:10127000008064484FF41651A56D0068B0FBF1F78B
:101280002E6894F85C10082000FA01F131420FD06A
:1012900021680A6852070BD50A6822F004020A6026
:1012A00094F85C108840A860606D40F001006065B3
:1012B00094F85C1054488840304208D0216849694D
:1012C000090604D5A860606D40F0020060654E48D4
:1012D00094F85C10C01C8840304208D0216809682E
:1012E000890704D5A860606D40F00400606594F83B
:1012F0005C1010208840304218D021680968090726
:1013000014D5A86020680168490304D5006800036B
:1013100008D5A16C07E00168C90503D4016821F074
:1013200008010160216C09B12046884794F85C10DF
:101330002020884030424FF0010631D021680968F2
:10134000C9062DD5A86094F83500052820680168E5
:1013500006D0490347D5006800031DD4616C1CE02A
:1013600021F0160101602068416921F0800141618E
:10137000206C08B9A06C20B12068016821F0080138
:10138000016094F85C103F208840A86084F83480A5
:1013900084F83560216D1FE0E16B09B12046884774
:1013A000606D00282BD0606DC00714D0052084F834
:1013B00035002068016821F0010101600098401C9F
:1013C0000090B84203D820680068C007F6D184F8BE
:1013D000348084F83560E16C002910D001B02046DB
:1013E000BDE8F04308470168C905D5D4016821F07C
:1013F0001001016084F8348084F83560CCE7BDE8E2
:10140000F883000004000020010080002DE9F04175
:10141000044600F073F906465CB1002584F83450A8
:10142000022084F835002068016821F00101016084
:101430000DE00120BDE8F08100F060F9801B052877
:1014400005D920206065032084F83500F2E7206884
:101450000068C007F0D1226811681F480140D4E934
:1014600001031843D4E9033633431843636918432F
:10147000A3691843E3691843236A18430843616A60
:10148000042903D1D4E90B131943084310602068E1
:101490004069666A20F0070130460E4301270428A0
:1014A0000AD1A06A06432046FFF7F6FA20B1402091
:1014B000606584F83570BCE7206846612046FFF718
:1014C000D7FA94F85C203F2191408160656584F8EB
:1014D00035700020AEE700003F8010F070B5044684
:1014E00090F83400002501280CD0012084F8340045
:1014F00094F835600020012E06D084F834000225CF
:10150000284670BD022070BD022684F835606065F3
:101510002046FFF7EBFA2068016841F00101016005
:10152000EEE700002DE9F84FDFF890B100224FF010
:1015300001084FF0030A4FF00F090BF1040E00BF32
:101540000B6808FA02F42340A3426ED14D68022DC5
:1015500001D0122D0ED1D50800EB850CDCF82050FF
:101560005607F70E09FA07F6B5430E69BE402E433B
:10157000CCF82060066855000F790AFA05FC07F0E0
:10158000030726EA0C06AF40374307604E68012E7A
:1015900005D0022E03D0112E01D0122E0ED1876855
:1015A000CE6827EA0C07AE403E4386604668A643F5
:1015B0000C79C4F30014944034434460C4688E68CA
:1015C00024EA0C04AE402643C6604C68E4006FD5A4
:1015D0003B4C256845F480452560246822F00305CE
:1015E00004F480440094374C2E19D6F80848950727
:1015F0002F0F09FA07F5AC43334DA84201D100255E
:101600002EE0324DA84201D1012529E0304DA842FB
:1016100001D1022524E02F4DA84201D103251FE06E
:101620002D4DA84202D104251AE041E02B4DA842DD
:1016300001D1052514E02A4DA84201D106250FE06D
:10164000284DA84201D107250AE0274DA84201D123
:10165000082505E0254DA84201D1092500E00A250D
:10166000BD402543C6F80858DBF800405D464E688B
:101670009C43F60300D51C432C60DEF80040754601
:101680004E689C43B60300D51C432C600B4D0835B7
:101690002C684E689C43F60200D51C432C60074D15
:1016A0000C352C684E689C43B60200D51C432C6058
:1016B000521C102AFFF444AFBDE8F88F003C0140F3
:1016C0004438024000300140000002400004024063
:1016D00000080240000C02400010024000140240CA
:1016E00000180240001C024000200240002402407A
:1016F0000AB1816170470904FBE7000001480068F6
:10170000704700000000002002480168491C016089
:1017100070470000000000200B4810B5016841F43C
:1017200000710160016841F480610160016841F469
:1017300080710160032000F09BF8002000F006F8A3
:1017400000F03EF8002010BD003C024010B50146FC
:1017500088B00022362000F06BF8362000F05CF8EC
:1017600013480024016841F010010160006805A9D8
:1017700000F010000690684600F090F900F0B4F90F
:101780000C494000B0FBF1F10C480B4A491E0260C5
:1017900040F2E732C0E90324C0E9011400F074FC10
:1017A00010B1012008B010BD044800F0A7FCF9E713
:1017B0004038024040420F00001000401CAC0020A6
:1017C00010B5032000F054F8002211466FF00B0012
:1017D00000F02EF8002211466FF00A0000F028F801
:1017E000002211466FF0090000F022F80022114695
:1017F000501F00F01DF800221146101F00F018F8CD
:1018000000220F21901E00F013F800220F21BDE8E6
:101810001040501E00F00CB800F01F020121914052
:101820004009800000F1E020C0F80011704700007E
:10183000F0B40E4B1B680C46C3F30223C3F107053B
:10184000042D00D90425191D072901D2002300E029
:10185000DB1E012606FA05F1491E214099409E40F3
:10186000761E16403143F0BC01F025BE0CED00E0C1
:10187000064900F0070208684FF6FF03184040EAE7
:101880000220034A10430860704700000CED00E09E
:101890000000FA052DE9F8431E48016841F0805127
:1018A00001600068012600F080500090300490FA3A
:1018B000A0F0194FB0FA80F047F82060FFF71EFF44
:1018C00005464FF47A78154C05E000BFFFF716FF88
:1018D000401B404515D86068C003F7D54FF4003071
:1018E00090FAA0F0B0FA80F047F82060FFF706FF0A
:1018F0000546464608E000BFFFF700FF401BB04228
:1019000002D90320BDE8F88360688003F4D5002085
:10191000F8E700004038024000000E42007000402E
:101920002DE9F047DFF8649105460F46D9F800002D
:1019300000F00F01F8B28046B94208D2014689F89A
:101940000010D9F8000000F00F00B84274D12878D8
:101950004F4C800705D52068A96820F0F0000843A7
:1019600020602878C00759D049496868083901289B
:101970001AD002281BD0032819D00968890700292A
:101980005ADA216821F0030101432160FFF7B6FE16
:101990006968064641F28830012911D002291DD01C
:1019A0000329824627D035E009688903E7E70968FB
:1019B0008901E4E7FFF7A2FE811B514501D926E02A
:1019C00082462068C0F381000128F3D126E000BFE1
:1019D000FFF794FE811B514501D918E0824620682B
:1019E000C0F381000228F3D118E000BFFFF786FEA4
:1019F000811B51450BD82068C0F381000328F5D125
:101A00000CE000BFFFF77AFE811B514502D903208D
:101A1000BDE8F087206810F00C0FF3D1D9F8001062
:101A2000484601F00F01B94208D980F800800068EB
:101A300000F00F00B84201D00120E9E72878400704
:101A400005D52068E96820F4E05008432060287834
:101A5000000706D52068296920F4604040EAC100EB
:101A6000206000F071F82168F02292FAA2F201F0F1
:101A7000F001B2FA82F2D140064A515CC8400649F0
:101A800008600020FFF762FE0020C1E7003C024032
:101A900008380240B0560008040000200F220260FF
:101AA0000C4A136803F003034360136803F0F00368
:101AB0008360136803F4E053C36012684FF4E0538B
:101AC00003EAD20202610448006800F00F000860D7
:101AD0007047000008380240003C0240014800689E
:101AE00070470000040000200848094900680968A0
:101AF0004FF4E05292FAA2F201F4E051B2FA82F20B
:101B0000D140044A515CC8407047000004000020E6
:101B100008380240B05600080848094900680968BA
:101B20004FF4604292FAA2F201F46041B2FA82F2FA
:101B3000D140044A515CC8407047000004000020B6
:101B400008380240B056000830B51948006810F057
:101B50000C01184812D0184C04290ED008290DD1B8
:101B60001349091F0A6802F03F030A68550247F645
:101B7000C07204D5B4FBF3F003E0204630BDB0FBE7
:101B8000F3F00B680968134092FAA2F2B2FA82F2FB
:101B9000D34058434FF4403292FAA2F201F440315C
:101BA000B2FA82F2D140491C4900B0FBF1F030BDDD
:101BB000083802400024F400001BB7002DE9F84F5C
:101BC0000446DFF8CC820078A8F1040BC007ABF123
:101BD000040537D0D8F800104046C1F3810101292F
:101BE00008D00068C0F3810002280AD1DBF80000A9
:101BF000400206D52868800324D56068002878D084
:101C000020E0A3492079891F0870606868B1FFF758
:101C100075FD064605E000BFFFF770FD801B6428D8
:101C200068D828688003F7D50CE0FFF767FD064603
:101C300005E000BFFFF762FD801B6428F0D828682C
:101C40008003F7D42078934E80074FF0010A4FF0BD
:101C5000000742D5D8F80010404611F00C0F08D00C
:101C60000068C0F3810002280AD1DBF800004002BE
:101C700006D42868800714D5E068012839D110E01F
:101C8000E068D8B1C6F800A0FFF738FD814605E04E
:101C9000FFF734FDA0EB09000228C1D828688007AF
:101CA000F6D52868F82292FAA2F22169B2FA82F2F5
:101CB00020F0F8009140084328600EE03760FFF7FD
:101CC0001DFD814606E000BFFFF718FDA0EB0900EF
:101CD00002280FD828688007F6D42078000728D576
:101CE0006D486169A1B1C0F800A0FFF707FD81460A
:101CF00008E0CAE079E000BFFFF700FDA0EB0900B3
:101D0000022872D862486C3000688007F4D510E071
:101D10000760FFF7F3FC814606E000BFFFF7EEFC2B
:101D2000A0EB0900022860D859486C300068800791
:101D3000F4D42078400749D555483830016841F03F
:101D400080510160006800F08050009053480168A5
:101D500041F480710160FFF7D1FC814606E000BFCD
:101D6000FFF7CCFCA0EB090002283ED84B480068E6
:101D7000C005F5D5DFF81891207A09F1680989F8CE
:101D80000000A06888B1FFF7B9FC009008E000BF30
:101D9000FFF7B4FC0099411A41F2883081426CD8B7
:101DA000D9F800008007F3D510E0FFF7A7FC0090FA
:101DB00008E000BFFFF7A2FC0099411A41F2883009
:101DC00081425AD8D9F800008007F3D4A069E0B363
:101DD000D8F80010C1F38101022956D002283766D5
:101DE00004D0FFF78BFC04464AE046E0FFF786FC90
:101DF000074604E0FFF782FCC01B02283DD8286894
:101E00008001F7D4D4E90701084347F6C07292FA7B
:101E1000A2F2616AB2FA82F29140A26A4FF0FF33F5
:101E200003EB52024FF4403393FAA3F3B3FA83F374
:101E30009A40114308434FF0706292FAA2F2E16AAD
:101E4000B2FA82F29140084300E01CE0CBF80000B7
:101E5000C6F860A0FFF752FC044604E0FFF74EFC12
:101E6000001B022809D828688001F7D50BE000BFC5
:101E7000FFF744FC001B022802D90320BDE8F88FBD
:101E800028688001F4D40020F8E70120F6E700007C
:101E90000838024000004742800E47420070004070
:101EA0007047000038B504460068426881684B06F8
:101EB00005D4CB0703D0530601D5216C04E08B0772
:101EC00007D5130605D5616C01B02046BDE830404A
:101ED000084711F4B07F48D0930646D54B060AD583
:101EE00094F85130032B3DD0636D43F004036365D8
:101EF000C368836800938B0609D5636D43F00103C3
:101F0000636583680093036823F040030360C8059A
:101F100006D5606D40F0080060652068806800901C
:101F2000606D002821D02068416821F0E001416007
:101F3000012084F85100900718D02068416821F0F2
:101F4000030141600B4DE06C18B10565E06CFFF7D3
:101F500076F9A06C002808D00565A06CBDE8384073
:101F6000FFF76DB9C1688068009038BD2046FFF763
:101F700097FF38BDFD34000870B5040005D000257A
:101F8000A56294F8510010B106E0012070BD84F8FC
:101F90005050204600F030F8022084F851002068AC
:101FA000016821F040010160D4E901010843D4E94E
:101FB00003121143084361690843218B01F4007146
:101FC0000843E1690843216A0843A16A084321687C
:101FD0000860A069042101EA1040616A0843216891
:101FE00048602068C16921F40061C1616565012014
:101FF00084F85100002070BD00B500680E4987B01C
:10200000884217D10D480021026842F48012026014
:10201000006800F4801005904FF46070009002207A
:10202000CDE901010320039005200490694604488E
:10203000FFF778FA07B000BD005001404438024075
:10204000001402404FF0E0210428086903D020F07A
:1020500004000861704740F00400FAE710B5401E24
:10206000B0F1807F01D3012010BD4FF0E02460610A
:102070000F21601701F01FFA0020A06107202061E6
:10208000002010BD7047704710B5040003D094F8CD
:10209000390010B107E0012010BD002084F838009D
:1020A000204600F00DF8022084F83900211D206838
:1020B00001F01CFB012084F83900002010BD000055
:1020C00008B500680B49884212D10B48016841F0FD
:1020D000020101600068032200F00200009001216B
:1020E0001D20FFF7A5FBBDE808401D20FFF794BBAE
:1020F00008BD000000040040403802400168CA6882
:1021000042F00102CA600068016841F0010101600B
:102110000020704770B51E4C2078010613D41D4D69
:1021200041064FF2FF560FD540F080002070082185
:10213000284600F0F7F960602868016A31400162C2
:102140002868016A016270BD002140206160207032
:102150002868026A41F211131A4207D1026A9B10E1
:102160001A4203D1026822F001020260286841622B
:102170002868016A314001622868016A41F40071EF
:1021800001622868016841F00101016070BD000032
:102190006800002058AC002070B504460068016952
:1021A0004FF00005C943890715D4C168C9438907A1
:1021B00011D4E91E01610120207620688069800722
:1021C000204602D0FFF7A6FF04E000F098F8204672
:1021D00000F072F9257620680169C943490717D4D0
:1021E000C168C943490713D46FF00401016102209B
:1021F00020762068806910F4407F204602D0FFF7E7
:1022000089FF04E000F07BF8204600F055F92576C0
:1022100020680169C943090716D4C168C943090781
:1022200012D46FF008010161042020762068C06993
:102230008007204602D0FFF76DFF04E000F05FF852
:10224000204600F039F9257620680169C943C9069E
:1022500017D4C168C943C90613D46FF010010161D6
:10226000082020762068C06910F4407F204602D004
:10227000FFF750FF04E000F042F8204600F01CF9A0
:10228000257620680169C943C90708D1C168C943D7
:10229000C90704D1891E0161204600F02BF920688E
:1022A0000169C943090609D4C168C943090605D4AF
:1022B0006FF0800101612046FFF7E4FE20680169AC
:1022C000C943490609D4C168C943490605D46FF01A
:1022D00040010161204600F047F920680169C943C7
:1022E00089060BD4C168C943890607D46FF0200161
:1022F00001612046BDE87040FFF7C5BE70BD704764
:1023000070B5044690F838000D4601280DD001261E
:1023100084F83860022084F8390042B1042A18D0C9
:10232000082A2AD00C2A4DD139E0022070BD20683D
:1023300001F048FA2068816941F008018161206854
:10234000816921F004018161206881692A69114352
:1023500011E0206801F062FA2068816941F40061AF
:1023600081612068816921F48061816120688169CF
:102370002A6941EA0221816124E0206801F080FAA3
:102380002068C16941F00801C1612068C16921F07C
:102390000401C1612068C1692A69114311E0206804
:1023A00001F09EFA2068C16941F40061C1612068B2
:1023B000C16921F48061C1612068C1692A6941EA6B
:1023C0000221C16184F83960002084F8380070BDB2
:1023D00010B5040003D094F8390010B107E00120D3
:1023E00010BD002084F83800204600F00DF80220CF
:1023F00084F83900211D206801F078F9012084F863
:102400003900002010BD000070B52749254E036833
:102410002548103902220124032586B0B34217D182
:10242000036843F040030360006800F0400005903B
:10243000086840F0800008600868694600F0800085
:10244000059040208DE8350009200490174819E0D8
:10245000174EB3421AD1036843F0040303600068C7
:1024600000F004000590086840F008000860086863
:10247000694600F0080005904FF470408DE8350083
:102480000C480492FFF74EF806B070BDB3F1804FD0
:10249000FAD1016841F001010160006800F001001B
:1024A0000590F1E70018004040380240001C02404F
:1024B00000080040000C02407047000010B50446C0
:1024C0000068012201F072F908492068884202D0B0
:1024D0000749884203D1416C41F4004141642068BE
:1024E000016841F001010160002010BD00000140C1
:1024F000000401400849884207D10849D1E9022374
:10250000521C43F10003C1E90223006804498842D8
:1025100001D1FFF7F9B8704794AC002068000020A3
:102520000010004090F838300022012B0AD001231F
:1025300080F8383041B1042909D008290AD00C2983
:102540000DD10AE00220704701684A6B07E001687C
:102550008A6B04E00168CA6B01E001680A6C002123
:1025600080F83810104670477047704770B50268A1
:1025700004461068D168536910F00F0F50D003F073
:10258000010501F4907635435DD0C20705D0CA0538
:1025900003D5E26B42F00102E263420705D5DA0798
:1025A00003D0E26B42F00202E263820705D5DA074C
:1025B00003D0E26B42F00402E263020705D5DA07BA
:1025C00003D0E26B42F00802E263E26B002A33D0F0
:1025D000800604D5880602D5204601F0F3F920686C
:1025E0004069E16BC0F38010090700D428B320468E
:1025F00001F0DAF92068416949061AD5416921F0EC
:1026000040014161606BA0B11B490165606BFEF741
:1026100016FE002810D0606B016DBDE870400847C1
:10262000830610D58B060ED52046BDE8704001F01C
:10263000C9B92046FFF799FF70BD2046FFF795FF07
:102640000020E06370BD030606D50B0604D52046C6
:10265000BDE8704001F052BB4006F3D54806F1D505
:10266000D168204621F04001D160202184F8391042
:1026700000F0FCF970BD00009939000870B5040045
:1026800004D094F83900002510B106E0012070BD97
:1026900084F83850204600F023F8242084F83900CC
:1026A0002068C16821F40051C160204601F0D0F9D2
:1026B0002068016921F4904101612068416921F09D
:1026C0002A0141612068C16841F40051C160E5639D
:1026D000202084F8390084F83A00002070BD000002
:1026E0002DE9F04FA6490546DFF890821039D0F861
:1026F00000C00024A24F022201230320DFF884E25D
:102700000E1587B04FF0070A4FF0006B4FF4807939
:10271000C44535D1D7F800C04CF4003CC7F800C020
:102720003F6807F4003705970F6847F008070F6008
:10273000096801F00801059160218DE80E00CDE9DE
:10274000030A69467046FEF7EDFE904F8E483860EA
:10275000C7E901B4C7E903467C61C7E906493C62A1
:1027600038467C62FEF752FE08B1FEF7D7F96F6378
:10277000002211462620BD63FFF75AF826203BE0D1
:10278000DFF80C82C4453CD1D7F800C04CF4802C53
:10279000C7F800C03F6807F4802705970F6847F027
:1027A00008070F60096801F0080105914FF44071B6
:1027B0008DE80E00CDE9030A69467046FEF7B2FEC9
:1027C000724F7148603760383860C7E901B4C7E9B3
:1027D00003467C61C7E906493C6238467C62FEF7E5
:1027E00015FE08B1FEF79AF96F6300220521272034
:1027F000BD63FFF71DF82720FFF70EF807B0BDE80F
:10280000F08FDFF890814FF0080A4FF0206BC4453D
:1028100039D15B4F3F1DD7F800C04CF0200CC7F8F2
:1028200000C03F6807F0200705970F6847F0400792
:102830000F60096801F0400105914FF484418DE873
:102840000E00CDE9030A69465348FEF76BFE4F4F71
:102850005248C0373860C7E901B4C7E903467C6114
:10286000C7E906493C6238467C62FEF7CFFD08B1F5
:10287000FEF754F96F63002205214720BD63FEF780
:10288000D7FF4720B8E7DFF81881DFF818E1C44523
:1028900037D1D7F800C04CF0804CC7F800C03F6873
:1028A00007F0804705970F6847F010070F60096829
:1028B00001F0100105914FF4C0718DE80E00CDE9D3
:1028C000030A69467046FEF72DFE2F48364F303812
:1028D0003860C7E901B4C7E903467C61C7E9064926
:1028E0003C6238467C62FEF791FD08B1FEF716F9AE
:1028F0006F63002205215220BD63FEF799FF52202D
:102900007AE7DFF8A880C4457FF478AFD7F800C035
:102910004CF0004CC7F800C03F6807F0004705972F
:102920000F6847F010070F6009688DE80D0001F08F
:102930001001CDE904A1039069467046FEF7F2FD4F
:10294000194F114860377838E7E8020B402051C72B
:10295000154847F814496030BC61FC613C627C62F8
:10296000FEF754FD08B1FEF7D9F82F6300220521C8
:102970005320BD63FEF75CFF53203DE70044004059
:1029800040380240000C02408860024010AE002037
:102990000048004000140140001802402864024032
:1029A000007800400010024030AF0020007C004062
:1029B00070472DE9F843044690F839001E46174643
:1029C0000D46202850D135B32FB394F83800012894
:1029D0004AD0012084F838004FF00008C4F83C8049
:1029E000212084F83900FEF789FEA784E784814618
:1029F0004FF48057E08C4B46401EE084A0684FF0B7
:102A00000002B8424FF080012046009611D101F03B
:102A1000A6F900BB02E00120BDE8F8832888C0F3D6
:102A2000080120684160206908B16D1C08E0AD1CF8
:102A300006E001F094F970B9216815F8010B4860BF
:102A4000E08C0028D6D14B4600224021204600963B
:102A500001F085F908B10320DEE7202084F8390071
:102A600084F838800020D7E70220D5E77047FEE7DA
:102A70002DE9F041C04DC1482DED068B95F800C001
:102A80009FEDBFAABF4CB7EE000A9FEDBF8BC049B8
:102A9000D1ED000A9FEDBF9BC04A90F800E0131DE6
:102AA0001F1D00260EEB4E0E04EB4E14BCF1320F30
:102AB00023D2DFE80CF022191D23272B2F223322EB
:102AC0002236383C494B4E657E95AEC5DEFCFBFA9E
:102AD000222222222222F9F8F7F6F5F4F3F222223A
:102AE000222222222222F1F00E210170ACA002E06B
:102AF0000F210170B5A001F0E1F98CE21221017003
:102B0000BDA0F8E713210170C6A0F4E71021017001
:102B1000CFA0F0E711210170D8A0ECE70670E2A089
:102B2000E9E7EBA0E7E714210170F3A0E3E7FC4934
:102B3000D1E90001FDF7EEFC00EE900A80EE8A0A72
:102B400000F022FDF7A0D6E7172100E01821017060
:102B500061E2D4ED000A70EE800AC4ED000AD4ED03
:102B60000C0A70EE800AC4ED0C0AD4ED060A70EE71
:102B7000800AC4ED060AD4ED120A30EE800A15E090
:102B8000D4ED000A70EEC00AC4ED000AD4ED0C0AC0
:102B900070EEC00AC4ED0C0AD4ED060A70EEC00A4D
:102BA000C4ED060AD4ED120A30EEC00A84ED120A12
:102BB00031E2D4ED010A70EE800AC4ED010AD4EDD1
:102BC0000D0A70EE800AC4ED0D0AD4ED070A70EE0E
:102BD000800AC4ED070AD4ED130A30EE800A15E02E
:102BE000D4ED010A70EEC00AC4ED010AD4ED0D0A5D
:102BF00070EEC00AC4ED0D0AD4ED070A70EEC00AEB
:102C0000C4ED070AD4ED130A30EEC00A84ED130AAE
:102C100001E2D4ED020A70EE800AC4ED020AD4ED9E
:102C20000E0A70EE800AC4ED0E0AD4ED080A70EEAA
:102C3000800AC4ED080AD4ED140A30EE800A15E0CB
:102C4000D4ED020A70EEC00AC4ED020AD4ED0E0AF9
:102C500070EEC00AC4ED0E0AD4ED080A70EEC00A88
:102C6000C4ED080AD4ED140A30EEC00A84ED140A4B
:102C7000D1E12069FDF78CFC53EC182BFDF734FBF8
:102C8000FDF799FC2061206CFDF782FC53EC182BBA
:102C9000FDF72AFB0CE0BAE1B6E187E16FE1AFE1B5
:102CA000ABE1A6E1A2E19DE199E13FE13EE014E064
:102CB000FDF781FC2064A06AFDF76AFC53EC182B39
:102CC000FDF712FBFDF777FCA062A06DFDF760FC3D
:102CD00053EC182BFDF708FB24E02069FDF758FCA6
:102CE00053EC182BFDF7A1FBFDF765FC2061206C70
:102CF000FDF74EFC53EC182BFDF797FBFDF75BFC43
:102D00002064A06AFDF744FC53EC182BFDF78DFB03
:102D1000FDF751FCA062A06DFDF73AFC53EC182BB7
:102D2000FDF783FBFDF747FCA06574E16069FDF7E3
:102D30002FFC53EC192BFDF7D7FAFDF73CFC606133
:102D4000606CFDF725FC53EC192BFDF7CDFAFDF770
:102D500032FC6064E06AFDF71BFC53EC192BFDF7B5
:102D6000C3FAFDF728FCE062E06DFDF711FC53ECBF
:102D7000192BFDF7B9FAFEE0120B00209C00002091
:102D800000007A442C0400207B14AE47E17A843F93
:102D9000980000209A9999999999B93F3408004070
:102DA0000D0A2A2A2A2A2A2A2A2A2A2A73746174AC
:102DB00065203D2057414C4B5F41484541442A2AFC
:102DC0002A2A2A2A2A2A2A2A0D0A00000D0A2A2A31
:102DD0002A2A2A2A2A2A2A2A7374617465203D2005
:102DE00057414C4B5F4241434B2A2A2A2A2A2A2A1E
:102DF0002A2A2A0D0A0000000D0A2A2A2A2A2A2A2B
:102E00002A2A2A2A7374617465203D2057414C4B4D
:102E10005F4C4546542A2A2A2A2A2A2A2A2A2A0D77
:102E20000A0000000D0A2A2A2A2A2A2A2A2A2A2ADD
:102E30007374617465203D2057414C4B5F52494784
:102E400048542A2A2A2A2A2A2A2A2A2A0D0A00002B
:102E50000D0A2A2A2A2A2A2A2A2A2A2A73746174FB
:102E600065203D20524F5441545F4C4546542A2A18
:102E70002A2A2A2A2A2A2A2A0D0A00000D0A2A2A80
:102E80002A2A2A2A2A2A2A2A7374617465203D2054
:102E9000524F5441545F52494748542A2A2A2A2AF9
:102EA0002A2A2A2A2A0D0A000D0A2A2A2A2A2A2A26
:102EB0002A2A2A2A7374617465203D2054524F5483
:102EC0002A2A2A2A2A2A2A2A2A2A0D0A0000000047
:102ED0000D0A2A2A2A2A2A2A2A2A2A2A737461747B
:102EE00065203D20544553542A2A2A2A2A2A2A2A70
:102EF0002A2A0D0A000000000D0A2A2A2A2A2A2A54
:102F00002A2A2A2A7374617465203D2053544F5035
:102F10002A2A2A2A2A2A2A2A2A2A0D0A00000000F6
:102F2000700000204A554D50000000006069FDF718
:102F30002FFB53EC192BFDF778FAFDF73CFB606192
:102F4000606CFDF725FB53EC192BFDF76EFAFDF7CE
:102F500032FB6064E06AFDF71BFB53EC192BFDF7B5
:102F600064FAFDF728FBE062E06DFDF711FB53EC1E
:102F7000192BFDF75AFAFDF71EFBE0654BE0D4ED87
:102F8000030A70EE800AC4ED030AD4ED0F0A70EE56
:102F9000800AC4ED0F0AD4ED090A70EE800AC4ED70
:102FA000090AD4ED150A30EE800A15E0D4ED030AC3
:102FB00070EEC00AC4ED030AD4ED0F0A70EEC00A29
:102FC000C4ED0F0AD4ED090A70EEC00AC4ED090A77
:102FD000D4ED150A30EEC00A84ED150A1BE0106826
:102FE000143001E010681438106014E018681430D0
:102FF00001E01868143818600DE03868143001E0FA
:1030000038681438386006E030EE8A0A01E030EEA5
:10301000CA0A81ED000A2E70C820BDEC068BBDE8FF
:10302000F04102F017B800000F4810B50D490160DB
:103030000521416000214FF400328160C0E9031294
:103040005201C0E905210122C0E9072141628162E4
:10305000C162FDF799FE002803D0BDE81040FDF7DE
:103060005DBD10BD00640040A8B00020104810B540
:103070000E4901600521416000214FF04072C0E916
:1030800002124FF4003202615201C0E9052101220F
:10309000C0E9072141628162C162FDF775FE002827
:1030A00003D0BDE81040FDF739BD10BD00680040F9
:1030B000E8B00020194808B5016841F4001101602A
:1030C000016801F400110091016841F48001016080
:1030D0000068002200F48000009005210B20FEF71C
:1030E000A7FB0B20FEF798FB002205210C20FEF722
:1030F0009FFB0C20FEF790FB002205210E20FEF71F
:1031000097FB0E20FEF788FB002205213920FEF7F1
:103110008FFBBDE808403920FEF77EBB3038024007
:103120002DE9F047614886B00024016841F01001A4
:103130000160016801F010010591016841F0020190
:103140000160016801F002010591016841F0400150
:103150000160016801F040010591016841F008013A
:103160000160016801F008010591016841F0010169
:103170000160016801F001010591016841F480716D
:103180000160016801F480710591016841F08001DE
:103190000160016801F080010591016841F02001A2
:1031A00001600068DFF8088100F02000059000222F
:1031B00088214046FEF79CFA012204214046FEF792
:1031C00097FADFF8F0904FF4005600223146484657
:1031D000FEF78EFADFF8E0A044F2400700223946FD
:1031E0005046FEF785FA8C2000900125CDE9015468
:1031F000694640460394FEF795F9022000902F4857
:10320000CDE9010569464046FEF78CF90096CDE907
:103210000154694648460394FEF784F94FF49060E0
:10322000CDE90004694626480294FEF77BF9009731
:10323000CDE90154694650460394FEF773F90D2019
:1032400000902048CDE90104DFF87C8069464046C3
:10325000FEF768F93C20CDE900051C4E6946029452
:103260003046FEF75FF921208DE83100184F69469E
:103270003846FEF757F94FF4E0508DE831006946C3
:103280003046FEF74FF90F208DE831006946404681
:10329000FEF748F90420CDE9000569460294384656
:1032A000FEF740F906B0BDE8F08700003038024074
:1032B00000100240001802400014024000002110DB
:1032C000000C02400000111000000240001C0240EF
:1032D0000020024010B5002205212520FEF7A8FAA3
:1032E0002520FEF799FA002205212620FEF7A0FAF4
:1032F0002620FEF791FA002205212720FEF798FAF2
:103300002720FEF789FA002205214720FEF790FAD0
:103310004720FEF781FA002205215220FEF788FAA5
:103320005220FEF779FA002205210C20FEF780FAE0
:103330000C20FEF771FA002205213920FEF778FAF9
:10334000BDE810403920FEF767BA0000104810B5FC
:103350000E4901604FF48271416000218160C160BB
:103360004FF400720161C0E905123022C0E9072163
:10337000416281620A21C162FEF7FEFD002803D08E
:10338000BDE81040FDF7CABB10BD00000050014071
:1033900050B000200C4810B50A4901604FF4E131EB
:1033A0004160002181600C22C160C0E9041281618A
:1033B000C161FFF763F9002803D0BDE81040FDF7B5
:1033C000ADBB10BD0078004090AD00200C4810B59A
:1033D0000A4901604FF4E1314160002181600C2213
:1033E000C160C0E904128161C161FFF747F900289B
:1033F00003D0BDE81040FDF791BB10BD007C00403C
:10340000D0AD00200C4810B50A4901604FF4E131FD
:103410004160002181600C22C160C0E90412816119
:10342000C161FFF72BF9002803D0BDE81040FDF77C
:1034300075BB10BD00440040D0AC00200C4810B556
:103440000A4901604FF4E1314160002181600C22A2
:10345000C160C0E904128161C161FFF70FF9002862
:1034600003D0BDE81040FDF759BB10BD0048004037
:1034700010AD00200C4810B50A4901604FF4E1314D
:103480004160002181600C22C160C0E904128161A9
:10349000C161FFF7F3F8002803D0BDE81040FDF745
:1034A0003DBB10BD0014014050AD0020FEE700F010
:1034B00093FFFCE770470907090E002806DA00F0C1
:1034C0000F0000F1E02080F8141D704700F1E020AB
:1034D00080F800147047000030B4034C4466034C7D
:1034E000846630BC01F0F0B9C9480008D74800082C
:1034F0000148FEF7D7BC000050B0002010B5806B2B
:103500000021C187C186FEF7CBFC10BD70B5064611
:103510001C4A1B48002482E8530010461461FEF741
:1035200057FF184860253C3076080560C0E9016403
:10353000014600223C38FEF7E3FE00211148FEF769
:10354000BDFF10480422583001460560C0E90164FF
:103550005838FEF7D5FE04210A48FEF7AFFF0948A8
:103560000822743001460560C0E901647438FEF732
:10357000C7FEBDE8704008210248FEF79FBF00006B
:1035800000080040BCBD00200348044980ED050A46
:103590001620087070470000EC0A00209C000020F4
:1035A00000F0FCBF30B5264893B00025016841F01B
:1035B00080510160006800F080501190214801683E
:1035C00041F4404101600068022400F44040119041
:1035D0000120009001908005CDE90640062008906A
:1035E000B420CDE9090404200B906846FEF7E6FA02
:1035F00000B1FEE7FEF74EF900B1FEE70CA90F207F
:1036000081E831004FF4A0500F904FF4805010909B
:1036100005210CA8FEF784F900B1FEE7FEF75EFA7B
:103620004FF47A71B0FBF1F0FEF718FD0420FEF7BD
:1036300009FD00220F21501EFEF7FAF813B030BD2D
:1036400040380240007000401048016841F47001A9
:1036500001600F48016841F0010101600C4A00213E
:103660000832116002680B4B1A400260031D0A4ABF
:103670001A60026822F48022026005480C30016062
:1036800002495806803908607047000088ED00E064
:1036900000380240FFFFF6FE103000240148FEF71C
:1036A0007BBD000058AC00200148FEF775BD00004E
:1036B00094AC0020094A10B5074BC2E90031002143
:1036C000C2E9021010461161FEF7DEFCBDE81040B1
:1036D0000248FEF713BD00000004004094AC002037
:1036E0000148FEF759BD00001CAC0020F0B502688F
:1036F000234B244D244E254F254C4FF0804C9842AF
:1037000009D0604507D0A84205D0B04203D0B842E6
:1037100001D0A04204D122F0700E4A6842EA0E02A3
:1037200098421BD0604519D0A84217D0B04215D09E
:10373000B84213D0A04211D0164DA8420ED0164D5B
:10374000A8420BD0154DA84208D0154DA84205D06F
:10375000144DA84202D0144DA84203D122F4407562
:10376000CA682A4302608A68C2620A688262984212
:1037700001D0A04201D10969016301214161F0BD7D
:10378000000001400004004000080040000C004020
:103790000004014000400140004401400048014055
:1037A00000180040001C00400020004010B501231C
:1037B000046A8B409C430462036A8A401343036299
:1037C00010BD000030B5026A22F001020262026AF6
:1037D000436884690D6824F07304254322F00204D1
:1037E0008A6822430B4CA04202D00B4CA0420BD162
:1037F00022F00804CA6823F4407322434C6922F083
:1038000004021C438B69234343608561496841631B
:10381000026230BD000001400004014030B5026A80
:1038200022F010020262026A436884690D6824F47F
:10383000E64444EA05248D6822F0200242EA05129B
:103840000D4DA84202D00D4DA8420ED1CD6822F0F8
:10385000800242EA05124D6923F4406343EA85037E
:103860008D6922F0400243EA850343608461496820
:103870008163026230BD000000000140000401408D
:1038800030B5026A22F480720262036A4268C46937
:1038900023F4007324F073050C682C438D6843EA0D
:1038A00005230D4DA84202D00C4DA8420ED1CD6883
:1038B00023F4006343EA05234D6922F4405242EAAF
:1038C00005128D6923F4806342EA05124260C461E7
:1038D0004968C163036230BD00000140000401403B
:1038E00030B5026A22F480520262046A4268C369F7
:1038F0000D6823F4E64343EA05238D6824F400545D
:1039000044EA0534084DA84202D0084DA84204D12B
:103910004D6922F4804242EA85124260C3614968DF
:103920000164046230BD0000000001400004014059
:103930002DED028B01259FED0B8A0B4C0B4EDFED1D
:103940000C8A40F2DC5700BF84ED008A357038469F
:1039500001F080FBC4ED008A3570384601F07AFB37
:10396000F2E700000000000048B1002094000020B1
:103970000050C34710B5044801F0DDF9BDE8104020
:103980000148FEF7F3BD000090AD00200148FEF7AE
:10399000EDBD0000D0AD002010B5806B0021C185C9
:1039A000C184FEF7E2FD10BD0168CA6822F490727E
:1039B000CA6001684A6922F001024A61202180F848
:1039C0003A10704710B590F83A10222901D0022021
:1039D00010BD8168B1F5805F11D0016900290168CF
:1039E0001FD0496801F07F03816A4A1C82620B7014
:1039F000C18D491E0904090CC18518D026E0026951
:103A0000816A002A0268526805D0D2B20A80816AAF
:103A1000491C8162ECE7C2F308020A80816A891CB2
:103A2000F7E74A68816A4B1C83620A70E0E7016825
:103A3000CA6822F49072CA6001684A6922F00102E1
:103A40004A61202180F83A10FEF7B2FF002010BD35
:103A50002DE9F04104460068016921F44052E16813
:103A6000114301612168C86849F20C6290432369DF
:103A7000A268E5691A4363692B431A430243CA608B
:103A80002168486920F44072A06910434861E169E7
:103A90006425B1F5004F9748974A21684FF03208E6
:103AA0003FD0914201D081427CD1FEF735F800EB46
:103AB000C00101EB001061688900B0FBF1F6FEF770
:103AC0002BF800EBC00101EB001061688900B0FB2E
:103AD000F1F0B0FBF5F06FF01801484306EB800100
:103AE00008EB0110B0FBF5F000F0F006FEF714F85B
:103AF00000EBC00101EB001061688900B0FBF1F040
:103B0000B0FBF5F006EB0016FEF706F800EBC0017F
:103B100001EB001061688900B0FBF1F7FDF7FCFFD5
:103B2000D2E0914201D081423DD1FDF7F5FF00EB9B
:103B3000C00101EB001061684900B0FBF1F0B0FB7F
:103B4000F5F00601FDF7E8FF00EBC00101EB001006
:103B500061684900B0FBF1F7FDF7DEFF00EBC00143
:103B600001EB001061684900B0FBF1F0B0FBF5F02B
:103B70006FF01801484307EB800108EBC100B0FB70
:103B8000F5F000F0F80006EB4006FDF7C5FF00EB8E
:103B9000C00101EB001061684900B0FBF1F7FDF7CF
:103BA000BBFF3CE055E0FDF79FFF00EBC00101EBE0
:103BB000001061684900B0FBF1F0B0FBF5F00601C0
:103BC000FDF792FF00EBC00101EB001061684900B6
:103BD000B0FBF1F7FDF788FF00EBC00101EB00102F
:103BE00061684900B0FBF1F0B0FBF5F06FF018012F
:103BF000484307EB800108EBC100B0FBF5F000F093
:103C0000F80006EB4006FDF76FFF00EBC00101EB8B
:103C1000001061684900B0FBF1F7FDF765FF00EBAC
:103C2000C00101EB001061684900B0FBF1F0B0FB8E
:103C3000F5F06FF01801484307EB800108EBC10075
:103C4000B0FBF5F000F00700216830448860BDE863
:103C5000F081FDF749FF00EBC00101EB0010616846
:103C60008900B0FBF1F6FDF73FFF00EBC00101EB6F
:103C7000001061688900B0FBF1F0B0FBF5F06FF067
:103C80001801484306EB800108EB0110B0FBF5F08A
:103C900000F0F006FDF728FF00EBC00101EB00107B
:103CA00061688900B0FBF1F0B0FBF5F006EB00169F
:103CB000FDF71AFF00EBC00101EB001061688900FD
:103CC000B0FBF1F7FDF710FF00EBC00101EB0010B6
:103CD00061688900B0FBF1F0B0FBF5F06FF01801FE
:103CE000484307EB800108EB0110B0FBF5F000F052
:103CF0000F00A9E7001401400010014090F83910AE
:103D0000212901D0022070478168B1F5805F016AE6
:103D10000BD04A1C0262026809785160C18C491EAE
:103D20000904090CC1840ED017E009880268C1F3A8
:103D30000801516001690029016A02D0491C016231
:103D4000ECE7891CFBE70168CA6822F08002CA60C0
:103D50000068C16841F04001C160002070472DE952
:103D6000F041984617460E460446069D1DE0681C25
:103D70001BD02DB1FDF7C2FCA0EB0800A84214D95E
:103D80002068C16821F4D071C1602068416921F0C8
:103D900001014161202084F8390084F83A000020B4
:103DA00084F838000320BDE8F0812068006836EA16
:103DB000000004D00020B842D9D00020F3E7012051
:103DC000F9E7000010B5044800F0B5FFBDE8104069
:103DD0000148FEF7CBBB0000D0AC002010B5044872
:103DE00000F0A9FFBDE810400148FEF7BFBB00008E
:103DF00010AD002010B5044800F09DFFBDE8104054
:103E00000148FEF7B3BB000050AD0020FEE7000004
:103E1000154F164C164D174E4FF0070897ED000A38
:103E2000BDEEC00A10EE100A20802888608096ED52
:103E3000000ABDEEC00A10EE100AA080A88AE08039
:103E400096ED080ABDEEC00A10EE100A2081A8887F
:103E50006081A879A081A4F80E8000F00DF81420EC
:103E600001F0F8F8DAE70000980000200CB4002018
:103E700000B2002048B1002070B5032000F0CAFE57
:103E8000FC2000F0C7FE0C4D002400BF15F8140004
:103E900000F0C0FE35F81400C0F3072000F0BAFEB1
:103EA000641C072CF2DDFC2000F0B4FEBDE870407D
:103EB000032000F0AFBE00000CB400200FB4054B8F
:103EC00010B503A9044A029800F018F810BC5DF878
:103ED00014FB0000E9400008280B002002E008C89D
:103EE000121F08C1002AFAD170477047002001E074
:103EF00001C1121F002AFBD1704700002DE9FF4FBE
:103F000089B09B460446002506E025280BD05A467A
:103F10000B999047641C6D1C20780028F5D10DB0DA
:103F20002846BDE8F08F0027B8460122474900E047
:103F3000074314F8013F203B02FA03F00842F7D18F
:103F400020782E2819D114F8010F47F004072A28E9
:103F50000ED06FF02F022078A0F1300109290CD883
:103F600008EB880102EB410100EB0108641CF2E759
:103F70000A98641C50F8048B0A9020780028CED050
:103F8000642808D0692806D075281ED05A460B9997
:103F900090476D1C58E00A994FF00A0901C90A912F
:103FA000002802DA40422D2102E0390504D52B21F8
:103FB0008DF82010012103E0F90704D02021F7E754
:103FC0008A4608AE0DE00021FAE70A994FF00A0987
:103FD00001C90A91F7E74946FCF709FB303106F8B9
:103FE000011D0028F7D1ADEB060000F1200978078C
:103FF00001D44FF00108C84502DDA8EB090000E03C
:1040000000208046002706E008A85A46C05D0B99AC
:1040100090476D1C7F1C5745F6DB04E030205A4664
:104020000B9990476D1CB8F10001A8F10108F5DC6F
:1040300005E016F8010B5A460B9990476D1CB9F133
:104040000001A9F10109F4DC641C65E709280100FD
:10405000D0ED000AF4EEC00AF1EE10FA01DD80EDB9
:10406000000AD0ED000AB1EE400AF4EEC00AF1EE0B
:1040700010FA01D280ED000A7047000070B50546C5
:104080000F4A0E48002482E8330010461461FEF700
:104090009FF90B4860213C300022016069084160B3
:1040A0000221816001463C38FEF72AF900210448CC
:1040B000FEF704FA01483430046070BD0018004077
:1040C00064BD0020024A106001480C300160704756
:1040D000281800404FF48071C14001220148FDF7CB
:1040E00007BB00000018024010B5044605484FF415
:1040F0007A730146047001220348FEF75AFC2046F9
:1041000010BD000078000020D0AC00202DE9F04167
:10411000078904464781486B0E46808A45BA258147
:10412000486BC08A40BA60802080486B008B40BAE0
:1041300000B2FCF7FDF99FED0F1B53EC112BFCF7C0
:104140007AF9FCF706FAA080706BE91BB1F5805F85
:10415000807EA071206901DD401E03E011F5805FC3
:1041600001DA401C2061A18905EB4030401A6061F2
:10417000BDE8F0819A99999999998940496B898A02
:1041800049BA01818181704710B50B78184A0D2B0F
:104190000BD14B780A2B08D1012353700023CC1884
:1041A000A478C4545B1C0C2BF9DB1178114B491C0F
:1041B000C9B2117090ED000A03EB8100092980ED6E
:1041C000000A14D10020107003EB8001D2ED010A27
:1041D00091ED000A401C0A2830EE200A82ED010A07
:1041E000F2DBF2EE040A80EE201A82ED011A10BD15
:1041F000100B0020CCB100201E4810B5016886B01D
:1042000041F020010160016801F020010591016881
:1042100041F010010160016801F010010591016891
:1042200041F0400101600068694600F040000590DF
:104230004FF48040009001200190029003200390F1
:104240000D48FDF76FF94FF40060009069460B4888
:10425000FDF768F900F016F800F01CF84FF4FF7451
:10426000694607480094FDF75DF92046FFF732FFE5
:1042700006B010BD30380240001402400010024069
:1042800000180240012291030148FDF731BA0000F5
:10429000001402400122D1020148FDF729BA0000B2
:1042A000001002401FB5FDF737FAFFF77BF9FEF764
:1042B00037FFFEF7FFFEFEF7B7FEFEF7D7FEFFF76C
:1042C00045F8FFF79FF82A4800F040FDFFF7B6F8E1
:1042D000284800F03BFDFFF7CDF8274800F036FDF9
:1042E000FFF758F8254800F031FDFFF76FF8FEF7AB
:1042F000F1FF42F227310920FFF7DCF9204800F0F6
:104300000FF900211E48FCF753FE00211D48FCF761
:104310004FFE00F02FFA592140F2F310FFF7AEFEE6
:10432000FFF76AFF592144F61F60FFF7EFF81649BF
:1043300040F2BC700860091D40F2A4600860091DCD
:104340004FF48760086011A0FFF7B8FD00201D49F9
:104350000290CDE900010346039080221AA11D4876
:1043600000F0EEFF00F0FCFE04B0002010BD0000E5
:10437000D0AC002010AD002050AD002090AD00204A
:10438000A8B00020E8B00020340800400D0A2F2A11
:104390002A2A2A2A2A2A2A2A2A2A2A2A53595354D2
:1043A000454D20494E495420535543434553532AC4
:1043B0002A2A2A2A2A2A2A2A2A2A2A2A2A2A2A2F58
:1043C000200D0A008000002073746172745F7461B4
:1043D000736B0000294C00082DE9F05F4A4B4B49F4
:1043E0002DED028BA1F12002187870B15FF0000072
:1043F00001EB800494ED000A02EB8004401C84ED84
:10440000000A0828F4DB0020187000248946924630
:104410009FED3F8ADFF8FC80DFF8FCB00AEB8400F8
:1044200090ED000A04EB440000EBC40608EB8600A4
:10443000C0EE080A4169642091FBF0F000EE100A1A
:1044400004EBC40000EB40050BEB8500B8EEC00A9E
:10445000074600F0ADF838F92600D7ED0F0A00EE58
:10446000100A2E48B8EEC00A00EB850000F0A0F854
:1044700009EB8400641C80ED080A082CCEDB99ED62
:104480000B0A4C46BDEEC00A10EE100A99ED0A0A5E
:1044900003B2BDEEC00A10EE100A99ED090A02B28D
:1044A000BDEEC00A10EE100A99ED080A01B2BDEE89
:1044B000C00A10EE100A00B200F058FB94ED0F0A8B
:1044C000BDEEC00A10EE100A94ED0E0A03B2BDEE66
:1044D000C00A10EE100A94ED0D0A02B2BDEEC00A39
:1044E00010EE100A94ED0C0A01B2BDEEC00A10EEF7
:1044F000100A00B200F064FBBDEC028B0220BDE8A4
:10450000F05F00F0A7BD00009400002048B100203B
:104510000000C84200B2002060B50020C0B80020F2
:1045200030B58BB004460020012103900490CDE902
:1045300006010E25CDE90815059000900190029026
:1045400069462046FCF7ECFA694620460595FCF7DB
:10455000E7FA0848844203D1074820631C306063AF
:104560000648844204D10448403020631C30606314
:104570000BB030BDA8B0002060B30020E8B0002030
:104580000A78FF2A09D14A78FA2A06D100228B1824
:104590009B788354521C0C2AF9DB704710B500F04D
:1045A000ADFF012803D0BDE8104000F0B3BE10BD40
:1045B00000B530EEC01A80ED080AC0ED050A80EDA6
:1045C0000B1AD0ED141A01469FED692A30EEC00A8D
:1045D000F5EEC01AB1EE400AF1EE10FA0ED0B5EECB
:1045E000C01AF1EE10FA02DDF0EE410A01E0F0EE41
:1045F000400AF4EEE10AF1EE10FA12DCD1ED150AF0
:10460000F5EEC00AF1EE10FA0ED0B5EEC01AF1EEDA
:1046100010FA01DDB0EE410AB4EEE00AF1EE10FA54
:1046200002D2B0EE420A00BD886D01F134020328C7
:1046300002D0042838D07AE091ED000A104620EE2E
:10464000010A81ED0C0A91ED0D0AD1ED010A00EE8F
:10465000810A81ED0D0A91ED0A0AD1ED020A31EECF
:10466000400A20EE200A81ED0E0A91ED180AB8EEFC
:10467000400AFFF7EDFC91ED0C0AD1ED0D0A01F1B6
:104680003C0030EE200AD1ED0E0A30EE200A81ED1A
:104690000F0A91ED170AB8EE400AFFF7D9FC91ED29
:1046A0000F0A81ED100A42E091ED0A0AD1ED001ADD
:1046B000104671EE400A60EEA10AC1ED0C0AD1ED80
:1046C000010A60EE810AC1ED0D0AF0EE000A00EE6B
:1046D000601A91ED090AD1ED020A31EE000A20EECE
:1046E000200A81ED0E0A91ED180AB8EE400AFFF794
:1046F000AFFC91ED0C0AD1ED0D0A01F1480030EE4E
:10470000200AD1ED0E0A30EE200A81ED110AD1ED1A
:10471000130A30EE800A81ED120A91ED170AB8EE05
:10472000400AFFF795FC91ED120A81ED130A91ED15
:104730000A0A81ED090A91ED0B0A81ED0A0A91ED51
:10474000070A81ED060A91ED080A81ED070A91ED4D
:10475000040A81ED030A91ED050A81ED040A886DD2
:10476000032802D091ED120A00BD91ED0F0A00BDA1
:10477000000000002DE9F041474D00242DED048B91
:10478000DFED468A9FED469A464F44F620669FED40
:10479000468A00BF04EBC40000EB400005EB80003C
:1047A000B0EE481AF0EE680AB0EE490A33463A46CF
:1047B0000321FEF791FE641C082CEBDB3B4DDFED83
:1047C0003C8A00244FF4FA664FF4804704EBC4009F
:1047D00000EB400005EB8000B0EE481AF0EE680AEE
:1047E000B3EE060A33463A460321FEF775FE641C13
:1047F000082CEBDB42F21074DFED2E8AB0EE481A83
:10480000B7EE080AF0EE680A0023224603212A4880
:10481000FEF762FE2848B0EE481AF0EE680AB7EEDE
:10482000080A0023224603216C30FEF755FE224879
:10483000B0EE481AF0EE480AB0EE040A0023224611
:104840000321D830FEF748FEB0EE481AF0EE480AD1
:10485000B0EE0C0A0023224603211848FEF73CFE66
:10486000B0EE481AF0EE480AB7EE080A00232246D6
:1048700003211348FEF730FEB0EE481AF0EE480A66
:10488000BDEC048B22460023BDE8F041B7EE080AD8
:1048900003210C48FEF720BE60B500206F12033CD8
:1048A00000003C42A086010000000000C0B80020CB
:1048B0005036653C0AD7233C1CB4002020BC0020A5
:1048C0008CBC0020F8BC002000F1580C8CE80E00D5
:1048D00080EC030A704780EC030A704770B50B4CFC
:1048E000054620684560E0682168854205D2606B16
:1048F000BDE87040091D00F017BB206B091D00F0DA
:1049000013FBA06A854200D2A56270BD080000209A
:1049100070B5124E124C1AE000F056FC3068D0B15F
:1049200000F060FE00F024FBF068C568281D00F070
:10493000DBFAA068401EA0606068401E606000F066
:1049400037FB286B00F048FB284600F045FB606809
:104950000028E1D170BD00F045FEF8E7F40B00201F
:104960000800002010484FF42041420706D0C01D27
:104970000D4920F00700411AC1F520410B4A0023E0
:104980000144C2E900030839103A21F0070111601F
:104990004B600B600B1AC0E9001393604FF00040AE
:1049A0005360D060704700001C0C00205C000020A9
:1049B000074C4FF08056074DFFF7AAFF20680128EB
:1049C000FAD92E60BFF34F8FBFF36F8FF4E700006B
:1049D0002C0B002004ED00E030B5114900E0114639
:1049E0000A688242FBD34B685C18844203D140685A
:1049F00018444860084643681C18944209D1084C82
:104A0000103C2468A24209D052681A4442600A68E5
:104A100012680260814200D0086030BD0460F9E78E
:104A20005C0000200648016B096829B1016BC96868
:104A3000C9684968816270474FF0FF31FAE70000AA
:104A40000800002008484068401C4FF0500080F3E8
:104A5000118804D0BFF34F8FBFF36F8FFEE7BFF312
:104A60004F8FBFF36F8FFEE7400000202DE9F0412C
:104A70000546002700F0A8FB314E306808B9FFF763
:104A800071FFF06805424BD1C5B3083568070ED0F9
:104A900005F00700C0F108000544680707D0502062
:104AA00080F31188BFF34F8FBFF36F8FFEE72DB3F5
:104AB0007068854234D82248103001460C6801E005
:104AC00020460C466168A94202D221680029F7D12C
:104AD00031688C4224D0076821680160606808371B
:104AE000411B10290FD96019420708D0502080F3CC
:104AF0001188BFF34F8FBFF36F8FFEE710E0416067
:104B00006560FFF769FF61687068401A7060B2689D
:104B1000904200D2B060F06801430020C4E9000177
:104B200000F060FD780707D0502080F31188BFF3B4
:104B30004F8FBFF36F8FFEE73846BDE8F08100006E
:104B40004C00002010B5031F4FF080741C601B1F29
:104B50001960191F044B0B6014390A60091F6FF0AC
:104B6000020244380A6010BD454A0008F0B4134CF4
:104B70004FF40075266B3560266B0025B560266BFB
:104B8000F560266B08253561266B050A3575256BA2
:104B90006875256B080AA875206BC175216B100A12
:104BA0000876206B4276216B180A8876206B0A21E2
:104BB000C3762046F0BCFCF777BA0000A8B000200E
:104BC000F0B4134C40F2FF15266B3560266B0025C0
:104BD000B560266BF560266B08253561266B050AE6
:104BE0003575256B6875256B080AA875206BC1752E
:104BF000216B100A0876206B4276216B180A8876A2
:104C0000206B0A21C3762046F0BCFCF74DBA0000A9
:104C1000A8B0002001B50A23012269460148FDF72A
:104C2000C8FE08BDD0AC00207FB5FBF7FDFD00F04D
:104C30009FF90421002400911C48CDE901048E0154
:104C4000234632461AA11F48039400F079FB174807
:104C50000625001D0095CDE90104002332461AA166
:104C60001C48039400F06CFB104800950830CDE917
:104C700001040023324618A11A48039400F060FB97
:104C80000A4800950C30CDE901040023324616A1F4
:104C90001848039400F054FB0448001F006800F01B
:104CA0000DFABDE87F4000F083B9000084000020C9
:104CB0004D6F746F72436F6E74726F6C5F7461735B
:104CC0006B000000AF34000844656275675F746173
:104CD000736B0000170B00085663616E47435F74E7
:104CE00061736B00113E0008546573745F746173E7
:104CF0006B0000003139000870B5044690F83A00A6
:104D0000202801D0022070BD99B192B1A162A28584
:104D10000020E063134620680A46656B011D2846A3
:104D2000FCF7DCFB2068416941F040014161002053
:104D300070BD012070BD01680A68D20604D5C9683B
:104D4000C90601D500F052B870470000214982B071
:104D500088420BD10868016841680091C16841F040
:104D60001001C16032221C491A482DE01B498842BB
:104D70000CD10868016841680091C16841F01001D8
:104D8000C160154932220B3114481DE01449884294
:104D90000BD10868016841680091C16841F01001B9
:104DA000C16032220F490E480EE00F4988420ED1F1
:104DB0000868016841680091C16841F01001C16054
:104DC0000849322208481C3102B0FFF795BF02B0F3
:104DD00070470000D0AC0020120B002010AD002066
:104DE00050AD002088B1002090AD002038B50446B9
:104DF00000680168406800902A483225844209D141
:104E0000606B0068016821F001010160606B00685F
:104E1000416814E02448844219D1606B006801683D
:104E200021F001010160606B0068406880B22A28AF
:104E300003D11E49481F00F041F8606B00684560CF
:104E4000606B0068016841F00101016038BD1848DD
:104E5000844211D1606B0068016821F0010101609A
:104E6000606B0068406880B21628E6D1114901F1F4
:104E70002C00FFF789F9E0E70F488442E6D1606B28
:104E80000068016821F001010160606B0068406802
:104E900080B22228D1D107491C3101F15000FFF71F
:104EA0006FFBCAE7D0AC002010AD00201D0B002026
:104EB00050AD002088B1002090AD002010B5002337
:104EC00002228C5C521C2344DBB2082AF9DBFF2B44
:104ED00009D18A780270CA7842700A7982704A7958
:104EE000C2708979017110BDD0E9013201699A60FF
:104EF000D0E901235A604A68824201D182684A603F
:104F0000002202610868401E0860704700F1080135
:104F10004FF0FF32C0E90112C16001610021016060
:104F2000704700210161704730B50B685A1C02D0F0
:104F300000F1080202E0026904E022465468256894
:104F40009D42FAD953684B6099608A60516008614C
:104F50000168491C016030BD42684A6093688B60FB
:104F600093685960916008610168491C016070474D
:104F7000502080F31188BFF34F8FBFF36F8F0A4922
:104F80004868401C486001280CD10848006810F0AF
:104F9000FF0F07D0502080F31188BFF34F8FBFF36E
:104FA0006F8FFEE7704700004000002004ED00E036
:104FB0000849486828B1401E486001D180F3118833
:104FC0007047502080F31188BFF34F8FBFF36F8F6E
:104FD000FEE700004000002070B5002827D0144DE7
:104FE000A0F108046168E868014207D1502080F30D
:104FF0001188BFF34F8FBFF36F8FFEE722683AB17E
:10500000502080F31188BFF34F8FBFF36F8FFEE7FF
:105010008143616000F0D8F860686968084468609E
:105020002046FFF7D9FCBDE8704000F0DBBA70BD48
:105030004C00002006484FF47A710068B0FBF1F193
:105040004FF0E020491E41610721016170470000D7
:105050000400002070B5020022D0164CE06A38B17E
:10506000502080F31188BFF34F8FBFF36F8FFEE79F
:1050700000F0AAF8E06885182068001DFFF734FFEB
:1050800038B9206890F82C100120884021698143AC
:1050900021612846FFF722FC00F0A4FA002807D17E
:1050A00005494FF080500860BFF34F8FBFF36F8FFB
:1050B00070BD00000800002004ED00E070B504465B
:1050C000FFF756FF234D04B92C68201DFFF70CFF96
:1050D00058B9E06A204A00EB800152F8211021B94A
:1050E00001218140286988432861A06A18B104F130
:1050F0001800FFF7F9FE1848211DC830FFF72CFFF4
:105100006868401C6860686A401C6862FFF750FF6E
:105110006869002814D02868844212D1E86A38B13E
:10512000502080F31188BFF34F8FBFF36F8FFEE7DE
:105130000A494FF080500860BFF34F8FBFF36F8F65
:1051400070BDFFF715FFFFF76DFCBDE87040FFF77E
:105150002FBF0000080000202C0B002004ED00E011
:105160001FB500240094019402942346802212A1CA
:105170001348039400F0E4F8012809D0002819D15D
:10518000502080F31188BFF34F8FBFF36F8FFEE77E
:10519000502080F31188BFF34F8FBFF36F8F094802
:1051A0004FF0FF31816201214161C460BDE81F40C1
:1051B00000F040B81FBD000049444C45000000000D
:1051C000B1490008080000200248C16A491CC162B8
:1051D00070470000080000201448C16A11B1012185
:1051E000C16170470021C1610169B1FA81F1C1F16A
:1051F0001F0101EB81020E4951F822306BB101EB26
:10520000820101F108034A6852684A609A4201D15A
:1052100052684A60D16801607047502080F311885D
:10522000BFF34F8FBFF36F8FFEE700000800002031
:105230002C0B00201CB532480168324A914207D13C
:10524000502080F31188BFF34F8FBFF36F8FFEE7BD
:1052500000682C49491E884207D1502080F31188EC
:10526000BFF34F8FBFF36F8FFEE727490878019098
:10527000FF20087008788DF800009DF800009DF868
:10528000002000F0F000904207D0502080F31188F9
:10529000BFF34F8FBFF36F8FFEE79DF800001B4AEF
:1052A00000F0500010700720906005E09DF800307D
:1052B0005B008DF80030401E9DF800301B06F5D4D1
:1052C000000200F4E0609060019808700C48203003
:1052D000016841F470010160016841F070410160B2
:1052E000FFF7A8FE00205060FAF78AFF084801681F
:1052F00041F040410160FAF773FF00201CBD00003F
:1053000000ED00E071C20F4100E400E04000002029
:1053100034EF00E010B5502080F31188BFF34F8FB9
:10532000BFF36F8F00F0F8F818B104494FF08050C8
:105330000860002080F3118810BD000004ED00E03B
:105340002DE9FF5F5FEA000BDDE90F900E9E154629
:105350008A4609D0072E0FD3502080F31188BFF35F
:105360004F8FBFF36F8FFEE7502080F31188BFF39C
:105370004F8FBFF36F8FFEE7A900884610B908462C
:10538000FFF774FB07001ED05C20FFF76FFB0400E3
:10539000384616D0A52241462063FAF793FF6FF0F6
:1053A0000301206B01EB8501084420F00707780713
:1053B0000CD0502080F31188BFF34F8FBFF36F8F55
:1053C000FEE7FFF709FE4FF0FF348CE0514635460B
:1053D000002022180B5C82F834300A5C12B1401CA9
:1053E0001028F6D3002084F84300072D00D30625AB
:1053F000E562C4E913508046201DFFF792FD04F1D9
:105400001800FFF78EFD2461C5F107016462A161F8
:10541000C4F8548084F8588059463846039AFFF7F8
:1054200091FB2060B9F1000F01D0C9F80040FFF7EF
:105430009FFD2F4DA868401CA8602868DFF8B48045
:1054400010B1686948B32DE02C60A868012829D103
:105450005FF0000707EB870108EB8100FFF756FDBF
:105460007F1C072FF6D323488C30FFF74FFD2148D0
:10547000A030FFF74BFD1F48B430FFF747FD1D4834
:10548000C830FFF743FD1B48DC30FFF73FFD1948EC
:105490008C3028631430686304E02868C06AB04226
:1054A00000D82C60686A401C68626064E16A012070
:1054B0002A6988401043286101EB810108EB8100D3
:1054C000211DFFF749FD0124FFF772FD686950B106
:1054D0002868C06AB04206D2074920070860BFF3B7
:1054E0004F8FBFF36F8F04B02046BDE8F09F0000E0
:1054F000080000202C0B002004ED00E00548416965
:1055000019B1C06A18B1002070470120704702200D
:1055100070470000080000202DE9F0412F4C0026C4
:10552000E06A40B1A069401CA061E06900B10126B9
:105530003046BDE8F081E068401CE060E7689FB954
:10554000206B006838B1502080F31188BFF34F8F73
:10555000BFF36F8FFEE7206B616B21636063206A8E
:10556000401C2062FFF75EFAA06ADFF87480874271
:1055700009D3206B006880B1206BC068C56868687B
:1055800087420DD2A0622068C06A00EB800158F803
:1055900021000128C9D90126C7E74FF0FF30F1E704
:1055A000281DFFF7A1FCA86A18B105F11800FFF744
:1055B0009BFCE86A0121226981401143216100EBD3
:1055C000800108EB8100291DFFF7C6FCE86A21680D
:1055D000C96A8842CDD30126CBE70000080000202D
:1055E0002C0B00202DE9F0472C4C0026E06A38B146
:1055F000FFF7BEFCE06A401EE062E06A40B147E0AF
:10560000502080F31188BFF34F8FBFF36F8FFEE7F9
:10561000A168234D012079B3A5F1B409804628681B
:10562000E8B1E868C76807F11800FFF75DFC381DAE
:10563000FFF75AFCF96A226908FA01F01043206169
:1056400001EB810109EB8100391DFFF785FCF86A48
:105650002168C96A8842E2D3C4F81C80DFE7A069E8
:1056600058B14546A06940B1FFF756FF00B1E5616A
:10567000A069401EA061F5E70AE0E069012807D1B2
:105680000849012600070860BFF34F8FBFF36F8FF3
:10569000FFF78EFC3046BDE8F087000008000020D0
:1056A000E00B002004ED00E00006101600061016C6
:1056B00000000000010203040102030406070809B8
:1056C000C9000000EE02000000000000C900000058
:1056D00032000000000000000A000000C9000000C5
:1056E00032000000000000000A000000C9000000B5
:1056F00064000000000000000A0000007C010000BF
:10570000320000002E01000032000000C90000003D
:10571000640000000000000096000000C9000000C6
:10572000320000000000000096000000960000001B
:1057300019000000000000001900000096000000A1
:105740001900000000000000190000009600000091
:105750001900000000000000190000009600000081
:105760001900000000000000640000009600000026
:10577000960000000000000019000000FE0000007C
:1057800032000000FE00000019000000FE000000D2
:1057900019000000E200000064000000FE000000AC
:1057A00064000000BE00000064000000C9000000AA
:1057B00064000000C900000064000000FE0000005A
:1057C00032000000FE00000019000000FE00000092
:1057D00019000000E200000064000000FE0000006C
:1057E00064000000A900000064000000BE0000008A
:1057F00064000000BE00000064000000FE00000025
:1058000032000000FE00000019000000FE00000051
:10581000190000007E0000006400000096000000F7
:1058200064000000BE00000064000000C900000029
:1058300064000000E2000000640000008E00000030
:10584000320000008E000000190000008E000000F1
:10585000190000009600000064000000BE00000077
:1058600064000000A900000064000000BE00000009
:1058700064000000BE00000064000000FE000000A4
:1058800032000000E200000032000000BE00000014
:1058900032000000000000000A000000A900000023
:1058A00032000000000000000A000000A900000013
:1058B000320000000000000001000000A90000000C
:1058C000320000000000000001000000BE000000E7
:1058D000320000000000000001000000A9000000EC
:1058E00032000000000000000F000000BE000000B9
:1058F00032000000000000000F00000096000000D1
:1059000032000000000000000F0000000000000056
:1059100032000000C9000000280000000000000064
:105920000A000000C900000028000000000000007C
:105930000A000000C900000028000000000000006C
:105940000A000000C90000004B0000000000000039
:105950000F000000C900000032000000000000003D
:1059600019000000E2000000190000000000000023
:1059700019000000BE000000190000000000000037
:1059800019000000A4590008000000202C0B0000A2
:10599000C8070008385B00082C0B002024B7000063
:1059A000EC3E000822000100043A24F4000112AA8F
:1059B00001025100011004150001012162031C7055
:1059C00041825278200354C8411052CC5803640CD1
:1059D0004270C180100466668A0812400447804005
:1059E0007213803E0C123F1042410422A018110491
:1059F0001006803ECDCCEC1812D030222034311865
:105A00004005CDCC4C3E20012E1803D2C07F04545B
:105A1000046666825816B634340E40409A99993E10
:105A2000333333406666D270340433337B3C8405B1
:105A3000CDCCCC3D686600682200301104156806A4
:105A400015B83806BBB85058046666CA584D780376
:105A500081F09AA870295C16803803481340180911
:105A600046B80116184FE04154033E8858031C0401
:105A700048E1FA3003031CCC3E188D780301281846
:105A80000229001872A09000041D8FC2F518168C10
:105A900094BE6008044580011618022DA41829B888
:105AA00016900C5BC040F8117802190C18968068AB
:105AB00001221852E044D240780146185ED0A80373
:105AC0007A80580004A96666061892E08CE1F0011D
:105AD000FF181DA0051EA2C0036FF041B8055C04AD
