:020000040800F2
:10000000A09E00207D020008673B0008D530000854
:10001000E5380008010B0008C14C00080000000092
:10002000000000000000000000000000C101000806
:10003000E51000080000000015020008A9440008AF
:10004000970200089702000897020008970200082C
:10005000970200089702000897020008970200081C
:10006000970200089702000897020008970200080C
:100070002D10000897020008970200089702000858
:10008000391000084510000897020008110B0008FD
:10009000050B000897020008970200089702000865
:1000A00097020008970200089702000897020008CC
:1000B00097020008A545000897020008970200086B
:1000C00097020008970200089702000897020008AC
:1000D0009702000897020008654C0008A94C000828
:1000E000970200089702000897020008970200088C
:1000F000970200089702000897020008970200087C
:10010000970200089702000897020008970200086B
:100110009702000897020008DD45000897020008D2
:1001200097020008511000085D10000897020008AF
:10013000970200089702000897020008290B0008A0
:100140001D0B00089702000897020008970200089C
:10015000970200089702000897020008B54C0008B3
:10016000970200089702000897020008970200080B
:10017000970200089702000897020008000000009C
:1001800097020008970200082D480008970200080F
:1001900097020008970200089702000897020008DB
:1001A000000000000000000097020008DFF80CD0FB
:1001B00000F03AFC0048004791700008A09E002023
:1001C0002B4B19680868B0E8F04F80F30988BFF33B
:1001D0006F8F4FF0000080F311887047000000001F
:1001E00006480068006880F3088862B661B6BFF30D
:1001F0004F8FBFF36F8F00DF00BF00BF08ED00E03F
:10020000DFF80C00016841F470010160704700BF25
:1002100088ED00E0EFF30980BFF36F8F144B1A688D
:100220001EF0100F08BF20ED108A20E9F04F10607B
:1002300008B44FF0500080F31188BFF34F8FBFF325
:100240006F8F07F035FE4FF0000080F3118808BC77
:1002500019680868B0E8F04F1EF0100F08BFB0EC46
:10026000108A80F30988BFF36F8F704700BF00BF0B
:1002700008000020EFF30580704700000648804723
:1002800006480047FEE7FEE7FEE7FEE7FEE7FEE77B
:10029000FEE7FEE7FEE7FEE751450008AD01000876
:1002A00040EA01039B0703D009E008C9121F08C0F8
:1002B000042AFAD203E011F8013B00F8013B521E78
:1002C000F9D27047D2B201E000F8012B491EFBD2EF
:1002D00070470022F6E710B513460A460446194651
:1002E000FFF7F0FF204610BD2DE9FE4F804681EA62
:1002F0000300C00F0C46009021F0004123F00045A0
:10030000B8EB0200A94105D24046214690461C4662
:100310000B46024623F00040104347D0270DC7F399
:100320000A00C3F30A510290401A019040286BDA88
:10033000C3F3130040F4801B0098924620B10023C1
:10034000D2EB030A63EB0B0B01985946C0F1400254
:10035000504600F0F9F906460D4650465946019AB6
:1003600000F011FA10EB08006141002487EA1152F5
:1003700084EAE7731A4340D0009A62B3019A012AD3
:100380004FEA075215DC001B61EB02014FF00042FF
:1003900002EA0752CDE90042001C41F580113246C5
:1003A0002B4600F048FA03B0BDE8F08F40462146E6
:1003B000F9E7001B61EB0201001C41F580130018F6
:1003C0005B412018A2F5001747EB030140EAD57006
:1003D000B6196D4111E06D084FEA360645EAC07561
:1003E0004FEA0752001B61EB0201001C41F580112E
:1003F00049084FEA30000019514132462B4603B0FC
:10040000BDE8F04F00F008BA009801224000002338
:10041000D0EB020263EBE073009821464FEAE074F0
:10042000B8EB000061EB0401E9E783F000435BE710
:1004300081F0004158E72DE9FE4F81EA030404F002
:10044000004421F0004100944FF0000B23F00043E2
:1004500050EA01045ED052EA03045BD0C3F30A54AD
:10046000C1F30A552C44A4F2F3340194A0FB0254C6
:10047000C1F3130141F48011C3F3130343F4801358
:1004800001FB024400FB034E840A970A44EA8154AC
:1004900047EA8357A4FB076802958D0A05FB078589
:1004A0004FEA932C04FB0C542705029D4FEA065893
:1004B00047EA1637B5EB08056EEB070C870E920E70
:1004C00047EA811742EA8312A7FB0201B6EB0B0150
:1004D00064EB00042B0D43EA0C335E1844EB1C5014
:1004E000DA465146E7FB0201C5F313044FEA0B332A
:1004F00043EA14534FEA0432019C43EA0603A4F191
:100500000C040294009CCDE900B400F094F903B00F
:10051000BDE8F08F00200146F9E72DE9F04D81EAB2
:10052000030404F0004B21F0004514464FF0000A8C
:1005300023F0004150EA050220D054EA01021DD008
:10054000C5F30A570246C5F31303C1F31300C1F301
:100550000A5640F4801543F48013A7EB0608101BDD
:10056000D64608F2FD3873EB050002D308F1010806
:1005700001E092185B41B8F1000F03DA0020014658
:10058000BDE8F08D00204FF48011064684460EE051
:10059000171B73EB050705D3121B63EB050306431B
:1005A0004CEA010C49084FEA300092185B4150EACE
:1005B0000107EDD152EA030012D082EA040083EA77
:1005C0000501084305D0101BAB4106D201220023D0
:1005D00006E000224FF0004302E06FF001025310EA
:1005E0001AEB06004CEB085110EB0A0041EB0B0133
:1005F000BDE8F04D00F010B930B404469623080071
:10060000214604D0B62330BC002200F0D7B82046E3
:100610000021F8E70EB5C10F80EAE0700844CA0770
:10062000002140F233438DE80E000A460B4600F0ED
:1006300002F903B000BD0EB540F23342029200222F
:10064000CDE90022134600F0F6F803B000BD70B506
:10065000C1F30A5201F000450024C1F3130140F236
:10066000FF3341F480119A4201DA002070BD40F25C
:1006700033439A42A2F2334203DC524200F073F851
:1006800000E090402C43F1D0404270BD00F00042A9
:1006900030F000400AD0C10D01F56071C0F31600C2
:1006A00042EA0151C2084007114370470020014649
:1006B0007047000030B5041E71F1000404DB4FF0F8
:1006C0000044404264EB0101141E73F1000405DB99
:1006D0001C464FF00043524263EB0403994208BFAB
:1006E000904230BD01F0004330B421F0004150EAA7
:1006F000010206D00A0DA2F56072C1F31301002AAF
:1007000002DC30BC00207047440F44EAC104C10041
:10071000E01830BC00EBC25000F047B830B50B46D3
:10072000014600202022012409E021FA02F59D4221
:1007300005D303FA02F5491B04FA02F52844151EF5
:10074000A2F10102F1DC30BD202A04DB203A00FADC
:1007500002F1002070479140C2F1200320FA03F318
:10076000194390407047202A04DB203A21FA02F016
:100770000021704721FA02F3D040C2F120029140DB
:10078000084319467047202A06DBCB17203A41FA66
:1007900002F043EAE07306E041FA02F3D040C2F10E
:1007A000200291400843194670470029A8BF7047AE
:1007B000401C490008BF20F00100704710B4B0FA97
:1007C00080FC00FA0CF050EA010404BF10BC704732
:1007D00049B1CCF1200421FA04F411FA0CF118BF4C
:1007E000012121430843A3EB0C01CB1D4FEA00611B
:1007F0004FEA102042BF002010BC704700EBC350EE
:1008000010440029A4BF10BC7047401C490008BF19
:1008100020F0010010BC704710B5141E73F10004E5
:1008200008DA401C41F1000192185B411A4301D1E2
:1008300020F0010010BD2DE9F04D92469B4611B10C
:10084000B1FA81F202E0B0FA80F220329046FFF76E
:100850007BFF04460F4640EA0A0041EA0B0153467B
:100860005A46084313D0114653EA010019D0C8F183
:1008700040025046FFF777FF05460E465046594660
:100880004246FFF761FF084305D0012004E02046FF
:100890003946BDE8F08D0020054346EAE0762C435A
:1008A00037430A986305E40AA0EB08000022FD0A1A
:1008B00044EA47540A3002D500200146E9E7010521
:1008C00010196941DDE9084500196941BDE8F04D9D
:1008D000A2E770B521F0004303430CD0C1F30A55E1
:1008E0000024D5EB040564EB0403D617AD1AB3411D
:1008F00002DB0020014670BD201841EB025170BDA3
:100900002DE9F04D00231A461B1A8A4103DB002013
:100910000146BDE8F08DC1F30A52C1F3130141F461
:1009200080154FF0000BD10702D100186D41521E07
:100930000027044640F2FF11384601EB620A3E46AA
:100940008046024600204FF48011FFF70CFFC219C9
:100950007141BB1846EB0100B4EB030C75EB000CC6
:1009600004D3E41A65EB000517460E46241908F176
:1009700001006D4180463428E3DDF91946EB06009D
:10098000091BA84103D24FF0FF32134601E00022B9
:1009900013461BEB070046EB0A51BDE8F04DFFF78D
:1009A0003BBF2DE9FE4FC3F30A5701F00045002479
:1009B000C1F30A56C3F31303C1F3130143F48013C5
:1009C00012EB020AA64641F48011009543EB030C9A
:1009D000A7F1010B16E0B0EB0A0061EB0C01071E5A
:1009E00071F1000707DA4FF00008D0EB080085F03E
:1009F000004568EB0101171A73EB0107EBD3761E74
:100A0000001849415E45F6DA50EA010209D0CDE905
:100A100000E5002213460296FFF70DFF03B0BDE884
:100A2000F08F20460099F9E7064C074D06E0E06894
:100A300040F0010394E8070098471034AC42F6D325
:100A4000FFF7B8FBE0880008008900080EB540F207
:100A5000334102910021CDE900110A460B46FFF710
:100A6000EAFE03B000BD70B58C1810F8015B15F0FC
:100A7000070301D110F8013B2A1106D110F8012B10
:100A800003E010F8016B01F8016B5B1EF9D12B0735
:100A900005D40023521E0DD401F8013BFAE710F8EB
:100AA000013BCB1A921C03E013F8015B01F8015BD8
:100AB000521EF9D5A142D8D3002070BD70B588B0C0
:100AC00020220E496846FFF7EBFB082000246D4604
:100AD00000EBD0760DE000BF35F83400C82180B2BD
:100AE00006F004F905EBC4004068800007F084F8C4
:100AF000641CB4EB660FEFDB08B070BD0484000823
:100B0000FEE70000014800F0E5BC0000E48E002094
:100B1000014800F0DFBC0000E48E0020014800F036
:100B2000D9BC0000248F0020014800F0D3BC000095
:100B3000248F002010B54FF4D872036802EB011225
:100B40009B5813F00404436B9C600468436BA458E7
:100B500054D0E4085C6003689A58436B02F00202C8
:100B6000DA604FF4DA72036802EB01129B58446BAF
:100B700003F00F03236103689A58436BC2F3072203
:100B8000DA614FF4DC72036802EB01129B58446B8C
:100B9000237503689B58446B1B0A637503689B5855
:100BA000446B1B0CA37503689A58436B120EDA75DD
:100BB0004FF4DE72036802EB01129B58446B2376FC
:100BC00003689B58446B1B0A637603689B58446B0D
:100BD0001B0CA37603689A58436B120EDA76202218
:100BE000002901680DD00A6101684A6922F01002EB
:100BF0004A6190F83810222909D021E0640D1C6068
:100C0000A9E7CA6001684A6922F00202F0E70168B8
:100C10004A6922F480724A6101684A6922F40072CA
:100C20004A6101684A6922F480624A6101684A693E
:100C300022F400624A6101684A6922F400424A6172
:100C400090F83810322907D05FF0010180F8381091
:100C500000F058FE002010BD1221F7E710B5016822
:100C60004A6922F001024A6190F83810122918D11D
:100C700001684A6922F480724A6101684A6922F473
:100C800000724A6101684A6922F480624A6101681F
:100C90004A6922F400624A6101684A6922F400420A
:100CA0004A6190F83810322906D0012180F83810B6
:100CB00000F02AFF002010BD2221F7E770B5734C29
:100CC0002DED0E8BF0EE408A6069FFF7DFFC41EC02
:100CD000100B9FED6FABB0EE4A1AF0EE6A1A04F0FB
:100CE000FBFBB0EE402AF0EE602AB0EE429AF0EE46
:100CF000629A2069FFF7CAFC41EC100BB0EE4A1A69
:100D0000F0EE6A1A04F0E8FB53EC192B51EC100BCF
:100D1000FFF7EAFA41EC100B05F06AFA51EC100B00
:100D2000FFF7E0FC08EE100A5B4918EE100A0844D1
:100D30005A49884203D35A48006807F057F8D4ED5F
:100D4000040A80EE880A10EE100AFFF79FFC41ECBF
:100D5000100B04F08DF99FED53DB51EC100B53ECAD
:100D60001D2BFFF768FB9FED51CB53EC1C2BFFF7BE
:100D7000D4FBFFF7B7FCB3EE040A054628EE000AE1
:100D800010EE100AFFF782FCB0EE4AEAF0EE6AEAD3
:100D900041EC190BB0EE4E1AF0EE6E1A9FED450BBA
:100DA00004F09AFBB0EE40BAF0EE60BAB0EE4E1A24
:100DB000F0EE6E1A9FED410B04F08EFBB0EE40AAF0
:100DC000F0EE60AA18EE100AFFF760FC41EC100B81
:100DD000B0EE4E1AF0EE6E1A04F07EFBB0EE401A42
:100DE000F0EE601A53EC1A2B51EC110BFFF77CFA62
:100DF00053EC1B2BFFF719FB53EC192BFFF78DFB63
:100E000041EC100B03F088FF53EC1D2B51EC100B41
:100E1000FFF711FB53EC1C2BFFF77FFB41EC190B89
:100E20002846FFF733FC53EC192BFFF701FBFFF7C4
:100E300059FC08EE100A2846FFF728FC53EC192B42
:100E4000FFF752FAFFF74EFC00EE100A18EE900A78
:100E5000DFED1C0AB0F17E5F0FD018EE900A10F1A2
:100E6000814F07D138EE601A30EE600A84ED061A21
:100E700084ED070ABDEC0E8B70BD38EE601A30EEC3
:100E8000600A84ED071A84ED060AF3E7900000205B
:100E900000000000000000403333E3BE9A99D10007
:100EA000800000200000000000806640000000601C
:100EB000FB21094000000000000034400000000059
:100EC000000024400000B4422DE9F04117482DED08
:100ED000048B4178002924D10121154E154F417012
:100EE0000024F0EE409AB0EE609AF0EE418AB0EE47
:100EF000618A00BF04EBC40000EB400506EB8500EF
:100F0000F0EE480AB0EE680A06F062FB07EB8500D7
:100F1000F0EE490AB0EE690A06F05AFB641C082C90
:100F2000E8DBBDEC048BBDE8F08100009000002000
:100F3000089100206894002010B52DED048BB0EED0
:100F4000618AF0EE418AB0EE609AF0EE409A02F0CB
:100F5000BDFA002840D022482249D0ED062A90ED63
:100F6000072A32EE823A13EE100A884216DC13EE9C
:100F7000100A1D49884211D812EE901A1B4881426E
:100F80000CDC12EE902A1A498A4207D812EE102A77
:100F9000824203DC12EE100A884203D91548006829
:100FA00006F024FFF0EE481AB0EE681AF0EE490A97
:100FB000B0EE690AFFF788FF002002F02BFF012046
:100FC00002F028FF022002F025FFBDEC048B032075
:100FD000BDE8104002F01EBFBDEC048B10BD000048
:100FE0009000002000002A4300002AC300000C43A8
:100FF00000000CC38000002070B52DED028B82B084
:101000000DF1200CB0EE418A9CE87000CDE900455E
:1010100002F0B8FFB0EE480AFFF750FE02B03046CB
:10102000BDEC028BBDE8704002F0F4BE014800F058
:101030007FBD0000308C0020014800F079BD000029
:10104000908C0020014800F073BD0000F08D00205E
:10105000014800F06DBD0000F08C0020014800F058
:1010600067BD0000908D002001681823CAB2103AB5
:10107000B2FBF3F2054B6FF30901032A9B5CC365D6
:1010800000D9091D81650846704700008C8300085F
:1010900010B5014600208B698A6A4FF0C07453B1C5
:1010A000B3F5005F15D072B1012A0CD0022A0AD024
:1010B000032A09D104E01AB1012A06D0022A03D179
:1010C000C96AC90100D5012010BDC96AA142FAD080
:1010D00010BD002AF7D0012AF2D0022AF3D0032A49
:1010E000F3D010BD7047FFF7E9FC01F0F5FFFCE716
:1010F00070B5214E0546002404EBC40006EB8000C9
:10110000C07C8006204602D505F004FE01E005F013
:101110000BFE641CE4B2072CEED9184C092D09D043
:101120006078A84200D065702079002538B1A07899
:1011300078B119E005F09CFF0920607070BD6079FE
:10114000401CC0B260713228F8D965716078207196
:1011500070BD05F095FFE07820B1E5702079401E64
:10116000207101E00120E070A078401CC0B2A070A6
:101170001428EDD9A57070BDC48F00206402002032
:10118000F0B58DB00446302219496846FFF788F85B
:101190000022184D10466B4602EB420602EBC201DC
:1011A00005EB810133F816C00F8A03EB46066CF39A
:1011B0000B070F82B6F802C0B1F81170521C6CF325
:1011C0000F17A1F811703779CE7C886167F3440658
:1011D000C861086246F0E106CE7448610C604C605C
:1011E0008C60D2B2CC60082AD6D30DB0F0BD00001E
:1011F000D4830008C48F002006F0FAFF3A4EB06096
:10120000FFF7BEFF392006F0F7FC4FF00808374D16
:1012100006F0EEFFB06086F8008095F833010024F8
:1012200020F0600085F8330104EBC40005EB80007A
:10123000C17CCA074BD00368B268B0F810C0D71A97
:10124000CCF30B0C67451DD98B0603D441F060012C
:10125000C17482603278C17C02EBC20205EB82026B
:10126000C1F34301D27CC2F34302914200D93470EE
:1012700095F8331141F0600185F83311C06930B33E
:10128000804724E0C76821F04001D21BB0F81170FC
:10129000B2EB171F03D241F02001C17417E0C174F3
:1012A0000A0602D541F0200101E021F02001C174BD
:1012B00041688B420BD9591A00EE101A9FED0C1A97
:1012C000F8EE400A81EE200A10EE101A4161641C0B
:1012D000082CA9DB3078401CC0B2FFF709FF0A20B8
:1012E00006F08AFC94E7000064020020C48F00200E
:1012F00000007A44FEE7000010B52F492DED048B65
:10130000B2EE0C9AB2EE0A8AD1E90001DFED298A29
:10131000FFF772F900EE100A9FED281A2848294AB3
:10132000C0EE010A90ED010A284C30EEC00ADFED54
:10133000260A10EE101A914208DAC0ED040A80ED78
:10134000059AB7EE000AFFF7B9FC21E010EE101A7B
:101350001C4A524211441E4A914209D2C0ED040A6D
:10136000C0ED058AB7EE000AFFF7A8FC10340FE0C5
:1013700010EE101A174A1144174A914210D2C0EDCC
:10138000040A80ED058AB7EE000AFFF797FC2034C7
:1013900094EC040ABDEC048BBDE81040FFF7CCBD13
:1013A000002101700DA0BDEC048BBDE8104003F0DE
:1013B00089BC00003333C7416800002000007A4434
:1013C00090000020CDCC4C3F00000000A48300081A
:1013D000999959009A9959C0CDCC6C004A756D7095
:1013E00020436F6D706C6574652E0000F0B50A7D4A
:1013F00001209040344A136843F0010313601368DE
:1014000023F47C53136013684C6A43EA042313608B
:101410002D4B1C331C6884431C602B4D2B4CCE6918
:101420000C35A6B92E6886432E608F894E6867F307
:101430001F464F6904EBC707C7F840660F890E685F
:1014400067F31F464F6904EBC707C7F84466CE69C8
:10145000012E14D12E6806432E600E884D6866F367
:101460001F454E6904EBC606C6F840560E89CD6886
:1014700066F31F454E6904EBC604C4F84456124C8B
:101480008D69241D002D256806D0054325600E4C6E
:101490000D69143415B104E08543F7E725688543E9
:1014A00025600D69012D02D1256805432560096A73
:1014B000012902D1196801431960106820F0010068
:1014C00010600020F0BD0000006600400060004099
:1014D0007047000010B5044600684169C943C90758
:1014E00014D182685849914368D000218368574AD3
:1014F0009A4365D0002283685548984362D0002003
:101500001143014302D02046FFF7A8FB2068C168C1
:10151000406911F0030FC0F3400004D018B100215E
:101520002046FFF707FB21680869496910F0030F9F
:10153000C1F3001104D019B101212046FFF7FAFAD6
:1015400020688169426911F0010FC2F300234269EA
:10155000C2F3C03205D023B11AB1E16B41F00101F1
:10156000E1638169C1F3400341694269C1F34021EC
:10157000C2F3C0322BB121B11AB1E16B41F00201CB
:10158000E16381694269C1F38001C2F3802342694A
:10159000C2F3C03229B123B11AB1E16B41F00401A9
:1015A000E163816911F0700F0ED000214269436937
:1015B000C2F3C022C3F3C03341B127E0012195E754
:1015C000012298E701209BE70121EFE7F2B1EBB19F
:1015D000816901F07001402929D006DC102909D069
:1015E00020290BD030290DD11DE0502923D06029AE
:1015F00008D124E0E16B41F0080102E0E16B41F029
:101600001001E163816921F070018161E06B0028C4
:1016100008D0216804204860012084F83800204662
:10162000FFF756FF10BDE16B41F02001E9E7E16BE8
:1016300041F04001E5E7E16B41F08001E1E7E16B5A
:1016400041F48071DDE7000003000004000300089E
:10165000000003102DE9F041040004D094F8380094
:10166000002518B107E00120BDE8F08184F8395069
:10167000204600F093F8022084F8380020680168C2
:1016800021F0020101602068016841F00101016060
:1016900000F07AFC0746032605E000BF00F074FC6A
:1016A000C01B0A2863D820684068C007F6D02068AD
:1016B0004168C90768D0A169012901683FD021F0BC
:1016C00080010160E0690128206801683AD021F0BA
:1016D00040010160206A01282068016835D021F0AE
:1016E00020010160606A01282068016830D021F083
:1016F00010010160A06A0128206801682BD021F048
:1017000008010160E06A01282068016826D021F004
:1017100004010160D4E902010843D4E90412114331
:1017200008436168491E08432168C8612068016850
:1017300021F00101016000F027FC07461CE041F0A8
:101740008001BEE741F04001C3E741F02001C8E756
:1017500041F01001CDE741F00801D2E741F004016A
:10176000D7E700BF00F010FCC01B0A2804D904F81A
:10177000386F0320657077E720684068C007F1D1B3
:1017800020684068C00703D0042084F838006AE766
:10179000E563012084F83800002065E7F0B5324B9E
:1017A0000768DFF8C0C018680322022409252F4902
:1017B0000026401C87B0674521D11860012807D159
:1017C000086840F000700860086800F0007005903C
:1017D0008DE85400CDE903256946254800F0E4FA78
:1017E00000220521132000F069FC132000F05AFCB0
:1017F00000220521142000F061FC14202EE0DFF807
:1018000074C067452CD10F6847F080670F600F6880
:10181000012807F080670597186007D1086840F035
:1018200000700860086800F0007005904FF44050A8
:101830008DE85100CDE9032569460F4800F0B4FA60
:10184000002211463F2000F039FC3F2000F02AFC26
:1018500000221146402000F031FC402000F022FC24
:1018600007B0F0BD0064004078000020403802401E
:10187000000C0240006800400004024010B590F8DF
:101880003820012A01D0122A39D190F83920012AB2
:1018900035D0012280F8392090F83820122A29D03A
:1018A0005FF0220280F838200022C26303685C697E
:1018B00044F480745C6103685C6944F400745C61A6
:1018C00003685C6944F480645C6103685C6944F4A7
:1018D00000645C6103685C6944F400445C6180F806
:1018E000392000680029416906D041F010014161AA
:1018F000002010BD3222D5E741F00201F7E70220B7
:1019000010BD000010B50446406B0068A0F2012035
:10191000072818D81249C0B2087000EB400101EB4B
:10192000C001104800EB8100816A4A1C32298262A2
:10193000214602D805F048FB01E005F01BFB2146DB
:10194000094805F017FB09480068416941F00201A8
:10195000416107480068416941F00201416110BDE1
:1019600070020020C8970020A8990020E48E002073
:10197000248F00202DE9F05F0E4601680446886838
:10198000400105D48868000102D48868C00067D58A
:1019900094F8390001280ED0012784F8397094F8A2
:1019A000380022280AD0122084F8380088684001C4
:1019B00006D500250AE00220BDE8F09F3220F3E7BB
:1019C0008868000101D5012500E002254FF4C070B0
:1019D00000EB05100A5802F001020A50216B8A68D8
:1019E000EAB3D4F800C05CF800301343CA68496811
:1019F00042EAC1010B434CF80030216B0A7C02F033
:101A00000F020A614FF4C271226801EB05115358AD
:101A100023F00F03535022685358D4F830C0DCF839
:101A200010C043EA0C035350216B4FF4C47303EB13
:101A300005130A7DD1F8151042EA01212268D15020
:101A4000216B4FF4C67303EB05130A7ED1F819100E
:101A500042EA01212268D15021680A5801E00DE0D4
:101A600046E042F001020A5000F08EFA81464FF043
:101A70000008DFF888A0DFF888B019E02268135862
:101A8000D1F80CC0098843EA0C0343EA41511150D4
:101A9000B3E7701C0CD02EB100F076FAA0EB090071
:101AA000B04205D9032084F8380084F8398083E7F0
:101AB00095B12068012D816813D012488843002811
:101AC000E7D194F8380032280ED084F8387000BF7F
:101AD00084F8398000206FE7206881682AEA0100D5
:101AE000EDE72BEA0100EAE7222084F83800EFE76F
:101AF000042084F8380001205EE7000003000004A1
:101B00000003000800000310704790F83510022908
:101B100003D08021416501207047052180F83510F0
:101B20000068016821F00101016000207047000099
:101B30002DE9F84304464FF00008CDF800806448D2
:101B40004FF41651A56D0068B0FBF1F72E6894F8BC
:101B50005C10082000FA01F131420FD021680A68B8
:101B600052070BD50A6822F004020A6094F85C1050
:101B70008840A860606D40F00100606594F85C10DA
:101B800054488840304208D021684969090604D584
:101B9000A860606D40F0020060654E4894F85C10EB
:101BA000C01C8840304208D021680968890704D5E4
:101BB000A860606D40F00400606594F85C1010202F
:101BC0008840304218D021680968090714D5A860F8
:101BD00020680168490304D50068000308D5A16C9A
:101BE00007E00168C90503D4016821F0080101601C
:101BF000216C09B12046884794F85C102020884069
:101C000030424FF0010631D021680968C9062DD550
:101C1000A86094F8350005282068016806D04903BB
:101C200047D5006800031DD4616C1CE021F016014B
:101C300001602068416921F080014161206C08B990
:101C4000A06C20B12068016821F00801016094F8BF
:101C50005C103F208840A86084F8348084F83560A8
:101C6000216D1FE0E16B09B120468847606D0028B7
:101C70002BD0606DC00714D0052084F83500206893
:101C8000016821F0010101600098401C0090B842F9
:101C900003D820680068C007F6D184F8348084F83F
:101CA0003560E16C002910D001B02046BDE8F0435A
:101CB00008470168C905D5D4016821F01001016009
:101CC00084F8348084F83560CCE7BDE8F883000000
:101CD00004000020010080002DE9F041044600F0DE
:101CE00053F906465CB1002584F83450022084F88C
:101CF00035002068016821F0010101600DE001203C
:101D0000BDE8F08100F040F9801B052805D92020AE
:101D10006065032084F83500F2E720680068C0079A
:101D2000F0D1226811681F480140D4E9010318432B
:101D3000D4E903363343184363691843A36918434E
:101D4000E3691843236A18430843616A042903D1ED
:101D5000D4E90B1319430843106020684069666A90
:101D600020F0070130460E43012704280AD1A06A5B
:101D700006432046FFF78CF920B14020606584F8C7
:101D80003570BCE7206846612046FFF76DF994F88E
:101D90005C203F2191408160656584F835700020AA
:101DA000AEE700003F8010F02DE9F84FDFF890B16A
:101DB00000224FF001084FF0030A4FF00F090BF11A
:101DC000040E00BF0B6808FA02F42340A3426ED150
:101DD0004D68022D01D0122D0ED1D50800EB850CD7
:101DE000DCF820505607F70E09FA07F6B5430E69DE
:101DF000BE402E43CCF82060066855000F790AFAE1
:101E000005FC07F0030726EA0C06AF4037430760DE
:101E10004E68012E05D0022E03D0112E01D0122EB5
:101E20000ED18768CE6827EA0C07AE403E43866035
:101E30004668A6430C79C4F30014944034434460CC
:101E4000C4688E6824EA0C04AE402643C6604C6821
:101E5000E4006FD53B4C256845F480452560246837
:101E600022F0030504F480440094374C2E19D6F870
:101E7000084895072F0F09FA07F5AC43334DA842E0
:101E800001D100252EE0324DA84201D1012529E0E3
:101E9000304DA84201D1022524E02F4DA84201D1A6
:101EA00003251FE02D4DA84202D104251AE041E090
:101EB0002B4DA84201D1052514E02A4DA84201D19D
:101EC00006250FE0284DA84201D107250AE0274D3D
:101ED000A84201D1082505E0254DA84201D10925D8
:101EE00000E00A25BD402543C6F80858DBF800404D
:101EF0005D464E689C43F60300D51C432C60DEF81B
:101F0000004075464E689C43B60300D51C432C60C8
:101F10000B4D08352C684E689C43F60200D51C43D7
:101F20002C60074D0C352C684E689C43B60200D5DA
:101F30001C432C60521C102AFFF444AFBDE8F88FFC
:101F4000003C0140443802400030014000000240A3
:101F50000004024000080240000C02400010024051
:101F60000014024000180240001C02400020024001
:101F70000024024042694A40426170470AB18161CF
:101F800070470904FBE70000014800687047000043
:101F90000000002002480168491C016070470000F1
:101FA000000000200B4810B5016841F40071016089
:101FB000016841F480610160016841F48071016051
:101FC000032000F09BF8002000F006F800F03EF837
:101FD000002010BD003C024010B5014688B0002230
:101FE000362000F06BF8362000F05CF8134800242F
:101FF000016841F010010160006805A900F01000BF
:102000000690684600F090F900F0B4F90C494000E1
:10201000B0FBF1F10C480B4A491E026040F2E73276
:10202000C0E90324C0E9011400F008FC10B101204C
:1020300008B010BD044800F03BFCF9E7403802400E
:1020400040420F0000100040508E002010B50320C9
:1020500000F054F8002211466FF00B0000F02EF84B
:10206000002211466FF00A0000F028F80022114605
:102070006FF0090000F022F800221146501F00F016
:102080001DF800221146101F00F018F800220F2141
:10209000901E00F013F800220F21BDE81040501EE2
:1020A00000F00CB800F01F020121914040098000AF
:1020B00000F1E020C0F8001170470000F0B40E4BB2
:1020C0001B680C46C3F30223C3F10705042D00D996
:1020D0000425191D072901D2002300E0DB1E01267B
:1020E00006FA05F1491E214099409E40761E164091
:1020F0003143F0BC01F038BD0CED00E0064900F0C2
:10210000070208684FF6FF03184040EA0220034A1E
:1021100010430860704700000CED00E00000FA0575
:102120002DE9F8431E48016841F0805101600068C4
:10213000012600F080500090300490FAA0F0194F72
:10214000B0FA80F047F82060FFF71EFF05464FF415
:102150007A78154C05E000BFFFF716FF401B40459D
:1021600015D86068C003F7D54FF4003090FAA0F09E
:10217000B0FA80F047F82060FFF706FF05464646B4
:1021800008E000BFFFF700FF401BB04202D9032068
:10219000BDE8F88360688003F4D50020F8E700000C
:1021A0004038024000000E42007000402DE9F04728
:1021B000DFF8649105460F46D9F8000000F00F01E2
:1021C000F8B28046B94208D2014689F80010D9F821
:1021D000000000F00F00B84274D128784F4C8007FF
:1021E00005D52068A96820F0F00008432060287811
:1021F000C00759D049496868083901281AD002280F
:102200001BD0032819D00968890700295ADA2168E8
:1022100021F0030101432160FFF7B6FE696806461D
:1022200041F28830012911D002291DD003298246AC
:1022300027D035E009688903E7E709688901E4E701
:10224000FFF7A2FE811B514501D926E08246206896
:10225000C0F381000128F3D126E000BFFFF794FE10
:10226000811B514501D918E082462068C0F38100E6
:102270000228F3D118E000BFFFF786FE811B51450D
:102280000BD82068C0F381000328F5D10CE000BF13
:10229000FFF77AFE811B514502D90320BDE8F08784
:1022A000206810F00C0FF3D1D9F80010484601F067
:1022B0000F01B94208D980F80080006800F00F00D3
:1022C000B84201D00120E9E72878400705D5206809
:1022D000E96820F4E050084320602878000706D51C
:1022E0002068296920F4604040EAC100206000F0C5
:1022F00071F82168F02292FAA2F201F0F001B2FA2C
:1023000082F2D140064A515CC8400649086000206C
:10231000FFF762FE0020C1E7003C0240083802409F
:1023200094830008040000200F2202600C4A136806
:1023300003F003034360136803F0F0038360136842
:1023400003F4E053C36012684FF4E05303EAD2028F
:1023500002610448006800F00F0008607047000048
:1023600008380240003C0240014800687047000005
:102370000400002008480949006809684FF4E05249
:1023800092FAA2F201F4E051B2FA82F2D140044A88
:10239000515CC8407047000004000020083802402B
:1023A0009483000808480949006809684FF46042AE
:1023B00092FAA2F201F46041B2FA82F2D140044AE8
:1023C000515CC840704700000400002008380240FB
:1023D0009483000830B51948006810F00C011848C3
:1023E00012D0184C04290ED008290DD11349091F09
:1023F0000A6802F03F030A68550247F6C07204D526
:10240000B4FBF3F003E0204630BDB0FBF3F00B6803
:102410000968134092FAA2F2B2FA82F2D34058430A
:102420004FF4403292FAA2F201F44031B2FA82F251
:10243000D140491C4900B0FBF1F030BD08380240E2
:102440000024F400001BB7002DE9F84F0446DFF824
:10245000CC820078A8F1040BC007ABF1040537D09B
:10246000D8F800104046C1F38101012908D0006866
:10247000C0F3810002280AD1DBF80000400206D533
:102480002868800324D56068002878D020E0A3491C
:102490002079891F0870606868B1FFF775FD0646EE
:1024A00005E000BFFFF770FD801B642868D828682E
:1024B0008003F7D50CE0FFF767FD064605E000BF97
:1024C000FFF762FD801B6428F0D828688003F7D4EA
:1024D0002078934E80074FF0010A4FF0000742D555
:1024E000D8F80010404611F00C0F08D00068C0F377
:1024F000810002280AD1DBF80000400206D42868D7
:10250000800714D5E068012839D110E0E068D8B11F
:10251000C6F800A0FFF738FD814605E0FFF734FD5F
:10252000A0EB09000228C1D828688007F6D52868E2
:10253000F82292FAA2F22169B2FA82F220F0F800AF
:102540009140084328600EE03760FFF71DFD81468B
:1025500006E000BFFFF718FDA0EB090002280FD826
:1025600028688007F6D42078000728D56D4861696F
:10257000A1B1C0F800A0FFF707FD814608E0CAE05E
:1025800079E000BFFFF700FDA0EB0900022872D838
:1025900062486C3000688007F4D510E00760FFF7F0
:1025A000F3FC814606E000BFFFF7EEFCA0EB09005C
:1025B000022860D859486C3000688007F4D420782D
:1025C000400749D555483830016841F080510160D5
:1025D000006800F0805000905348016841F4807119
:1025E0000160FFF7D1FC814606E000BFFFF7CCFC9D
:1025F000A0EB090002283ED84B480068C005F5D57D
:10260000DFF81891207A09F1680989F80000A068BC
:1026100088B1FFF7B9FC009008E000BFFFF7B4FCF9
:102620000099411A41F2883081426CD8D9F80000F3
:102630008007F3D510E0FFF7A7FC009008E000BF8B
:10264000FFF7A2FC0099411A41F2883081425AD822
:10265000D9F800008007F3D4A069E0B3D8F80010DF
:10266000C1F38101022956D00228376604D0FFF752
:102670008BFC04464AE046E0FFF786FC074604E090
:10268000FFF782FCC01B02283DD828688001F7D4E0
:10269000D4E90701084347F6C07292FAA2F2616AD0
:1026A000B2FA82F29140A26A4FF0FF3303EB52027A
:1026B0004FF4403393FAA3F3B3FA83F39A401143F0
:1026C00008434FF0706292FAA2F2E16AB2FA82F223
:1026D0009140084300E01CE0CBF80000C6F860A081
:1026E000FFF752FC044604E0FFF74EFC001B0228F3
:1026F00009D828688001F7D50BE000BFFFF744FC3C
:10270000001B022802D90320BDE8F88F2868800149
:10271000F4D40020F8E70120F6E700000838024072
:1027200000004742800E47420070004070B5040030
:1027300005D00025A56294F8510010B106E00120F3
:1027400070BD84F85050204600F030F8022084F824
:1027500051002068016821F040010160D4E90101C5
:102760000843D4E903121143084361690843218BEC
:1027700001F400710843E1690843216A0843A16A32
:10278000084321680860A069042101EA1040616AD9
:102790000843216848602068C16921F40061C16173
:1027A0006565012084F85100002070BD00B5006807
:1027B0000E4987B0884217D10D480021026842F4C3
:1027C00080120260006800F4801005904FF4607081
:1027D00000900220CDE90101032003900520049020
:1027E00069460448FFF7E0FA07B000BD0050014019
:1027F00044380240001402404FF0E02104280869E8
:1028000003D020F004000861704740F00400FAE7AC
:1028100010B5401EB0F1807F01D3012010BD4FF0F4
:10282000E02460610F21601701F09EF90020A06193
:1028300007202061002010BD7047704710B50400CC
:1028400003D094F8390010B107E0012010BD00203A
:1028500084F83800204600F00DF8022084F8390092
:10286000211D206801F0C0FE012084F839000020FD
:1028700010BD000008B500680B49884212D10B4812
:10288000016841F0020101600068032200F00200CB
:10289000009001211D20FFF711FCBDE808401D201C
:1028A000FFF700BC08BD00000004004040380240B3
:1028B0000168CA6842F00102CA600068016841F01C
:1028C0000101016000207047704770B50446006840
:1028D00001694FF00005C943890715D4C168C94390
:1028E000890711D4E91E01610120207620688069E2
:1028F0008007204602D0FFF7E7FF04E000F098F8D9
:10290000204600F065F9257620680169C94349072A
:1029100017D4C168C943490713D46FF0040101619A
:10292000022020762068806910F4407F204602D083
:10293000FFF7CAFF04E000F07BF8204600F048F9FA
:10294000257620680169C943090716D4C168C943BF
:10295000090712D46FF00801016104202076206875
:10296000C0698007204602D0FFF7AEFF04E000F008
:102970005FF8204600F02CF9257620680169C943EC
:10298000C90617D4C168C943C90613D46FF0100132
:102990000161082020762068C06910F4407F20463D
:1029A00002D0FFF791FF04E000F042F8204600F06B
:1029B0000FF9257620680169C943C90708D1C168A4
:1029C000C943C90704D1891E0161204600F01EF9E0
:1029D00020680169C943090609D4C168C9430906C9
:1029E00005D46FF0800101612046FFF725FF2068C4
:1029F0000169C943490609D4C168C943490605D4D8
:102A00006FF040010161204600F018F9206801696B
:102A1000C94389060BD4C168C943890607D46FF03E
:102A2000200101612046BDE87040FFF706BF70BD80
:102A3000704770B5044690F838000D4601280DD057
:102A4000012684F83860022084F8390042B1042A53
:102A500018D0082A2AD00C2A4DD139E0022070BDA6
:102A6000206801F02DFE2068816941F00801816134
:102A70002068816921F004018161206881692A69E7
:102A8000114311E0206801F047FE2068816941F49C
:102A9000006181612068816921F480618161206821
:102AA00081692A6941EA0221816124E0206801F0FC
:102AB00065FE2068C16941F00801C1612068C169F3
:102AC00021F00401C1612068C1692A69114311E044
:102AD000206801F083FE2068C16941F40061C16192
:102AE0002068C16921F48061C1612068C1692A69D7
:102AF00041EA0221C16184F83960002084F838007D
:102B000070BD10B5040003D094F8390010B107E08F
:102B1000012010BD002084F83800204600F00CF899
:102B2000022084F83900211D206801F05DFD01209C
:102B300084F83900002010BD70B5056820481F4E8C
:102B40001F49103802220123032486B0B54217D151
:102B50000D6845F040050D60096801F040010591E0
:102B6000016841F0800101600068694600F0800062
:102B7000059040208DE81D0009200490114819E0BF
:102B8000114EB54218D10D6845F004050D60096875
:102B900001F004010591016841F00801016000683D
:102BA000694600F0080005904FF470408DE81D0064
:102BB00006480492FFF7F8F806B070BD0018004010
:102BC00040380240001C024000080040000C024057
:102BD0007047000010B504460068012201F064FD52
:102BE00008492068884202D00749884203D1416CD5
:102BF00041F4004141642068016841F00101016035
:102C0000002010BD00000140000401400849884236
:102C100007D10849D1E90023521C43F10003C1E95F
:102C2000002300680449884201D1FFF7B3B9704717
:102C3000947B00206800002000100040704770471F
:102C400010F8391F407808437047000070B50268DB
:102C500004461068D168536910F00F0F50D003F08C
:102C6000010501F4907635435DD0C20705D0CA0551
:102C700003D5E26B42F00102E263420705D5DA07B1
:102C800003D0E26B42F00202E263820705D5DA0765
:102C900003D0E26B42F00402E263020705D5DA07D3
:102CA00003D0E26B42F00802E263E26B002A33D009
:102CB000800604D5880602D5204601F0D3FD2068A1
:102CC0004069E16BC0F38010090700D428B32046A7
:102CD00001F0BAFD2068416949061AD5416921F021
:102CE00040014161606BA0B11B490165606BFEF75B
:102CF0000CFF002810D0606B016DBDE870400847E4
:102D0000830610D58B060ED52046BDE8704001F035
:102D1000A9BD2046FFF793FF70BD2046FFF78FFF48
:102D20000020E06370BD030606D50B0604D52046DF
:102D3000BDE8704001F032BF4006F3D54806F1D53A
:102D4000D168204621F04001D160202184F839105B
:102D500000F0BFF970BD00003948000870B50400EC
:102D600004D094F83900002510B106E0012070BDB0
:102D700084F83850204600F023F8242084F83900E5
:102D80002068C16821F40051C160204601F0B0FD07
:102D90002068016921F4904101612068416921F0B6
:102DA0002A0141612068C16841F40051C160E563B6
:102DB000202084F8390084F83A00002070BD00001B
:102DC0002DE9F047054607685F480024DFF87CC11D
:102DD000022101220323061586B087422FD1DCF899
:102DE000000040F40030CCF80000DCF8000000F4F3
:102DF0000030059060208DE80F00072004906946A0
:102E00005348FEF7D1FF544F524838607004C7E969
:102E10000104C7E903467C61BC61FC613C62384641
:102E20007C62FEF759FF08B1FEF764FA6F63002277
:102E300011462620BD63FFF741F9262041E04348B3
:102E4000DFF8188110384FF008094FF0206A474525
:102E50003CD13E4F3F1DD7F800C04CF0200CC7F8C6
:102E600000C03F6807F020070597076847F0400754
:102E70000760006800F0400005904FF484408DE842
:102E80000F0269463648FEF78FFF334F35486037EB
:102E90003860C7E901A4C7E9034680157C61C7E92A
:102EA00006403C6238467C62FEF716FF08B1FEF72A
:102EB00021FA6F63002205214720BD63FFF7FEF86A
:102EC0004720FFF7EFF806B0BDE8F087DFF89880FD
:102ED0004745F8D1DCF8007047F08047CCF8007027
:102EE000DCF8007007F080470597076847F0100787
:102EF0000760006800F0100005904FF4C0708DE886
:102F00000F0269461948FEF74FFF134F1148603F03
:102F10006038E7E8020A402051C70F4847F81449D3
:102F20006038BC61FC613C627C62FEF7D5FE08B192
:102F3000FEF7E0F92F63002205215220BD63FFF761
:102F4000BDF85220BDE70000004400404038024078
:102F5000000C024088600240908C00200014014068
:102F6000001802402864024000780040001002402F
:102F700090F83A30202B1DD1D1B1CAB190F8383039
:102F8000012B17D081628285C2850021C163222274
:102F900080F83A2080F8381001684A6942F001024E
:102FA0004A610068C16841F49071C16000207047B7
:102FB000012070470220704730B5006813498842ED
:102FC0000DD1134841880A0409D400F104024C04CD
:102FD00012884FF0000306D50A2A01D0438030BD85
:102FE00041F400410FE00D2A0BD0C1F30D04094D4F
:102FF000491C89B225F814204180B1F5FA6FEDD251
:1030000030BD41F48041418030BD000000440040AB
:1030100070000020D07B00202DE9F843044690F892
:1030200039001E4617460D46202850D135B32FB320
:1030300094F8380001284AD0012084F838004FF075
:103040000008C4F83C80212084F83900FEF79CFF7A
:10305000A784E78481464FF48057E08C4B46401E9E
:10306000E084A0684FF00002B8424FF08001204693
:10307000009611D101F0C3FD00BB02E00120BDE8C4
:10308000F8832888C0F3080120684160206908B1EE
:103090006D1C08E0AD1C06E001F0B1FD70B92168BF
:1030A00015F8010B4860E08C0028D6D14B46002271
:1030B00040212046009601F0A2FD08B10320DEE782
:1030C000202084F8390084F838800020D7E70220D7
:1030D000D5E77047FEE700002DE9F0416049614DFA
:1030E0000888020470D5604E8846287031885F4891
:1030F0005F4F0024522969D018DC362954D008DCEF
:10310000A1F1300106292FD2DFE801F03D3F424412
:10311000464839294ED004DC372947D0382923D1F5
:1031200046E0452948D04A291ED139E0514B1A1DA5
:103130006D2957D00CDC622952D004DC532931D0E0
:10314000612911D14AE06B2953D06C290CD153E08D
:10315000782958D004DC6E2947D0762904D15BE069
:1031600079295CD07A294BD043A001F0ABFD4948C6
:1031700000680168C9434906FBD447A001F0A2FDDD
:103180000020297853E0062100E007210170EEE7D6
:103190000821FBE70921F9E70A21F7E70B21F5E709
:1031A0000C21F3E70470E2E70221EFE70321EDE7EA
:1031B0000421EBE70521E9E70470642004F01CFD1D
:1031C000386804F013FED2E737E0FFE704706420AC
:1031D00004F012FD386804F095FDC8E70D21D5E72D
:1031E0000E21D3E74FF47F7001E04FF4FF601860C9
:1031F000BDE74FF4A56001E040F638101060B6E777
:103200001868143001E018681438186012681968DA
:103210002CA001F057FDAAE71068143001E01068F7
:1032200014381060F2E700BF26F81040401C8842B6
:10323000FADBA8F80040BDE8F08168884FF47A61B5
:10324000401C80B2B0FBF1F2688001FB120010B9A3
:1032500022A001F037FDBDE8F0410A2004F0CCBC0B
:10326000720000205E020020D07B00209000002031
:1032700080000020340800400D0A2020556E6B6E3F
:103280006F776E20636F6D6D616E642020200D0A74
:1032900000000000B08B00200D0A2F2A2A2A2A2ABB
:1032A0002A2A2A2A2A2A2A2ACAD5B5BDC3FCC1EE4F
:1032B0002A2A2A2A2A2A2A2A2A2A2A2A2A2A2A2A6E
:1032C0002F0D0A000D0A204343523120256420208F
:1032D00043435232202564200D0A00000D0A2F2A94
:1032E0002A2A2A2A2A2A2A2A2A2A2A2A48425554B3
:1032F00020524F424F434F4E203230313920B5F7E4
:10330000CAD4C4A3CABD2A2A2A2A2A2A2A2A2A2A8D
:103310002A2A2A2A2A2A2F200D0A00000FB4404AFE
:1033200010B54FF4FA742DED088B9DED0A8A9DEDD2
:103330000D0ADDED0C9A9DED0E9A38EE000A0B9801
:10334000DDED0F8A10EE101A914238DCFDF79EF980
:103350009FED341B53EC112BFDF76DF89FED33AB54
:1033600041EC100BB0EE4A1AF0EE6A1A02F0B4F813
:10337000B0EE40BAF0EE60BA18EE100AFDF786F92A
:1033800041EC100BB0EE4A1AF0EE6A1A02F0A4F803
:10339000B0EE401AF0EE601A53EC1B2B51EC110BFF
:1033A000FCF7A2FF41EC100B02F022FF9FED211B66
:1033B00051EC100B53EC112BFDF77CF901D21FA03F
:1033C00021E038EE690A234910EE100A884201DA3A
:1033D00021A018E0B5EEC09AF1EE10FA04D919EE6A
:1033E000100AB0F17E5F01DD21A00CE0F5EEC08A8D
:1033F000F1EE10FA01D225A005E018EE900A2B4953
:1034000088420BDD2AA001F05DFC204604F0F4FBAD
:103410000020BDEC088B10BC5DF814FB0120F8E720
:103420006666EA41000000000000E03F0000000086
:1034300000000040000000C0CC4C3D404761697472
:10344000206F766572657874656E6473206C65674D
:1034500000000000333323414761697420756E64B6
:103460006572657874656E6473206C656700000032
:10347000466C696768742070657263656E74206954
:103480007320696E76616C69640000004672657134
:1034900075656E63792063616E6E6F74206265205E
:1034A0006E65676174697665000000000000204168
:1034B0004672657175656E637920697320746F6FEC
:1034C000206869676820283E31302900B5EEC00ABF
:1034D00010B5F1EE10FA4FF4FA740ED3F5EEC00AFF
:1034E000F1EE10FA09D3B5EEC01AF1EE10FA04D3DA
:1034F000F5EEC01AF1EE10FA01D21AA028E010EE93
:10350000100A4FF0844188420DDC10EE900A4FF013
:103510007E52904207DC11EE100A884203DC11EE65
:10352000900A904201DD14A012E010EE103A194A00
:103530001949934203DD10EE900A884207DB11EE31
:10354000100A90420BDD11EE900A884207DA13A0B0
:1035500001F0B8FB204604F04FFB002010BD012015
:1035600010BD0000496E76616C6964206761696E08
:10357000733A203C30000000496E76616C6964202B
:103580006761696E733A20746F6F20686967682E8F
:103590000000000000004842CDCCCC3D496E766171
:1035A0006C6964206761696E733A20756E64657238
:1035B00064616D70656400000F4810B50D490160CD
:1035C0000521416000214FF400328160C0E90312FF
:1035D0005201C0E905210122C0E90721416281624F
:1035E000C162FEF737F8002803D0BDE81040FDF7B0
:1035F00081BE10BD00640040E48E0020104810B56C
:103600000E4901600521416000214FF04072C0E980
:1036100002124FF4003202615201C0E90521012279
:10362000C0E9072141628162C162FEF713F80028F8
:1036300003D0BDE81040FDF75DBE10BD006800403E
:10364000248F00201D4808B5016841F48001016005
:10365000016801F480010091016841F400110160EA
:103660000068002200F40010009005210C20FEF7F5
:1036700025FD0C20FEF716FD002205211020FEF787
:103680001DFD1020FEF70EFD002205211120FEF782
:1036900015FD1120FEF706FD002205213920FEF759
:1036A0000DFD3920FEF7FEFC002205213A20FEF731
:1036B00005FDBDE808403A20FEF7F4BC3038024072
:1036C0002DE9F0474C4886B00024016841F0100114
:1036D0000160016801F010010591016841F00201EB
:1036E0000160016801F002010591016841F04001AB
:1036F0000160016801F040010591016841F0080195
:103700000160016801F008010591016841F00101C3
:103710000160016801F001010591016841F48071C7
:103720000160016801F480710591016841F0800138
:103730000160016801F080010591016841F02001FC
:1037400001600068DFF8B48000F0200005900022DE
:1037500088214046FEF712FC012204214046FEF774
:103760000DFCDFF89C904FF400560022314648468D
:10377000FEF704FCDFF88CA044F240070022394633
:103780005046FEF7FBFB8C2000900125CDE901544B
:10379000694640460394FEF707FB022000901A4852
:1037A000CDE9010569464046FEF7FEFA0096CDE9EF
:1037B0000154694648460394FEF7F6FA4FF49060C8
:1037C000CDE90004694611480294FEF7EDFA00972E
:1037D000CDE90154694650460394FEF7E5FA0D2001
:1037E00000900B48CDE9010469460A48FEF7DCFA6F
:1037F00006B0BDE8F08700003038024000100240FB
:10380000001802400014024000002110000C024089
:103810000000111000000240104810B50E49016070
:103820004FF48271416000218160C1604FF40072E9
:103830000161C0E905123022C0E9072141628162BD
:103840000A21C162FEF772FF002803D0BDE81040D4
:10385000FDF750BD10BD0000005001408C8E0020CF
:103860000C4810B50A4901604FF4E1314160002174
:1038700081600C22C160C0E904128161C161FFF75F
:103880006DFA002803D0BDE81040FDF733BD10BD30
:1038900000780040708B0020104810B50E49016080
:1038A0004FF4E1314160002181600C22C160C0E928
:1038B00004128161C161FFF751FA012208490748EA
:1038C000FFF756FB0548FFF749FA002803D0BDE88B
:1038D0001040FDF70FBD10BD00440040B08B00202C
:1038E00074000020FEE700002DE9F05F8B4F4FF0E1
:1038F00001092DED048B0024894E8A4D87F8009034
:103900009FED899A04EBC40000EB400806EB8800A9
:10391000F0EE490AB3EE080A03F05AFE05EB880000
:10392000F0EE490AB2EE0F0A03F052FE641C082CB6
:10393000E8DB9FED7E0AB84687ED080A9FED7C8B99
:103940007D4C2068FCF7A2FE53EC182BFCF7CCFC56
:10395000FCF7C8FE20606068FCF798FE53EC182B5B
:10396000FCF7C2FCFCF7BEFE6060A068FCF78EFEB0
:1039700053EC182BFCF759FDFCF7B4FEA060E0688F
:10398000FCF784FE53EC182BFCF74FFDFCF7AAFE66
:10399000E0602069FCF77AFE53EC182BFCF7A4FCDE
:1039A000FCF7A0FE20616069FCF770FE53EC182B59
:1039B000FCF79AFCFCF796FE6061A069FCF766FED6
:1039C00053EC182BFCF731FDFCF78CFEA061E0698D
:1039D000FCF75CFE53EC182BFCF727FDFCF782FE8E
:1039E000DFF858B1E0614FF47A708BF8009004F082
:1039F00003F900274FEA060A07EBC70000EB400671
:103A00000AEB8600F0EE490AB2EE0E0A03F0E0FD82
:103A100005EB8600F0EE490AB2EE050A03F0D8FD88
:103A20007F1C082FE8DB9FED460A454688ED080A13
:103A30009FED448B2068FCF729FE53EC182BFCF714
:103A4000F4FCFCF74FFE20606068FCF71FFE53ECAF
:103A5000182BFCF749FCFCF745FE6060A068FCF7FA
:103A600015FE53EC182BFCF7E0FCFCF73BFEA060C6
:103A7000E068FCF70BFE53EC182BFCF735FCFCF769
:103A800031FEE0602069FCF701FE53EC182BFCF7D7
:103A9000CCFCFCF727FE20616069FCF7F7FD53ECD6
:103AA000182BFCF721FCFCF71DFE6061A069FCF7F8
:103AB000EDFD53EC182BFCF7B8FCFCF713FEA061EE
:103AC000E069FCF7E3FD53EC182BFCF70DFCFCF769
:103AD00009FEE0614E468BF800904FF47A7004F0D6
:103AE0008BF84FF4B0711948FCF7F3FB184900202C
:103AF00001EB800282ED009A04EB8002401C82ED13
:103B0000009A0828F4DB642004F076F82E7011A0E7
:103B1000BDEC048BBDE8F05F01F0D4B8900000204C
:103B20000891002068940020000000000000AAC254
:103B3000CBD6FAA25722E2C0848F00205C0200207C
:103B40000000B4C2D74CBED96B33E3C0C897002085
:103B5000648F0020454E4420446F6E652E000000A7
:103B600003F028FBFCE770470907090E002806DA76
:103B700000F00F0000F1E02080F8141D704700F104
:103B8000E02080F80014704730B4034C4466034CC6
:103B9000846630BC03F012BDBD750008CB7500080B
:103BA000804F2DED028B07F5A6758EB0A5F5C0747C
:103BB0009FED7D8A2678182206EB460007EBC001B0
:103BC00008A8FCF76DFB0F2E19D2DFE806F008E617
:103BD000192A4053667184A0C0CBDEE1E40084ED75
:103BE000048A9FED720A84ED050AB7EE000AFDF71C
:103BF00065F804F1240090EC040AFDF79DF9CCE08F
:103C0000B0EE482ADDE90C01F7EE005AB7EE005A93
:103C1000F7EE004AB7EE004AF0EE423AB0EE423A12
:103C200038E0DDE90C01F7EE005AB7EE005AF7EE86
:103C3000004A9FE0CDE9000104F124000DF1200CC1
:103C400090EC040A9CE80F0003F08AF8A5E0DDE997
:103C50000C01F0EE482AF7EE005AB7EE005AF7EEE4
:103C6000004AB7EE004AF0EE623AB6EE003AB6EE1F
:103C7000002ADFE7DDE90C01F7EE005AB7EE005A43
:103C8000F7EE004AB7EE004AF6EE003AB6EE003A1A
:103C9000B0EE482AF0EE422ACCE7DDE90C01F7EE5F
:103CA000005AB7EE005AF7EE004AB7EE004A09E0B4
:103CB000DDE90C01FFEE005ABFEE005AFFEE004AAC
:103CC000BFEE004AF5EE003AB6EE083AF6EE002AEC
:103CD000B0EE482AAEE71822354902A8FCF7E0FA10
:103CE000D5E90B01CDE90001F7EE003AB7EE003A55
:103CF000F7EE002AB7EE002AF5EE001AB6EE081A23
:103D0000F6EE000AB0EE480A05F11C001BE0284957
:103D10001822183902A8FCF7C3FAD5E91101CDE938
:103D20000001F7EE003AB7EE003AF7EE002AB7EEE0
:103D3000002AF5EE001AB6EE081AF6EE000AB0EE0A
:103D4000480A05F134000FC803F09AF825E0DDE9D0
:103D50000C01F7EE005ABFEE005AF7EE004ABFEE34
:103D6000004A09E0DDE90C01FFEE005AB7EE005A07
:103D7000FFEE004AB7EE004AB0EE482AB6EE003A2F
:103D8000F0EE423AF6EE002A54E7FDF7B5FA04E009
:103D900000F0CCF901E0FFF7A7FD012003F02CFFB4
:103DA00008E70000C40000200000000067908A417E
:103DB0004402002070B50546154A1448002482E8E4
:103DC000330010461461FEF79CFE114860263C301B
:103DD0006D080660C0E90154014600223C38FEF738
:103DE00028FE00210A48FEF7F5FE09480422583053
:103DF00001460660C0E901545838FEF71AFEBDE8D6
:103E0000704004210248FEF7E5BE000000080040B3
:103E10002C9A002070B5514C06462DED028BD4ED46
:103E2000060A94ED070A4E4930EE801A11EE100A88
:103E3000884216DC11EE100A4A49884211D810EE69
:103E4000901A494881420CDC10EE902A47498A4278
:103E500007D810EE102A824203DC10EE100A8842C6
:103E600003D94348006803F0C1FF9FED428B434DE7
:103E700036B1012E23D0022E36D0032E53D066E069
:103E800094ED060AB1EE400A10EE100AFCF7FEFBB4
:103E900053EC182BFCF7CFFAFCF724FC686094ED88
:103EA000070AB1EE400A10EE100AFCF7EFFB53ECE4
:103EB000182BFCF7C0FAFCF715FC286047E0A06956
:103EC000FCF7E4FB53EC182BFCF7B5FAFCF70AFC03
:103ED000A860E069FCF7DAFB53EC182BFCF7ABFAAF
:103EE000FCF700FCE86032E094ED060AB1EE400A0F
:103EF00010EE100AFCF7CAFB53EC182BFCF79BFAE8
:103F0000FCF7F0FB686194ED070AB1EE400A10EE91
:103F1000100AFCF7BBFB53EC182BFCF78CFAFCF7F0
:103F2000E1FB286113E0A069FCF7B0FB53EC182B10
:103F3000FCF781FAFCF7D6FBA861E069FCF7A6FB69
:103F400053EC182BFCF777FAFCF7CCFBE8610C4933
:103F500001200870BDEC028B70BD000090000020B5
:103F600000003243000032C300001643000016C3B5
:103F7000800000203201BF46D24E7B40848F00205B
:103F80005C0200200FB42DED020B70B5614C2DEDDD
:103F90000A8B94ED031ADDED151A139E30EE412ABB
:103FA00094ED021A109D9DED12CA01EE821A9DED4C
:103FB000148ADDED118A84ED021A84ED030A31EED4
:103FC000200A10EE100AFCF761FB41EC100B9FED8C
:103FD000529BB0EE491AF0EE691A01F0F9F951EC72
:103FE000100BFCF77FFB0AEE100A9FED4DBBDFEDD7
:103FF0004EAAB4EEC8AAF1EE10FA36D818EE900A1E
:10400000FCF744FB53EC1B2BFCF715FA8AEE080A6D
:1040100041EC190B20EE280A10EE100AFCF736FBD3
:1040200053EC192BFCF701FAFCF75CFB20612846E6
:10403000FCF72CFB6AEE2A0A41EC190B80EE880A89
:1040400010EE100AFCF722FB41EC100B02F06CF8AA
:10405000B0EE408AB1EE4C0AF0EE608A10EE100A23
:10406000FCF714FB53EC182B46E018EE100AFCF793
:104070000DFB53EC192BFCF7DBF93AEE480A41EC47
:10408000190B10EE100AFCF701FB53EC192BFCF78F
:1040900044FAFCF727FB08EE100A18EE900AFCF72A
:1040A000F5FA53EC1B2BFCF7C6F928EE680A41EC35
:1040B000190B10EE100AFCF7E9FA53EC192BFCF778
:1040C00013F9FCF70FFB20612846FCF7DFFA28EE16
:1040D0002A0A41EC190B10EE100AFCF7D7FA41EC52
:1040E000100B02F021F8B0EE408AF0EE608A304604
:1040F000FCF7CCFA53EC182BFCF79DF953EC192B79
:10410000FCF7F2F8FCF7EEFA6061BDEC0A8B70BCCC
:104110005DF81CFB90000020000000000000F03F54
:10412000000000000000E03FDB0F49402DE9F05F98
:10413000C94E4FF001092DED048B002586F8009043
:104140009FEDC68AC64CC74F9FEDC79A05EBC500C9
:1041500000EB400804EB8800F0EE490AB0EE480A94
:1041600003F036FA07EB8800F0EE490AB2EE0F0AC8
:1041700003F02EFA6D1C082DE8DB9FEDBC0A86EDDE
:10418000080A9FEDBB8BDFF8F0A25546DAF8000075
:10419000FCF77CFA53EC182BFCF747F9FCF7A2FA72
:1041A00028606868FCF772FA53EC182BFCF79CF84F
:1041B000FCF798FA6860A868FCF768FA53EC182BCB
:1041C000FCF733F9FCF78EFAA860E868FCF75EFAB2
:1041D00053EC182BFCF788F8FCF784FAE8602869A0
:1041E000FCF754FA53EC182BFCF71FF9FCF77AFA9A
:1041F00028616869FCF74AFA53EC182BFCF774F84D
:10420000FCF770FA6861A869FCF740FA53EC182BC8
:10421000FCF70BF9FCF766FAA861E869FCF736FAD7
:1042200053EC182BFCF760F8FCF75CFADFF84CB2A3
:10423000E8614FF4FA608BF8009003F0DDFC002594
:1042400005EBC50000EB400804EB8800F0EE490ADE
:10425000B3EE0C0A03F0BCF907EB8800F0EE490A54
:10426000B2EE0F0A03F0B4F96D1C082DE8DBB9EECD
:10427000040A86ED080AB0469FED818B5546DAF8B0
:104280000000FCF703FA53EC182BFCF7CEF8FCF710
:1042900029FA28606868FCF7F9F953EC182BFCF749
:1042A00023F8FCF71FFA6860A868FCF7EFF953ECF5
:1042B000182BFCF7BAF8FCF715FAA860E868FCF7C9
:1042C000E5F953EC182BFCF70FF8FCF70BFAE86054
:1042D0002869FCF7DBF953EC182BFCF7A6F8FCF780
:1042E00001FA28616869FCF7D1F953EC182BFBF748
:1042F000FBFFFCF7F7F96861A869FCF7C7F953EC15
:10430000182BFCF792F8FCF7EDF9A861E869FCF7C7
:10431000BDF953EC182BFBF7E7FFFCF7E3F9E86175
:10432000DA468BF800904FF47A7003F065FC0026B3
:104330004FEA040B06EBC60000EB40040BEB8400D5
:10434000F0EE490AB3EE040A03F042F907EB8400E9
:10435000F0EE490AB2EE0F0A03F03AF9761C082E85
:10436000E8DB9FED490A444688ED080A9FED478B3C
:104370002868FCF78BF953EC182BFBF7B5FFFCF71B
:10438000B1F928606868FCF781F953EC182BFBF74A
:10439000ABFFFCF7A7F96860A868FCF777F953EC66
:1043A000182BFCF742F8FCF79DF9A860E868FCF7C9
:1043B0006DF953EC182BFCF738F8FCF793F9E8602B
:1043C0002869FCF763F953EC182BFBF78DFFFCF71A
:1043D00089F928616869FCF759F953EC182BFBF748
:1043E00083FFFCF77FF96861A869FCF74FF953EC8C
:1043F000182BFCF71AF8FCF775F9A861E869FCF7C7
:1044000045F953EC182BFCF710F8FCF76BF9E86151
:104410004E468AF800904FF47A7003F0EDFB4FF4AB
:10442000B0711C48FBF755FF1B49002001EB8002CF
:1044300082ED009A05EB8002401C82ED009A08286C
:10444000F4DB642003F0D8FB267014A0BDEC048BD1
:10445000BDE8F05F00F036BC900000200000344260
:104460000891002068940020000000000000BE4277
:10447000E3C281108044E440848F00205C0200206D
:10448000BF60376C4311A1C00000AA42CBD6FAA28C
:104490005722E240C8970020648F00205374617255
:1044A0007420446F6E652E0002F09CBF30B5264824
:1044B00093B00025016841F080510160006800F070
:1044C000805011902148016841F44041016000682A
:1044D000022400F4404011900120009001908005DA
:1044E000CDE9064006200890B420CDE90904042057
:1044F0000B906846FDF7A8FF00B1FEE7FDF710FE40
:1045000000B1FEE70CA90F2081E831004FF4A05064
:104510000F904FF48050109005210CA8FDF746FE37
:1045200000B1FEE7FDF720FF4FF47A71B0FBF1F028
:10453000FEF76EF90420FEF75FF900220F21501EEE
:10454000FDF7BCFD13B030BD4038024000700040A4
:104550001048016841F4700101600F48016841F0A2
:10456000010101600C4A00210832116002680B4B06
:104570001A400260031D0A4A1A60026822F480226F
:10458000026005480C300160024958068039086015
:104590007047000088ED00E000380240FFFFF6FEA3
:1045A000103000240148FEF790B90000947B0020F1
:1045B000094A10B5074BC2E900310021C2E90210D7
:1045C00010461161FEF73AF9BDE810400248FEF7C7
:1045D0006FB9000000040040947B00200148FEF702
:1045E00074B90000508E0020F0B50268234B244DB2
:1045F000244E254F254C4FF0804C984209D0604501
:1046000007D0A84205D0B04203D0B84201D0A042A2
:1046100004D122F0700E4A6842EA0E0298421BD082
:10462000604519D0A84217D0B04215D0B84213D077
:10463000A04211D0164DA8420ED0164DA8420BD064
:10464000154DA84208D0154DA84205D0144DA842DA
:1046500002D0144DA84203D122F44075CA682A43FF
:1046600002608A68C2620A688262984201D0A042EF
:1046700001D10969016301214161F0BD00000140E0
:104680000004004000080040000C0040000401400D
:104690000040014000440140004801400018004033
:1046A000001C00400020004010B50123046A8B402C
:1046B0009C430462036A8A401343036210BD0000F6
:1046C00030B5026A22F001020262026A436884691C
:1046D0000D6824F07304254322F002048A68224303
:1046E0000B4CA04202D00B4CA0420BD122F008048C
:1046F000CA6823F4407322434C6922F004021C432D
:104700008B6923434360856149684163026230BD20
:10471000000001400004014030B5026A22F010029E
:104720000262026A436884690D6824F4E64444EA3C
:1047300005248D6822F0200242EA05120D4DA842A0
:1047400002D00D4DA8420ED1CD6822F0800242EA7F
:1047500005124D6923F4406343EA85038D6922F015
:10476000400243EA850343608461496881630262D1
:1047700030BD0000000001400004014030B5026A75
:1047800022F480720262036A4268C46923F40073EF
:1047900024F073050C682C438D6843EA05230D4D06
:1047A000A84202D00C4DA8420ED1CD6823F400637C
:1047B00043EA05234D6922F4405242EA05128D690D
:1047C00023F4806342EA05124260C4614968C16310
:1047D000036230BD000001400004014030B5026AB0
:1047E00022F480520262046A4268C3690D6823F4AD
:1047F000E64343EA05238D6824F4005444EA053473
:10480000084DA84202D0084DA84204D14D6922F4B7
:10481000804242EA85124260C361496801640462D1
:1048200030BD000000000140000401400148FEF7D7
:104830000DBA0000708B002010B5806B0021C1857F
:10484000C184FEF7FCF910BD0168CA6822F49072B9
:10485000CA6001684A6922F001024A61202180F899
:104860003A10704710B590F83A10222901D0022072
:1048700010BD8168B1F5805F11D001690029016820
:104880001FD0496801F07F03816A4A1C82620B7065
:10489000C18D491E0904090CC18518D026E00269A2
:1048A000816A002A0268526805D0D2B20A80816A01
:1048B000491C8162ECE7C2F308020A80816A891C04
:1048C000F7E74A68816A4B1C83620A70E0E7016877
:1048D000CA6822F49072CA6001684A6922F0010233
:1048E0004A61202180F83A10FEF766FB002010BDD7
:1048F0002DE9F04104460068016921F44052E16865
:10490000114301612168C86849F20C629043236930
:10491000A268E5691A4363692B431A430243CA60DC
:104920002168486920F44072A06910434861E16938
:104930006425B1F5004F9748974A21684FF0320837
:104940003FD0914201D081427CD1FDF72BFD00EB9D
:10495000C00101EB001061688900B0FBF1F6FDF7C2
:1049600021FD00EBC00101EB001061688900B0FB84
:10497000F1F0B0FBF5F06FF01801484306EB800151
:1049800008EB0110B0FBF5F000F0F006FDF70AFDB2
:1049900000EBC00101EB001061688900B0FBF1F091
:1049A000B0FBF5F006EB0016FDF7FCFC00EBC001D8
:1049B00001EB001061688900B0FBF1F7FDF7F2FC34
:1049C000D2E0914201D081423DD1FDF7EBFC00EBFA
:1049D000C00101EB001061684900B0FBF1F0B0FBD1
:1049E000F5F00601FDF7DEFC00EBC00101EB001065
:1049F00061684900B0FBF1F7FDF7D4FC00EBC001A2
:104A000001EB001061684900B0FBF1F0B0FBF5F07C
:104A10006FF01801484307EB800108EBC100B0FBC1
:104A2000F5F000F0F80006EB4006FDF7BBFC00EBEC
:104A3000C00101EB001061684900B0FBF1F7FDF720
:104A4000B1FC3CE055E0FDF795FC00EBC00101EB4B
:104A5000001061684900B0FBF1F0B0FBF5F0060111
:104A6000FDF788FC00EBC00101EB00106168490014
:104A7000B0FBF1F7FDF77EFC00EBC00101EB00108D
:104A800061684900B0FBF1F0B0FBF5F06FF0180180
:104A9000484307EB800108EBC100B0FBF5F000F0E4
:104AA000F80006EB4006FDF765FC00EBC00101EBEA
:104AB000001061684900B0FBF1F7FDF75BFC00EB0B
:104AC000C00101EB001061684900B0FBF1F0B0FBE0
:104AD000F5F06FF01801484307EB800108EBC100C7
:104AE000B0FBF5F000F00700216830448860BDE8B5
:104AF000F081FDF73FFC00EBC00101EB00106168A5
:104B00008900B0FBF1F6FDF735FC00EBC00101EBCD
:104B1000001061688900B0FBF1F0B0FBF5F06FF0B8
:104B20001801484306EB800108EB0110B0FBF5F0DB
:104B300000F0F006FDF71EFC00EBC00101EB0010D9
:104B400061688900B0FBF1F0B0FBF5F006EB0016F0
:104B5000FDF710FC00EBC00101EB0010616889005B
:104B6000B0FBF1F7FDF706FC00EBC00101EB001014
:104B700061688900B0FBF1F0B0FBF5F06FF018014F
:104B8000484307EB800108EB0110B0FBF5F000F0A3
:104B90000F00A9E7001401400010014090F83910FF
:104BA000212901D0022070478168B1F5805F016A38
:104BB0000BD04A1C0262026809785160C18C491E00
:104BC0000904090CC1840ED017E009880268C1F3FA
:104BD0000801516001690029016A02D0491C016283
:104BE000ECE7891CFBE70168CA6822F08002CA6012
:104BF0000068C16841F04001C160002070472DE9A4
:104C0000F041984617460E460446069D1DE0681C76
:104C10001BD02DB1FDF7B8F9A0EB0800A84214D9BC
:104C20002068C16821F4D071C1602068416921F019
:104C300001014161202084F8390084F83A00002005
:104C400084F838000320BDE8F0812068006836EA67
:104C5000000004D00020B842D9D00020F3E70120A2
:104C6000F9E7000070B500240C4D0D48FDF7EEFF8C
:104C700002E0641CAC4204D80948FDF7E1FF20289B
:104C8000F7D1002402E0641CAC4206D80122054999
:104C90000348FEF76DF90028F5D170BDFFFF010054
:104CA000B08B0020740000200148FDF7CFBF00004A
:104CB000508D00200148FDF7C9BF0000F08B002097
:104CC000FEE700000FB4054B10B503A9044A029893
:104CD00001F028FF10BC5DF814FB00003D6D0008DA
:104CE0007402002003B401984100009850EAC120EA
:104CF00018BF04204A0D18BF40F0010040F2FF72B7
:104D0000B2EB515F08BF40F00200012808BF052048
:104D100002B070470000000010B5B94A2DED020B3B
:104D20002DED0C8B82B00F9921F000409FEDB6CB9A
:104D300090422CDBA0F140530E9AA3F17F631A43FB
:104D40000FD0B349884202DC16D10E98A0B19DED78
:104D50000E0B02B0BDEC0C8B02B0BDE8104001F0B0
:104D600087BE0029C1BF9FEDAC0B02B0BDEC0C8B20
:104D700002B0C8BF10BD16E0012001F0CDFE02B0A8
:104D8000BDEC0C8B02B0BDE8104001F085BEA44A1A
:104D90009FEDA59B9FEDA6AB90425EDAA6499FEDE5
:104DA000A8CB814208DBB0EE4C0AF0EE6C0A02B0F0
:104DB000BDEC0C8B02B010BD9DED0E0B53EC102B17
:104DC00051EC100BFBF737FB41EC180B9E4806210A
:104DD000B0EE480AF0EE680A784401F01DFD53EC8D
:104DE000182B51EC100BFBF726FB41EC1B0B9748E3
:104DF000B0EE480AF0EE680A0421784401F00CFD98
:104E000053EC182B51EC100BFBF715FB53EC192B43
:104E1000FBF76AFA41EC100B51EC1B0B53EC102B17
:104E2000FBF77BFB41EC100B53EC102B9DED0E0BB5
:104E300051EC100BFBF7FFFA53EC1A2BFBF7F8FAC7
:104E40009DED0E1B53EC112BFBF7F2FA53EC1C2BD0
:104E5000FBF7EEFA41EC100BA9E79FED7D8B9FED80
:104E60007EBB9DED0E0B002953EC192B51EC100B62
:104E700052DAFBF739FA53EC182BFBF7DCFA41EC6A
:104E8000180B77480621B0EE480AF0EE680A78441D
:104E900001F0C2FC53EC182B51EC100BFBF7CBFAD2
:104EA00041EC1D0B6F48B0EE480AF0EE680A042191
:104EB000784401F0B1FC53EC182B51EC100BFBF7CC
:104EC000BAFA53EC192BFBF70FFA41EC190B51EC22
:104ED000180B02F039FD41EC180B53EC192B51EC77
:104EE0001D0BFBF71AFB53EC182BFBF7A4FA53EC42
:104EF0001A2BFBF79AFA41EC100B51EC180B53EC00
:104F0000102BFBF7F1F953EC1B2BFBF794FA53EC46
:104F10001C2BFBF78DFA6DE0FBF78AFA53EC182B8C
:104F2000FBF789FA41EC180B02F00EFD41EC1A0B6D
:104F300000208DED00AB00909DED000B51EC1A0BA5
:104F400053EC102BFBF7D0F99DED000B41EC1C0B43
:104F500053EC102B51EC100BFBF76DFA53EC182BA4
:104F6000FBF766FA53EC1C2BFBF7D7FA41EC1C0B52
:104F70003D48B0EE480AF0EE680A0621784401F098
:104F80004BFC53EC182B51EC100BFBF754FA41EC93
:104F90001D0B3648B0EE480AF0EE680A042178444A
:104FA00001F03AFC53EC182B51EC100BFBF743FAD1
:104FB00053EC192BFBF798F941EC100B51EC1D0B3E
:104FC00053EC102BFBF7A9FA53EC1A2BFBF733FA2F
:104FD00053EC1C2BFBF788F941EC100B53EC102B16
:104FE0009DED000B51EC100BFBF77EF953EC1B2BE6
:104FF000FBF721FA41EC100BD9E60000000000009D
:105000000000F03F00000000182D4454FB2109402F
:105010000000F07F00000000000000000000000021
:105020000000E03F00000000000000000000F03F32
:10503000075C143326A6913C0000603C0000000091
:10504000182D4454FB21F93FB4380000C238000049
:10505000000000000000E03F0000000000000040F1
:10506000FE3700000C380000103700001E3700002B
:1050700070B5C1482DED020B2DED0E8B82B0119D48
:1050800025F000449FEDBEDB9FEDBFEB84423EDB8D
:10509000A4F140511098A1F17F6108430FD0BC48A2
:1050A000844202DC28D1109830B39DED100B02B081
:1050B000BDEC0E8B02B0BDE8704001F0D9BC9DED97
:1050C000100B53EC1D2B51EC100BFBF7B4F99DEDBD
:1050D000100B41EC180B53EC1E2B51EC100BFBF793
:1050E000AAF953EC182BFBF7FFF841EC100B02B0B8
:1050F000BDEC0E8B02B070BD012001F00DFD02B0C1
:10510000BDEC0E8B02B0BDE8704001F0C5BCA148FB
:105110009FEDA18B844256DA9DED100BB4F1795FBF
:105120000ADA51EC100BFFF7DDFD042808BF01F08F
:10513000D3FC9DED100BDAE753EC102B51EC100B68
:10514000FBF779F941EC190B95480621B0EE490AB5
:10515000F0EE690A784401F05FFB53EC192B51EC37
:10516000100BFBF768F941EC1A0B8E48B0EE490AB8
:10517000F0EE690A0421784401F04EFB53EC192B40
:1051800051EC100BFBF757F953EC182BFBF7ACF86D
:1051900041EC100B51EC1A0B53EC102BFBF7BDF943
:1051A000CDE900019DED000B53EC102B9DED100B94
:1051B00051EC100BFBF73FF99DED101B53EC112B3D
:1051C000FBF792F8D2E09DED100B51EC100B01F0C3
:1051D00095FD53EC182BFBF72BF99FED730BCDE9E5
:1051E000000153EC102B9DED000B51EC100BFBF765
:1051F00022F941EC190B6E480621B0EE490AF0EE97
:10520000690A784401F008FB53EC192B51EC100BA0
:10521000FBF711F941EC1B0B6648B0EE490AF0EEC2
:10522000690A0421784401F0F7FA53EC192B51EC88
:10523000100BFBF700F953EC182BFBF755F841EC7A
:105240001C0B51EC190B02F07FFB41EC180B5A4878
:105250009FED5BABA04222DC53EC1C2B51EC1B0BF3
:10526000FBF75BF9CDE900019DED000B51EC180B4C
:1052700053EC102BFBF7DFF853EC182BFBF734F84B
:1052800053EC1A2BFBF7D7F853EC1D2BFBF7CDF89B
:1052900053EC1E2BFBF7CCF841EC100B5FE08DEDCF
:1052A000008B002000909DED000B51EC180B53EC8F
:1052B000102BFBF719F89DED000B41EC1E0B53EC86
:1052C000102B51EC100BFBF7B6F853EC192BFBF736
:1052D000AFF853EC1E2BFBF720F941EC190B53EC04
:1052E0001C2B51EC1B0BFBF718F941EC1B0B53EC7F
:1052F0001A2B51EC190BFBF79EF853EC1D2BFBF707
:1053000097F841EC190B53EC1A2B51EC180BFBF7E7
:1053100092F853EC1B2BFBF78EF853EC192BFBF791
:1053200084F89DED000B41EC180B53EC1A2B51EC5B
:10533000100BFBF780F89FED249B53EC192BFBF728
:1053400077F841EC100B51EC180B53EC102BFBF7DA
:105350006CF853EC192BFBF76BF841EC100B002D9C
:105360003FF7C5AE51EC100B81F0004141EC100B42
:10537000BDE60000000000000000F03F000000005B
:10538000075C143326A6913C182D4454FB21F93FA9
:105390000000F07F0000E03F000000000000F03F50
:1053A0008835000096350000000000000000E03F56
:1053B000DA340000E83400003333EF3F000000002F
:1053C0000000000000000040182D4454FB21E93F7C
:1053D00010B52DED040B86B09DED060B10EE100AF6
:1053E00010EE901A8DED000B002818BF0120084325
:1053F00020F00040C0F17F6000F1E040C00F21D1FB
:105400009DED080B10EE101A10EE900A8DED000BBA
:10541000002918BF0121084320F00040C0F17F603F
:1054200000F1E040C00F0DD129490798B1EB400FC2
:1054300004BF0698002842D00998400004BF08988D
:1054400000283CD09DED080B53EC102B9DED060B76
:1054500051EC100BFBF7A5FACDE902019DED020B13
:1054600040F2FF7110EE900A8DED000B31EA105002
:1054700021D00798039900F0004001F000418842D4
:1054800019D09DED080B8DED040B9DED020B8DEDFC
:10549000000B10EE900A059961F31E0005909DED3A
:1054A000041B9DED020B51EC110B53EC102BFAF782
:1054B000BFFFCDE902019DED020B0AB010BD012036
:1054C00001F02AFB0AB0BDE8104001F0E5BA000087
:1054D0000000E0FF000000002DE9F04D2DED040B71
:1054E0002DED0E8B96B0DDE92550279CDDF890A0C0
:1054F00025F0004624F00048BAF1000F14BF012146
:10550000002101EB4502FC4953184A1093422AD36B
:10551000002814BF0123002303EB44030B44F74985
:105520008B4220D358EA00019FEDF59B76D0DFF83F
:10553000D8B35D4503D1BAF1000F05D188E0BAF1C7
:10554000000F08BF002100D0012101EB450111F53A
:10555000001F08D8002814BF0121002101EB4401DD
:1055600011F5001F0BD99DED261B9DED240B16B0E8
:10557000BDEC0E8B04B0BDE8F04D01F083BA0027FE
:10558000002DBCBFE149884521DAE1498845A8BF23
:1055900002271CDAC3451ADCDE4901EB2851142925
:1055A00008DDC1F1340220FA02F101FA02F282426E
:1055B0000DD108E058B9C1F1140228FA02F101FA3C
:1055C00002F2424503D101F00101C1F1020756EA9E
:1055D0000A0124D1002C22DA002D18BF022F01D09D
:1055E000012F0AD0022001F097FA16B0BDEC0E8B05
:1055F00004B0BDE8F04D01F023BA022001F08CFAAE
:1056000001F01EFA51EC100B81F0004141EC100B3F
:1056100016B0BDEC0E8B04B0BDE8F08D18E09FED28
:10562000BEAB9FEDBF8B002871D1B848804522D119
:1056300005F1804010F5801008BFBAF1000F07D0C7
:10564000B3450ADC002CA8BF9DED260BE0DA0DE087
:10565000B0EE490AF0EE690ADAE7002C06DA9DEDB1
:10566000260B51EC100B81F000416FE0AE487844FE
:1056700090ED000BCCE7D8454DD1002C48DA2EB187
:1056800086423AD1BAF1000F42D126E0BAF1000FBA
:1056900013D0022001F040FA01F00EFA8DED020B5A
:1056A0009DED240B8DED000B10EE900A039961F334
:1056B0001E0003909DED020BAAE78DED02AB9DED60
:1056C000240B1AEE901A10EE900A8DED000B61F388
:1056D0001E0003909DED020B9AE78DED028B9DED70
:1056E000240B18EE901A10EE900A8DED000B61F36A
:1056F0001E0003909DED020B8AE709DA9DED240B55
:1057000051EC190B53EC102BFAF707FF1EE020E0C9
:105710009DED240B7CE786421BDAB4F1804F0DD05F
:10572000A4F10050B0F1FF5013D1002D11DB9DED1D
:10573000240B51EC100B02F007F907E09DED240B50
:1057400053EC102B51EC100B00F0C2BC41EC100BD1
:105750005EE79DED240B51EC100B01F0CFFABAF18E
:10576000000FCDE90E0142D19FED710B46B3A6F1BA
:10577000E040B0F17F600CD05E4538D1002D00DAFA
:10578000A7B3022F0CBF01204FF0FF30FAF742FF02
:10579000DCE7002D01DD002C0DDA002D01DD002CF1
:1057A0001FDB002D16DA002C14DB012F08BF9FED44
:1057B000620B3FF42DAFB0EE4A0AF0EE6A0A27E71B
:1057C000022F18BF002D0CD0012F0AD1002DFFF69B
:1057D0001FAF06E0002DB8BF002C08DA012F3FF400
:1057E00017AFB0EE480AF0EE680A11E71BE001209F
:1057F00000EBE57050EA070115D0791EB0EE498A3A
:10580000F0EE698A084308BF9FED4D8B4E48002596
:10581000804570DD4D494E48884514DDB0420DDBB2
:10582000002C19DB2FE0012001F076F916B0BDEC59
:105830000E8B04B0BDE8F04D01F02EB9B34502DC8B
:10584000002C09DC1FE0864202DA002C1BDA03E0A0
:105850005E452BDD002C16DD022001F05DF901F024
:105860002BF98DED020B53EC1A2B51EC180BFAF7B8
:10587000E2FDCDE900010399019861F31E00039058
:105880009DED020BC4E6022001F046F901F024F977
:1058900010EE901A18EE900A8DED020B8DED008B34
:1058A00061F31E0003909DED020BB1E69DED0E0B22
:1058B00053EC192B51EC100BFAF7B7FD9FED260BAB
:1058C000CDE9080153EC102B9DED080B51EC100BAA
:1058D000FAF7B1FD9FED221B53EC112BFAF7A8FD4F
:1058E0009DED081B53EC112BFAF7A5FD9FED1E1B38
:1058F00053EC112B3CE08CE0FFFF1F00FFFF0F007B
:10590000000000000000F03F0000F03F0000F07FCA
:105910000000404301FCFFFF000000000000F07F9A
:1059200000000000000000007631000000000000D0
:105930000000000000000080000000000000F0FFF8
:10594000000000000000F0BF0000E0410000F04354
:10595000FFFFEF3F00000000000000000000D03F0C
:10596000555555555555D53F000000000000E03F06
:10597000FAF75EFD9DED080B41EC1A0B53EC102B72
:1059800051EC100BFAF757FD53EC1A2BFAF753FDB5
:1059900041EC1A0B9FEDFE0B53EC102B9DED080B09
:1059A00051EC100BFAF747FD41EC1B0B9FEDFA0B86
:1059B00051EC1A0B53EC102BFAF73DFD41EC1A0B8E
:1059C0009FEDF70B53EC102B9DED080B51EC100BDA
:1059D000FAF731FD53EC1A2BFAF727FD41EC1A0BBD
:1059E00051EC1B0B53EC1A2BFAF77EFC0690CDE919
:1059F00006519DED060B53EC1B2B51EC100BFAF7E7
:105A000014FD53EC1A2BFAF713FD41EC100B00F0C8
:105A1000A1B90020B6F5801F0EDA9FEDE30B53EC21
:105A2000102B9DED0E0B51EC100BFAF704FDCDE998
:105A30000E016FF034000E4600EB2650A0F2FF3747
:105A4000C6F31300DA4940F07F6646F040568842BC
:105A5000D8BF002408DDD7498142C8BF012403DC38
:105A60000024A6F580167F1CD348784400EBC400C0
:105A70000F9690ED00CB9DED0E0B53EC1C2B51ECD3
:105A8000100BFAF7D2FC9DED0E0B41EC1B0B53EC07
:105A90001C2B51EC100BFAF727FC41EC100B51ECCE
:105AA000190B53EC102BFAF738FD41EC1D0B51ECA0
:105AB0001B0B53EC1D2BFAF7BEFC41EC1A0BBF4835
:105AC0008DED10AB7844109590ED000B4FF0005029
:105AD00040EA660000EB84408DED080B00F50020E5
